{"contracts/Staking.sol":{"Staking":{"abi":[{"inputs":[{"internalType":"uint256","name":"currentEthPrice","type":"uint256"}],"stateMutability":"payable","type":"constructor"},{"inputs":[{"internalType":"string","name":"name","type":"string"},{"internalType":"string","name":"symbol","type":"string"},{"internalType":"address","name":"tokenAddress","type":"address"},{"internalType":"uint256","name":"usdPrice","type":"uint256"},{"internalType":"uint256","name":"apy","type":"uint256"}],"name":"addToken","outputs":[],"stateMutability":"nonpayable","type":"function"},{"inputs":[{"internalType":"uint256","name":"apy","type":"uint256"},{"internalType":"uint256","name":"value","type":"uint256"},{"internalType":"uint256","name":"numberDays","type":"uint256"}],"name":"calculateInterest","outputs":[{"internalType":"uint256","name":"","type":"uint256"}],"stateMutability":"pure","type":"function"},{"inputs":[{"internalType":"uint256","name":"createdDate","type":"uint256"}],"name":"calculateNumberDays","outputs":[{"internalType":"uint256","name":"","type":"uint256"}],"stateMutability":"view","type":"function"},{"inputs":[{"internalType":"uint256","name":"positionId","type":"uint256"}],"name":"closePosition","outputs":[],"stateMutability":"nonpayable","type":"function"},{"inputs":[],"name":"currentPositionId","outputs":[{"internalType":"uint256","name":"","type":"uint256"}],"stateMutability":"view","type":"function"},{"inputs":[],"name":"currentTokenId","outputs":[{"internalType":"uint256","name":"","type":"uint256"}],"stateMutability":"view","type":"function"},{"inputs":[],"name":"ethUsdPrice","outputs":[{"internalType":"uint256","name":"","type":"uint256"}],"stateMutability":"view","type":"function"},{"inputs":[{"internalType":"uint256","name":"positionId","type":"uint256"}],"name":"getPositionById","outputs":[{"components":[{"internalType":"uint256","name":"positionId","type":"uint256"},{"internalType":"address","name":"walletAddress","type":"address"},{"internalType":"string","name":"symbol","type":"string"},{"internalType":"string","name":"name","type":"string"},{"internalType":"uint256","name":"createdDate","type":"uint256"},{"internalType":"uint256","name":"apy","type":"uint256"},{"internalType":"uint256","name":"tokenQuantity","type":"uint256"},{"internalType":"uint256","name":"usdValue","type":"uint256"},{"internalType":"uint256","name":"ethValue","type":"uint256"},{"internalType":"bool","name":"open","type":"bool"}],"internalType":"struct Staking.Position","name":"","type":"tuple"}],"stateMutability":"view","type":"function"},{"inputs":[],"name":"getPositionIdsForAddress","outputs":[{"internalType":"uint256[]","name":"","type":"uint256[]"}],"stateMutability":"view","type":"function"},{"inputs":[{"internalType":"string","name":"tokenSymbol","type":"string"}],"name":"getToken","outputs":[{"components":[{"internalType":"uint256","name":"tokenId","type":"uint256"},{"internalType":"string","name":"name","type":"string"},{"internalType":"string","name":"symbol","type":"string"},{"internalType":"address","name":"tokenAddress","type":"address"},{"internalType":"uint256","name":"usdPrice","type":"uint256"},{"internalType":"uint256","name":"ethPrice","type":"uint256"},{"internalType":"uint256","name":"apy","type":"uint256"}],"internalType":"struct Staking.Token","name":"","type":"tuple"}],"stateMutability":"view","type":"function"},{"inputs":[],"name":"getTokenSymbols","outputs":[{"internalType":"string[]","name":"","type":"string[]"}],"stateMutability":"view","type":"function"},{"inputs":[{"internalType":"uint256","name":"positionId","type":"uint256"},{"internalType":"uint256","name":"newCreatedDate","type":"uint256"}],"name":"modifyCreatedDate","outputs":[],"stateMutability":"nonpayable","type":"function"},{"inputs":[],"name":"owner","outputs":[{"internalType":"address","name":"","type":"address"}],"stateMutability":"view","type":"function"},{"inputs":[{"internalType":"address","name":"","type":"address"},{"internalType":"uint256","name":"","type":"uint256"}],"name":"positionIdsByAddress","outputs":[{"internalType":"uint256","name":"","type":"uint256"}],"stateMutability":"view","type":"function"},{"inputs":[{"internalType":"uint256","name":"","type":"uint256"}],"name":"positions","outputs":[{"internalType":"uint256","name":"positionId","type":"uint256"},{"internalType":"address","name":"walletAddress","type":"address"},{"internalType":"string","name":"symbol","type":"string"},{"internalType":"string","name":"name","type":"string"},{"internalType":"uint256","name":"createdDate","type":"uint256"},{"internalType":"uint256","name":"apy","type":"uint256"},{"internalType":"uint256","name":"tokenQuantity","type":"uint256"},{"internalType":"uint256","name":"usdValue","type":"uint256"},{"internalType":"uint256","name":"ethValue","type":"uint256"},{"internalType":"bool","name":"open","type":"bool"}],"stateMutability":"view","type":"function"},{"inputs":[{"internalType":"string","name":"symbol","type":"string"},{"internalType":"uint256","name":"tokenQuantity","type":"uint256"}],"name":"stakeTokens","outputs":[],"stateMutability":"nonpayable","type":"function"},{"inputs":[{"internalType":"string","name":"","type":"string"}],"name":"stakedTokens","outputs":[{"internalType":"uint256","name":"","type":"uint256"}],"stateMutability":"view","type":"function"},{"inputs":[{"internalType":"uint256","name":"","type":"uint256"}],"name":"tokenSymbols","outputs":[{"internalType":"string","name":"","type":"string"}],"stateMutability":"view","type":"function"},{"inputs":[{"internalType":"string","name":"","type":"string"}],"name":"tokens","outputs":[{"internalType":"uint256","name":"tokenId","type":"uint256"},{"internalType":"string","name":"name","type":"string"},{"internalType":"string","name":"symbol","type":"string"},{"internalType":"address","name":"tokenAddress","type":"address"},{"internalType":"uint256","name":"usdPrice","type":"uint256"},{"internalType":"uint256","name":"ethPrice","type":"uint256"},{"internalType":"uint256","name":"apy","type":"uint256"}],"stateMutability":"view","type":"function"}],"evm":{"bytecode":{"linkReferences":{},"object":"608060405260018055600160055560405162002df038038062002df08339818101604052810190620000329190620000c0565b80600281905550336000806101000a81548173ffffffffffffffffffffffffffffffffffffffff021916908373ffffffffffffffffffffffffffffffffffffffff16021790555050620000f2565b600080fd5b6000819050919050565b6200009a8162000085565b8114620000a657600080fd5b50565b600081519050620000ba816200008f565b92915050565b600060208284031215620000d957620000d862000080565b5b6000620000e984828501620000a9565b91505092915050565b612cee80620001026000396000f3fe608060405234801561001057600080fd5b50600436106101205760003560e01c80636e7ddea8116100ad57806399fbab881161007157806399fbab8814610323578063a126d6011461035c578063b838ec8614610378578063c1733f68146103a8578063c41cc502146103d857610120565b80636e7ddea81461027f57806371d772ca146102af5780638da5cb5b146102cb5780639478ab8c146102e957806394b308ab1461030757610120565b80631131c8cd116100f45780631131c8cd146101c75780632406b5c0146101e557806327f706551461021557806345eae373146102315780634b4ea9541461026157610120565b80629a9b7b1461012557806304c2320b1461014357806305b938161461017957806305e1bd8c14610197575b600080fd5b61012d610408565b60405161013a9190611968565b60405180910390f35b61015d60048036038101906101589190611add565b61040e565b6040516101709796959493929190611be6565b60405180910390f35b610181610596565b60405161018e9190611d6f565b60405180910390f35b6101b160048036038101906101ac9190611dbd565b61066f565b6040516101be9190611968565b60405180910390f35b6101cf6106ab565b6040516101dc9190611968565b60405180910390f35b6101ff60048036038101906101fa9190611e10565b6106b1565b60405161020c9190611968565b60405180910390f35b61022f600480360381019061022a9190611e3d565b6106e9565b005b61024b60048036038101906102469190611ea9565b610796565b6040516102589190611968565b60405180910390f35b6102696107c7565b6040516102769190611fa7565b60405180910390f35b61029960048036038101906102949190611e10565b61085c565b6040516102a69190611fc9565b60405180910390f35b6102c960048036038101906102c4919061204b565b610908565b005b6102d3610db5565b6040516102e091906120ab565b60405180910390f35b6102f1610dd9565b6040516102fe9190611968565b60405180910390f35b610321600480360381019061031c91906120c6565b610ddf565b005b61033d60048036038101906103389190611e10565b61106b565b6040516103539a9998979695949392919061219d565b60405180910390f35b61037660048036038101906103719190611e10565b6111fc565b005b610392600480360381019061038d9190611e10565b611487565b60405161039f9190612346565b60405180910390f35b6103c260048036038101906103bd9190612368565b611686565b6040516103cf9190612458565b60405180910390f35b6103f260048036038101906103ed9190611add565b611863565b6040516103ff9190611968565b60405180910390f35b60015481565b60048180516020810182018051848252602083016020850120818352809550505050505060009150905080600001549080600101805461044d906124a9565b80601f0160208091040260200160405190810160405280929190818152602001828054610479906124a9565b80156104c65780601f1061049b576101008083540402835291602001916104c6565b820191906000526020600020905b8154815290600101906020018083116104a957829003601f168201915b5050505050908060020180546104db906124a9565b80601f0160208091040260200160405190810160405280929190818152602001828054610507906124a9565b80156105545780601f1061052957610100808354040283529160200191610554565b820191906000526020600020905b81548152906001019060200180831161053757829003601f168201915b5050505050908060030160009054906101000a900473ffffffffffffffffffffffffffffffffffffffff16908060040154908060050154908060060154905087565b60606003805480602002602001604051908101604052809291908181526020016000905b828210156106665783829060005260206000200180546105d9906124a9565b80601f0160208091040260200160405190810160405280929190818152602001828054610605906124a9565b80156106525780601f1061062757610100808354040283529160200191610652565b820191906000526020600020905b81548152906001019060200180831161063557829003601f168201915b5050505050815260200190600101906105ba565b50505050905090565b600061016d6103e88385876106849190612509565b61068e9190612509565b610698919061257a565b6106a2919061257a565b90509392505050565b60055481565b60006018603c8084426106c491906125ab565b6106ce919061257a565b6106d8919061257a565b6106e2919061257a565b9050919050565b3373ffffffffffffffffffffffffffffffffffffffff1660008054906101000a900473ffffffffffffffffffffffffffffffffffffffff1673ffffffffffffffffffffffffffffffffffffffff1614610777576040517f08c379a000000000000000000000000000000000000000000000000000000000815260040161076e9061262b565b60405180910390fd5b8060066000848152602001908152602001600020600401819055505050565b600760205281600052604060002081815481106107b257600080fd5b90600052602060002001600091509150505481565b6060600760003373ffffffffffffffffffffffffffffffffffffffff1673ffffffffffffffffffffffffffffffffffffffff16815260200190815260200160002080548060200260200160405190810160405280929190818152602001828054801561085257602002820191906000526020600020905b81548152602001906001019080831161083e575b5050505050905090565b6003818154811061086c57600080fd5b906000526020600020016000915090508054610887906124a9565b80601f01602080910402602001604051908101604052809291908181526020018280546108b3906124a9565b80156109005780601f106108d557610100808354040283529160200191610900565b820191906000526020600020905b8154815290600101906020018083116108e357829003601f168201915b505050505081565b60006004848460405161091c92919061267b565b9081526020016040518091039020600001540361096e576040517f08c379a0000000000000000000000000000000000000000000000000000000008152600401610965906126e0565b60405180910390fd5b6004838360405161098092919061267b565b908152602001604051809103902060030160009054906101000a900473ffffffffffffffffffffffffffffffffffffffff1673ffffffffffffffffffffffffffffffffffffffff166323b872dd3330846040518463ffffffff1660e01b81526004016109ee93929190612700565b6020604051808303816000875af1158015610a0d573d6000803e3d6000fd5b505050506040513d601f19601f82011682018060405250810190610a319190612763565b5060405180610140016040528060055481526020013373ffffffffffffffffffffffffffffffffffffffff16815260200160048585604051610a7492919061267b565b90815260200160405180910390206001018054610a90906124a9565b80601f0160208091040260200160405190810160405280929190818152602001828054610abc906124a9565b8015610b095780601f10610ade57610100808354040283529160200191610b09565b820191906000526020600020905b815481529060010190602001808311610aec57829003601f168201915b5050505050815260200184848080601f016020809104026020016040519081016040528093929190818152602001838380828437600081840152601f19601f82011690508083019250505050505050815260200142815260200160048585604051610b7592919061267b565b90815260200160405180910390206006015481526020018281526020018260048686604051610ba592919061267b565b908152602001604051809103902060040154610bc19190612509565b81526020016002548360048787604051610bdc92919061267b565b908152602001604051809103902060040154610bf89190612509565b610c02919061257a565b8152602001600115158152506006600060055481526020019081526020016000206000820151816000015560208201518160010160006101000a81548173ffffffffffffffffffffffffffffffffffffffff021916908373ffffffffffffffffffffffffffffffffffffffff1602179055506040820151816002019081610c89919061293c565b506060820151816003019081610c9f919061293c565b506080820151816004015560a0820151816005015560c0820151816006015560e0820151816007015561010082015181600801556101208201518160090160006101000a81548160ff021916908315150217905550905050600760003373ffffffffffffffffffffffffffffffffffffffff1673ffffffffffffffffffffffffffffffffffffffff1681526020019081526020016000206005549080600181540180825580915050600190039060005260206000200160009091909190915055600160056000828254610d729190612a0e565b925050819055508060088484604051610d8c92919061267b565b90815260200160405180910390206000828254610da99190612a0e565b92505081905550505050565b60008054906101000a900473ffffffffffffffffffffffffffffffffffffffff1681565b60025481565b3373ffffffffffffffffffffffffffffffffffffffff1660008054906101000a900473ffffffffffffffffffffffffffffffffffffffff1673ffffffffffffffffffffffffffffffffffffffff1614610e6d576040517f08c379a0000000000000000000000000000000000000000000000000000000008152600401610e649061262b565b60405180910390fd5b6003858590918060018154018082558091505060019003906000526020600020016000909192909192909192909192509182610eaa929190612a4d565b506040518060e00160405280600154815260200188888080601f016020809104026020016040519081016040528093929190818152602001838380828437600081840152601f19601f82011690508083019250505050505050815260200186868080601f016020809104026020016040519081016040528093929190818152602001838380828437600081840152601f19601f8201169050808301925050505050505081526020018473ffffffffffffffffffffffffffffffffffffffff16815260200183815260200160025484610f82919061257a565b81526020018281525060048686604051610f9d92919061267b565b9081526020016040518091039020600082015181600001556020820151816001019081610fca919061293c565b506040820151816002019081610fe0919061293c565b5060608201518160030160006101000a81548173ffffffffffffffffffffffffffffffffffffffff021916908373ffffffffffffffffffffffffffffffffffffffff1602179055506080820151816004015560a0820151816005015560c08201518160060155905050600180600082825461105b9190612a0e565b9250508190555050505050505050565b60066020528060005260406000206000915090508060000154908060010160009054906101000a900473ffffffffffffffffffffffffffffffffffffffff16908060020180546110ba906124a9565b80601f01602080910402602001604051908101604052809291908181526020018280546110e6906124a9565b80156111335780601f1061110857610100808354040283529160200191611133565b820191906000526020600020905b81548152906001019060200180831161111657829003601f168201915b505050505090806003018054611148906124a9565b80601f0160208091040260200160405190810160405280929190818152602001828054611174906124a9565b80156111c15780601f10611196576101008083540402835291602001916111c1565b820191906000526020600020905b8154815290600101906020018083116111a457829003601f168201915b5050505050908060040154908060050154908060060154908060070154908060080154908060090160009054906101000a900460ff1690508a565b3373ffffffffffffffffffffffffffffffffffffffff166006600083815260200190815260200160002060010160009054906101000a900473ffffffffffffffffffffffffffffffffffffffff1673ffffffffffffffffffffffffffffffffffffffff16146112a0576040517f08c379a000000000000000000000000000000000000000000000000000000000815260040161129790612b69565b60405180910390fd5b600115156006600083815260200190815260200160002060090160009054906101000a900460ff1615151461130a576040517f08c379a000000000000000000000000000000000000000000000000000000000815260040161130190612bd5565b60405180910390fd5b60006006600083815260200190815260200160002060090160006101000a81548160ff02191690831515021790555060046006600083815260200190815260200160002060020160405161135e9190612c78565b908152602001604051809103902060030160009054906101000a900473ffffffffffffffffffffffffffffffffffffffff1673ffffffffffffffffffffffffffffffffffffffff1663a9059cbb3360066000858152602001908152602001600020600601546040518363ffffffff1660e01b81526004016113e0929190612c8f565b6020604051808303816000875af11580156113ff573d6000803e3d6000fd5b505050506040513d601f19601f820116820180604052508101906114239190612763565b50600061144560066000848152602001908152602001600020600401546106b1565b90506000611480600660008581526020019081526020016000206005015460066000868152602001908152602001600020600801548461066f565b9050505050565b61148f611891565b6006600083815260200190815260200160002060405180610140016040529081600082015481526020016001820160009054906101000a900473ffffffffffffffffffffffffffffffffffffffff1673ffffffffffffffffffffffffffffffffffffffff1673ffffffffffffffffffffffffffffffffffffffff16815260200160028201805461151e906124a9565b80601f016020809104026020016040519081016040528092919081815260200182805461154a906124a9565b80156115975780601f1061156c57610100808354040283529160200191611597565b820191906000526020600020905b81548152906001019060200180831161157a57829003601f168201915b505050505081526020016003820180546115b0906124a9565b80601f01602080910402602001604051908101604052809291908181526020018280546115dc906124a9565b80156116295780601f106115fe57610100808354040283529160200191611629565b820191906000526020600020905b81548152906001019060200180831161160c57829003601f168201915b5050505050815260200160048201548152602001600582015481526020016006820154815260200160078201548152602001600882015481526020016009820160009054906101000a900460ff1615151515815250509050919050565b61168e6118fc565b600483836040516116a092919061267b565b90815260200160405180910390206040518060e0016040529081600082015481526020016001820180546116d3906124a9565b80601f01602080910402602001604051908101604052809291908181526020018280546116ff906124a9565b801561174c5780601f106117215761010080835404028352916020019161174c565b820191906000526020600020905b81548152906001019060200180831161172f57829003601f168201915b50505050508152602001600282018054611765906124a9565b80601f0160208091040260200160405190810160405280929190818152602001828054611791906124a9565b80156117de5780601f106117b3576101008083540402835291602001916117de565b820191906000526020600020905b8154815290600101906020018083116117c157829003601f168201915b505050505081526020016003820160009054906101000a900473ffffffffffffffffffffffffffffffffffffffff1673ffffffffffffffffffffffffffffffffffffffff1673ffffffffffffffffffffffffffffffffffffffff1681526020016004820154815260200160058201548152602001600682015481525050905092915050565b6008818051602081018201805184825260208301602085012081835280955050505050506000915090505481565b60405180610140016040528060008152602001600073ffffffffffffffffffffffffffffffffffffffff168152602001606081526020016060815260200160008152602001600081526020016000815260200160008152602001600081526020016000151581525090565b6040518060e00160405280600081526020016060815260200160608152602001600073ffffffffffffffffffffffffffffffffffffffff1681526020016000815260200160008152602001600081525090565b6000819050919050565b6119628161194f565b82525050565b600060208201905061197d6000830184611959565b92915050565b6000604051905090565b600080fd5b600080fd5b600080fd5b600080fd5b6000601f19601f8301169050919050565b7f4e487b7100000000000000000000000000000000000000000000000000000000600052604160045260246000fd5b6119ea826119a1565b810181811067ffffffffffffffff82111715611a0957611a086119b2565b5b80604052505050565b6000611a1c611983565b9050611a2882826119e1565b919050565b600067ffffffffffffffff821115611a4857611a476119b2565b5b611a51826119a1565b9050602081019050919050565b82818337600083830152505050565b6000611a80611a7b84611a2d565b611a12565b905082815260208101848484011115611a9c57611a9b61199c565b5b611aa7848285611a5e565b509392505050565b600082601f830112611ac457611ac3611997565b5b8135611ad4848260208601611a6d565b91505092915050565b600060208284031215611af357611af261198d565b5b600082013567ffffffffffffffff811115611b1157611b10611992565b5b611b1d84828501611aaf565b91505092915050565b600081519050919050565b600082825260208201905092915050565b60005b83811015611b60578082015181840152602081019050611b45565b60008484015250505050565b6000611b7782611b26565b611b818185611b31565b9350611b91818560208601611b42565b611b9a816119a1565b840191505092915050565b600073ffffffffffffffffffffffffffffffffffffffff82169050919050565b6000611bd082611ba5565b9050919050565b611be081611bc5565b82525050565b600060e082019050611bfb600083018a611959565b8181036020830152611c0d8189611b6c565b90508181036040830152611c218188611b6c565b9050611c306060830187611bd7565b611c3d6080830186611959565b611c4a60a0830185611959565b611c5760c0830184611959565b98975050505050505050565b600081519050919050565b600082825260208201905092915050565b6000819050602082019050919050565b600082825260208201905092915050565b6000611cab82611b26565b611cb58185611c8f565b9350611cc5818560208601611b42565b611cce816119a1565b840191505092915050565b6000611ce58383611ca0565b905092915050565b6000602082019050919050565b6000611d0582611c63565b611d0f8185611c6e565b935083602082028501611d2185611c7f565b8060005b85811015611d5d5784840389528151611d3e8582611cd9565b9450611d4983611ced565b925060208a01995050600181019050611d25565b50829750879550505050505092915050565b60006020820190508181036000830152611d898184611cfa565b905092915050565b611d9a8161194f565b8114611da557600080fd5b50565b600081359050611db781611d91565b92915050565b600080600060608486031215611dd657611dd561198d565b5b6000611de486828701611da8565b9350506020611df586828701611da8565b9250506040611e0686828701611da8565b9150509250925092565b600060208284031215611e2657611e2561198d565b5b6000611e3484828501611da8565b91505092915050565b60008060408385031215611e5457611e5361198d565b5b6000611e6285828601611da8565b9250506020611e7385828601611da8565b9150509250929050565b611e8681611bc5565b8114611e9157600080fd5b50565b600081359050611ea381611e7d565b92915050565b60008060408385031215611ec057611ebf61198d565b5b6000611ece85828601611e94565b9250506020611edf85828601611da8565b9150509250929050565b600081519050919050565b600082825260208201905092915050565b6000819050602082019050919050565b611f1e8161194f565b82525050565b6000611f308383611f15565b60208301905092915050565b6000602082019050919050565b6000611f5482611ee9565b611f5e8185611ef4565b9350611f6983611f05565b8060005b83811015611f9a578151611f818882611f24565b9750611f8c83611f3c565b925050600181019050611f6d565b5085935050505092915050565b60006020820190508181036000830152611fc18184611f49565b905092915050565b60006020820190508181036000830152611fe38184611b6c565b905092915050565b600080fd5b600080fd5b60008083601f84011261200b5761200a611997565b5b8235905067ffffffffffffffff81111561202857612027611feb565b5b60208301915083600182028301111561204457612043611ff0565b5b9250929050565b6000806000604084860312156120645761206361198d565b5b600084013567ffffffffffffffff81111561208257612081611992565b5b61208e86828701611ff5565b935093505060206120a186828701611da8565b9150509250925092565b60006020820190506120c06000830184611bd7565b92915050565b600080600080600080600060a0888a0312156120e5576120e461198d565b5b600088013567ffffffffffffffff81111561210357612102611992565b5b61210f8a828b01611ff5565b9750975050602088013567ffffffffffffffff81111561213257612131611992565b5b61213e8a828b01611ff5565b955095505060406121518a828b01611e94565b93505060606121628a828b01611da8565b92505060806121738a828b01611da8565b91505092959891949750929550565b60008115159050919050565b61219781612182565b82525050565b6000610140820190506121b3600083018d611959565b6121c0602083018c611bd7565b81810360408301526121d2818b611b6c565b905081810360608301526121e6818a611b6c565b90506121f56080830189611959565b61220260a0830188611959565b61220f60c0830187611959565b61221c60e0830186611959565b61222a610100830185611959565b61223861012083018461218e565b9b9a5050505050505050505050565b61225081611bc5565b82525050565b61225f81612182565b82525050565b60006101408301600083015161227e6000860182611f15565b5060208301516122916020860182612247565b50604083015184820360408601526122a98282611ca0565b915050606083015184820360608601526122c38282611ca0565b91505060808301516122d86080860182611f15565b5060a08301516122eb60a0860182611f15565b5060c08301516122fe60c0860182611f15565b5060e083015161231160e0860182611f15565b50610100830151612326610100860182611f15565b5061012083015161233b610120860182612256565b508091505092915050565b600060208201905081810360008301526123608184612265565b905092915050565b6000806020838503121561237f5761237e61198d565b5b600083013567ffffffffffffffff81111561239d5761239c611992565b5b6123a985828601611ff5565b92509250509250929050565b600060e0830160008301516123cd6000860182611f15565b50602083015184820360208601526123e58282611ca0565b915050604083015184820360408601526123ff8282611ca0565b91505060608301516124146060860182612247565b5060808301516124276080860182611f15565b5060a083015161243a60a0860182611f15565b5060c083015161244d60c0860182611f15565b508091505092915050565b6000602082019050818103600083015261247281846123b5565b905092915050565b7f4e487b7100000000000000000000000000000000000000000000000000000000600052602260045260246000fd5b600060028204905060018216806124c157607f821691505b6020821081036124d4576124d361247a565b5b50919050565b7f4e487b7100000000000000000000000000000000000000000000000000000000600052601160045260246000fd5b60006125148261194f565b915061251f8361194f565b925082820261252d8161194f565b91508282048414831517612544576125436124da565b5b5092915050565b7f4e487b7100000000000000000000000000000000000000000000000000000000600052601260045260246000fd5b60006125858261194f565b91506125908361194f565b9250826125a05761259f61254b565b5b828204905092915050565b60006125b68261194f565b91506125c18361194f565b92508282039050818111156125d9576125d86124da565b5b92915050565b7f6f6e6c79206f776e65722063616e2072756e207468697320636f6e7472616374600082015250565b6000612615602083611b31565b9150612620826125df565b602082019050919050565b6000602082019050818103600083015261264481612608565b9050919050565b600081905092915050565b6000612662838561264b565b935061266f838584611a5e565b82840190509392505050565b6000612688828486612656565b91508190509392505050565b7f5468697320746f6b656e2063616e6e6f74206265207374616b65640000000000600082015250565b60006126ca601b83611b31565b91506126d582612694565b602082019050919050565b600060208201905081810360008301526126f9816126bd565b9050919050565b60006060820190506127156000830186611bd7565b6127226020830185611bd7565b61272f6040830184611959565b949350505050565b61274081612182565b811461274b57600080fd5b50565b60008151905061275d81612737565b92915050565b6000602082840312156127795761277861198d565b5b60006127878482850161274e565b91505092915050565b60008190508160005260206000209050919050565b60006020601f8301049050919050565b600082821b905092915050565b6000600883026127f27fffffffffffffffffffffffffffffffffffffffffffffffffffffffffffffffff826127b5565b6127fc86836127b5565b95508019841693508086168417925050509392505050565b6000819050919050565b600061283961283461282f8461194f565b612814565b61194f565b9050919050565b6000819050919050565b6128538361281e565b61286761285f82612840565b8484546127c2565b825550505050565b600090565b61287c61286f565b61288781848461284a565b505050565b5b818110156128ab576128a0600082612874565b60018101905061288d565b5050565b601f8211156128f0576128c181612790565b6128ca846127a5565b810160208510156128d9578190505b6128ed6128e5856127a5565b83018261288c565b50505b505050565b600082821c905092915050565b6000612913600019846008026128f5565b1980831691505092915050565b600061292c8383612902565b9150826002028217905092915050565b61294582611b26565b67ffffffffffffffff81111561295e5761295d6119b2565b5b61296882546124a9565b6129738282856128af565b600060209050601f8311600181146129a65760008415612994578287015190505b61299e8582612920565b865550612a06565b601f1984166129b486612790565b60005b828110156129dc578489015182556001820191506020850194506020810190506129b7565b868310156129f957848901516129f5601f891682612902565b8355505b6001600288020188555050505b505050505050565b6000612a198261194f565b9150612a248361194f565b9250828201905080821115612a3c57612a3b6124da565b5b92915050565b600082905092915050565b612a578383612a42565b67ffffffffffffffff811115612a7057612a6f6119b2565b5b612a7a82546124a9565b612a858282856128af565b6000601f831160018114612ab45760008415612aa2578287013590505b612aac8582612920565b865550612b14565b601f198416612ac286612790565b60005b82811015612aea57848901358255600182019150602085019450602081019050612ac5565b86831015612b075784890135612b03601f891682612902565b8355505b6001600288020188555050505b50505050505050565b7f4e6f7420746865206f776e6572206f66207468697320706f736974696f6e0000600082015250565b6000612b53601e83611b31565b9150612b5e82612b1d565b602082019050919050565b60006020820190508181036000830152612b8281612b46565b9050919050565b7f506f736974696f6e20416c726561647920636c6f736564000000000000000000600082015250565b6000612bbf601783611b31565b9150612bca82612b89565b602082019050919050565b60006020820190508181036000830152612bee81612bb2565b9050919050565b60008154612c02816124a9565b612c0c818661264b565b94506001821660008114612c275760018114612c3c57612c6f565b60ff1983168652811515820286019350612c6f565b612c4585612790565b60005b83811015612c6757815481890152600182019150602081019050612c48565b838801955050505b50505092915050565b6000612c848284612bf5565b915081905092915050565b6000604082019050612ca46000830185611bd7565b612cb16020830184611959565b939250505056fea2646970667358221220ca26623d2885b7c313d29b523941075a81422565c21095e8c6d01a40e280c20164736f6c63430008110033","opcodes":"PUSH1 0x80 PUSH1 0x40 MSTORE PUSH1 0x1 DUP1 SSTORE PUSH1 0x1 PUSH1 0x5 SSTORE PUSH1 0x40 MLOAD PUSH3 0x2DF0 CODESIZE SUB DUP1 PUSH3 0x2DF0 DUP4 CODECOPY DUP2 DUP2 ADD PUSH1 0x40 MSTORE DUP2 ADD SWAP1 PUSH3 0x32 SWAP2 SWAP1 PUSH3 0xC0 JUMP JUMPDEST DUP1 PUSH1 0x2 DUP2 SWAP1 SSTORE POP CALLER PUSH1 0x0 DUP1 PUSH2 0x100 EXP DUP2 SLOAD DUP2 PUSH20 0xFFFFFFFFFFFFFFFFFFFFFFFFFFFFFFFFFFFFFFFF MUL NOT AND SWAP1 DUP4 PUSH20 0xFFFFFFFFFFFFFFFFFFFFFFFFFFFFFFFFFFFFFFFF AND MUL OR SWAP1 SSTORE POP POP PUSH3 0xF2 JUMP JUMPDEST PUSH1 0x0 DUP1 REVERT JUMPDEST PUSH1 0x0 DUP2 SWAP1 POP SWAP2 SWAP1 POP JUMP JUMPDEST PUSH3 0x9A DUP2 PUSH3 0x85 JUMP JUMPDEST DUP2 EQ PUSH3 0xA6 JUMPI PUSH1 0x0 DUP1 REVERT JUMPDEST POP JUMP JUMPDEST PUSH1 0x0 DUP2 MLOAD SWAP1 POP PUSH3 0xBA DUP2 PUSH3 0x8F JUMP JUMPDEST SWAP3 SWAP2 POP POP JUMP JUMPDEST PUSH1 0x0 PUSH1 0x20 DUP3 DUP5 SUB SLT ISZERO PUSH3 0xD9 JUMPI PUSH3 0xD8 PUSH3 0x80 JUMP JUMPDEST JUMPDEST PUSH1 0x0 PUSH3 0xE9 DUP5 DUP3 DUP6 ADD PUSH3 0xA9 JUMP JUMPDEST SWAP2 POP POP SWAP3 SWAP2 POP POP JUMP JUMPDEST PUSH2 0x2CEE DUP1 PUSH3 0x102 PUSH1 0x0 CODECOPY PUSH1 0x0 RETURN INVALID PUSH1 0x80 PUSH1 0x40 MSTORE CALLVALUE DUP1 ISZERO PUSH2 0x10 JUMPI PUSH1 0x0 DUP1 REVERT JUMPDEST POP PUSH1 0x4 CALLDATASIZE LT PUSH2 0x120 JUMPI PUSH1 0x0 CALLDATALOAD PUSH1 0xE0 SHR DUP1 PUSH4 0x6E7DDEA8 GT PUSH2 0xAD JUMPI DUP1 PUSH4 0x99FBAB88 GT PUSH2 0x71 JUMPI DUP1 PUSH4 0x99FBAB88 EQ PUSH2 0x323 JUMPI DUP1 PUSH4 0xA126D601 EQ PUSH2 0x35C JUMPI DUP1 PUSH4 0xB838EC86 EQ PUSH2 0x378 JUMPI DUP1 PUSH4 0xC1733F68 EQ PUSH2 0x3A8 JUMPI DUP1 PUSH4 0xC41CC502 EQ PUSH2 0x3D8 JUMPI PUSH2 0x120 JUMP JUMPDEST DUP1 PUSH4 0x6E7DDEA8 EQ PUSH2 0x27F JUMPI DUP1 PUSH4 0x71D772CA EQ PUSH2 0x2AF JUMPI DUP1 PUSH4 0x8DA5CB5B EQ PUSH2 0x2CB JUMPI DUP1 PUSH4 0x9478AB8C EQ PUSH2 0x2E9 JUMPI DUP1 PUSH4 0x94B308AB EQ PUSH2 0x307 JUMPI PUSH2 0x120 JUMP JUMPDEST DUP1 PUSH4 0x1131C8CD GT PUSH2 0xF4 JUMPI DUP1 PUSH4 0x1131C8CD EQ PUSH2 0x1C7 JUMPI DUP1 PUSH4 0x2406B5C0 EQ PUSH2 0x1E5 JUMPI DUP1 PUSH4 0x27F70655 EQ PUSH2 0x215 JUMPI DUP1 PUSH4 0x45EAE373 EQ PUSH2 0x231 JUMPI DUP1 PUSH4 0x4B4EA954 EQ PUSH2 0x261 JUMPI PUSH2 0x120 JUMP JUMPDEST DUP1 PUSH3 0x9A9B7B EQ PUSH2 0x125 JUMPI DUP1 PUSH4 0x4C2320B EQ PUSH2 0x143 JUMPI DUP1 PUSH4 0x5B93816 EQ PUSH2 0x179 JUMPI DUP1 PUSH4 0x5E1BD8C EQ PUSH2 0x197 JUMPI JUMPDEST PUSH1 0x0 DUP1 REVERT JUMPDEST PUSH2 0x12D PUSH2 0x408 JUMP JUMPDEST PUSH1 0x40 MLOAD PUSH2 0x13A SWAP2 SWAP1 PUSH2 0x1968 JUMP JUMPDEST PUSH1 0x40 MLOAD DUP1 SWAP2 SUB SWAP1 RETURN JUMPDEST PUSH2 0x15D PUSH1 0x4 DUP1 CALLDATASIZE SUB DUP2 ADD SWAP1 PUSH2 0x158 SWAP2 SWAP1 PUSH2 0x1ADD JUMP JUMPDEST PUSH2 0x40E JUMP JUMPDEST PUSH1 0x40 MLOAD PUSH2 0x170 SWAP8 SWAP7 SWAP6 SWAP5 SWAP4 SWAP3 SWAP2 SWAP1 PUSH2 0x1BE6 JUMP JUMPDEST PUSH1 0x40 MLOAD DUP1 SWAP2 SUB SWAP1 RETURN JUMPDEST PUSH2 0x181 PUSH2 0x596 JUMP JUMPDEST PUSH1 0x40 MLOAD PUSH2 0x18E SWAP2 SWAP1 PUSH2 0x1D6F JUMP JUMPDEST PUSH1 0x40 MLOAD DUP1 SWAP2 SUB SWAP1 RETURN JUMPDEST PUSH2 0x1B1 PUSH1 0x4 DUP1 CALLDATASIZE SUB DUP2 ADD SWAP1 PUSH2 0x1AC SWAP2 SWAP1 PUSH2 0x1DBD JUMP JUMPDEST PUSH2 0x66F JUMP JUMPDEST PUSH1 0x40 MLOAD PUSH2 0x1BE SWAP2 SWAP1 PUSH2 0x1968 JUMP JUMPDEST PUSH1 0x40 MLOAD DUP1 SWAP2 SUB SWAP1 RETURN JUMPDEST PUSH2 0x1CF PUSH2 0x6AB JUMP JUMPDEST PUSH1 0x40 MLOAD PUSH2 0x1DC SWAP2 SWAP1 PUSH2 0x1968 JUMP JUMPDEST PUSH1 0x40 MLOAD DUP1 SWAP2 SUB SWAP1 RETURN JUMPDEST PUSH2 0x1FF PUSH1 0x4 DUP1 CALLDATASIZE SUB DUP2 ADD SWAP1 PUSH2 0x1FA SWAP2 SWAP1 PUSH2 0x1E10 JUMP JUMPDEST PUSH2 0x6B1 JUMP JUMPDEST PUSH1 0x40 MLOAD PUSH2 0x20C SWAP2 SWAP1 PUSH2 0x1968 JUMP JUMPDEST PUSH1 0x40 MLOAD DUP1 SWAP2 SUB SWAP1 RETURN JUMPDEST PUSH2 0x22F PUSH1 0x4 DUP1 CALLDATASIZE SUB DUP2 ADD SWAP1 PUSH2 0x22A SWAP2 SWAP1 PUSH2 0x1E3D JUMP JUMPDEST PUSH2 0x6E9 JUMP JUMPDEST STOP JUMPDEST PUSH2 0x24B PUSH1 0x4 DUP1 CALLDATASIZE SUB DUP2 ADD SWAP1 PUSH2 0x246 SWAP2 SWAP1 PUSH2 0x1EA9 JUMP JUMPDEST PUSH2 0x796 JUMP JUMPDEST PUSH1 0x40 MLOAD PUSH2 0x258 SWAP2 SWAP1 PUSH2 0x1968 JUMP JUMPDEST PUSH1 0x40 MLOAD DUP1 SWAP2 SUB SWAP1 RETURN JUMPDEST PUSH2 0x269 PUSH2 0x7C7 JUMP JUMPDEST PUSH1 0x40 MLOAD PUSH2 0x276 SWAP2 SWAP1 PUSH2 0x1FA7 JUMP JUMPDEST PUSH1 0x40 MLOAD DUP1 SWAP2 SUB SWAP1 RETURN JUMPDEST PUSH2 0x299 PUSH1 0x4 DUP1 CALLDATASIZE SUB DUP2 ADD SWAP1 PUSH2 0x294 SWAP2 SWAP1 PUSH2 0x1E10 JUMP JUMPDEST PUSH2 0x85C JUMP JUMPDEST PUSH1 0x40 MLOAD PUSH2 0x2A6 SWAP2 SWAP1 PUSH2 0x1FC9 JUMP JUMPDEST PUSH1 0x40 MLOAD DUP1 SWAP2 SUB SWAP1 RETURN JUMPDEST PUSH2 0x2C9 PUSH1 0x4 DUP1 CALLDATASIZE SUB DUP2 ADD SWAP1 PUSH2 0x2C4 SWAP2 SWAP1 PUSH2 0x204B JUMP JUMPDEST PUSH2 0x908 JUMP JUMPDEST STOP JUMPDEST PUSH2 0x2D3 PUSH2 0xDB5 JUMP JUMPDEST PUSH1 0x40 MLOAD PUSH2 0x2E0 SWAP2 SWAP1 PUSH2 0x20AB JUMP JUMPDEST PUSH1 0x40 MLOAD DUP1 SWAP2 SUB SWAP1 RETURN JUMPDEST PUSH2 0x2F1 PUSH2 0xDD9 JUMP JUMPDEST PUSH1 0x40 MLOAD PUSH2 0x2FE SWAP2 SWAP1 PUSH2 0x1968 JUMP JUMPDEST PUSH1 0x40 MLOAD DUP1 SWAP2 SUB SWAP1 RETURN JUMPDEST PUSH2 0x321 PUSH1 0x4 DUP1 CALLDATASIZE SUB DUP2 ADD SWAP1 PUSH2 0x31C SWAP2 SWAP1 PUSH2 0x20C6 JUMP JUMPDEST PUSH2 0xDDF JUMP JUMPDEST STOP JUMPDEST PUSH2 0x33D PUSH1 0x4 DUP1 CALLDATASIZE SUB DUP2 ADD SWAP1 PUSH2 0x338 SWAP2 SWAP1 PUSH2 0x1E10 JUMP JUMPDEST PUSH2 0x106B JUMP JUMPDEST PUSH1 0x40 MLOAD PUSH2 0x353 SWAP11 SWAP10 SWAP9 SWAP8 SWAP7 SWAP6 SWAP5 SWAP4 SWAP3 SWAP2 SWAP1 PUSH2 0x219D JUMP JUMPDEST PUSH1 0x40 MLOAD DUP1 SWAP2 SUB SWAP1 RETURN JUMPDEST PUSH2 0x376 PUSH1 0x4 DUP1 CALLDATASIZE SUB DUP2 ADD SWAP1 PUSH2 0x371 SWAP2 SWAP1 PUSH2 0x1E10 JUMP JUMPDEST PUSH2 0x11FC JUMP JUMPDEST STOP JUMPDEST PUSH2 0x392 PUSH1 0x4 DUP1 CALLDATASIZE SUB DUP2 ADD SWAP1 PUSH2 0x38D SWAP2 SWAP1 PUSH2 0x1E10 JUMP JUMPDEST PUSH2 0x1487 JUMP JUMPDEST PUSH1 0x40 MLOAD PUSH2 0x39F SWAP2 SWAP1 PUSH2 0x2346 JUMP JUMPDEST PUSH1 0x40 MLOAD DUP1 SWAP2 SUB SWAP1 RETURN JUMPDEST PUSH2 0x3C2 PUSH1 0x4 DUP1 CALLDATASIZE SUB DUP2 ADD SWAP1 PUSH2 0x3BD SWAP2 SWAP1 PUSH2 0x2368 JUMP JUMPDEST PUSH2 0x1686 JUMP JUMPDEST PUSH1 0x40 MLOAD PUSH2 0x3CF SWAP2 SWAP1 PUSH2 0x2458 JUMP JUMPDEST PUSH1 0x40 MLOAD DUP1 SWAP2 SUB SWAP1 RETURN JUMPDEST PUSH2 0x3F2 PUSH1 0x4 DUP1 CALLDATASIZE SUB DUP2 ADD SWAP1 PUSH2 0x3ED SWAP2 SWAP1 PUSH2 0x1ADD JUMP JUMPDEST PUSH2 0x1863 JUMP JUMPDEST PUSH1 0x40 MLOAD PUSH2 0x3FF SWAP2 SWAP1 PUSH2 0x1968 JUMP JUMPDEST PUSH1 0x40 MLOAD DUP1 SWAP2 SUB SWAP1 RETURN JUMPDEST PUSH1 0x1 SLOAD DUP2 JUMP JUMPDEST PUSH1 0x4 DUP2 DUP1 MLOAD PUSH1 0x20 DUP2 ADD DUP3 ADD DUP1 MLOAD DUP5 DUP3 MSTORE PUSH1 0x20 DUP4 ADD PUSH1 0x20 DUP6 ADD KECCAK256 DUP2 DUP4 MSTORE DUP1 SWAP6 POP POP POP POP POP POP PUSH1 0x0 SWAP2 POP SWAP1 POP DUP1 PUSH1 0x0 ADD SLOAD SWAP1 DUP1 PUSH1 0x1 ADD DUP1 SLOAD PUSH2 0x44D SWAP1 PUSH2 0x24A9 JUMP JUMPDEST DUP1 PUSH1 0x1F ADD PUSH1 0x20 DUP1 SWAP2 DIV MUL PUSH1 0x20 ADD PUSH1 0x40 MLOAD SWAP1 DUP2 ADD PUSH1 0x40 MSTORE DUP1 SWAP3 SWAP2 SWAP1 DUP2 DUP2 MSTORE PUSH1 0x20 ADD DUP3 DUP1 SLOAD PUSH2 0x479 SWAP1 PUSH2 0x24A9 JUMP JUMPDEST DUP1 ISZERO PUSH2 0x4C6 JUMPI DUP1 PUSH1 0x1F LT PUSH2 0x49B JUMPI PUSH2 0x100 DUP1 DUP4 SLOAD DIV MUL DUP4 MSTORE SWAP2 PUSH1 0x20 ADD SWAP2 PUSH2 0x4C6 JUMP JUMPDEST DUP3 ADD SWAP2 SWAP1 PUSH1 0x0 MSTORE PUSH1 0x20 PUSH1 0x0 KECCAK256 SWAP1 JUMPDEST DUP2 SLOAD DUP2 MSTORE SWAP1 PUSH1 0x1 ADD SWAP1 PUSH1 0x20 ADD DUP1 DUP4 GT PUSH2 0x4A9 JUMPI DUP3 SWAP1 SUB PUSH1 0x1F AND DUP3 ADD SWAP2 JUMPDEST POP POP POP POP POP SWAP1 DUP1 PUSH1 0x2 ADD DUP1 SLOAD PUSH2 0x4DB SWAP1 PUSH2 0x24A9 JUMP JUMPDEST DUP1 PUSH1 0x1F ADD PUSH1 0x20 DUP1 SWAP2 DIV MUL PUSH1 0x20 ADD PUSH1 0x40 MLOAD SWAP1 DUP2 ADD PUSH1 0x40 MSTORE DUP1 SWAP3 SWAP2 SWAP1 DUP2 DUP2 MSTORE PUSH1 0x20 ADD DUP3 DUP1 SLOAD PUSH2 0x507 SWAP1 PUSH2 0x24A9 JUMP JUMPDEST DUP1 ISZERO PUSH2 0x554 JUMPI DUP1 PUSH1 0x1F LT PUSH2 0x529 JUMPI PUSH2 0x100 DUP1 DUP4 SLOAD DIV MUL DUP4 MSTORE SWAP2 PUSH1 0x20 ADD SWAP2 PUSH2 0x554 JUMP JUMPDEST DUP3 ADD SWAP2 SWAP1 PUSH1 0x0 MSTORE PUSH1 0x20 PUSH1 0x0 KECCAK256 SWAP1 JUMPDEST DUP2 SLOAD DUP2 MSTORE SWAP1 PUSH1 0x1 ADD SWAP1 PUSH1 0x20 ADD DUP1 DUP4 GT PUSH2 0x537 JUMPI DUP3 SWAP1 SUB PUSH1 0x1F AND DUP3 ADD SWAP2 JUMPDEST POP POP POP POP POP SWAP1 DUP1 PUSH1 0x3 ADD PUSH1 0x0 SWAP1 SLOAD SWAP1 PUSH2 0x100 EXP SWAP1 DIV PUSH20 0xFFFFFFFFFFFFFFFFFFFFFFFFFFFFFFFFFFFFFFFF AND SWAP1 DUP1 PUSH1 0x4 ADD SLOAD SWAP1 DUP1 PUSH1 0x5 ADD SLOAD SWAP1 DUP1 PUSH1 0x6 ADD SLOAD SWAP1 POP DUP8 JUMP JUMPDEST PUSH1 0x60 PUSH1 0x3 DUP1 SLOAD DUP1 PUSH1 0x20 MUL PUSH1 0x20 ADD PUSH1 0x40 MLOAD SWAP1 DUP2 ADD PUSH1 0x40 MSTORE DUP1 SWAP3 SWAP2 SWAP1 DUP2 DUP2 MSTORE PUSH1 0x20 ADD PUSH1 0x0 SWAP1 JUMPDEST DUP3 DUP3 LT ISZERO PUSH2 0x666 JUMPI DUP4 DUP3 SWAP1 PUSH1 0x0 MSTORE PUSH1 0x20 PUSH1 0x0 KECCAK256 ADD DUP1 SLOAD PUSH2 0x5D9 SWAP1 PUSH2 0x24A9 JUMP JUMPDEST DUP1 PUSH1 0x1F ADD PUSH1 0x20 DUP1 SWAP2 DIV MUL PUSH1 0x20 ADD PUSH1 0x40 MLOAD SWAP1 DUP2 ADD PUSH1 0x40 MSTORE DUP1 SWAP3 SWAP2 SWAP1 DUP2 DUP2 MSTORE PUSH1 0x20 ADD DUP3 DUP1 SLOAD PUSH2 0x605 SWAP1 PUSH2 0x24A9 JUMP JUMPDEST DUP1 ISZERO PUSH2 0x652 JUMPI DUP1 PUSH1 0x1F LT PUSH2 0x627 JUMPI PUSH2 0x100 DUP1 DUP4 SLOAD DIV MUL DUP4 MSTORE SWAP2 PUSH1 0x20 ADD SWAP2 PUSH2 0x652 JUMP JUMPDEST DUP3 ADD SWAP2 SWAP1 PUSH1 0x0 MSTORE PUSH1 0x20 PUSH1 0x0 KECCAK256 SWAP1 JUMPDEST DUP2 SLOAD DUP2 MSTORE SWAP1 PUSH1 0x1 ADD SWAP1 PUSH1 0x20 ADD DUP1 DUP4 GT PUSH2 0x635 JUMPI DUP3 SWAP1 SUB PUSH1 0x1F AND DUP3 ADD SWAP2 JUMPDEST POP POP POP POP POP DUP2 MSTORE PUSH1 0x20 ADD SWAP1 PUSH1 0x1 ADD SWAP1 PUSH2 0x5BA JUMP JUMPDEST POP POP POP POP SWAP1 POP SWAP1 JUMP JUMPDEST PUSH1 0x0 PUSH2 0x16D PUSH2 0x3E8 DUP4 DUP6 DUP8 PUSH2 0x684 SWAP2 SWAP1 PUSH2 0x2509 JUMP JUMPDEST PUSH2 0x68E SWAP2 SWAP1 PUSH2 0x2509 JUMP JUMPDEST PUSH2 0x698 SWAP2 SWAP1 PUSH2 0x257A JUMP JUMPDEST PUSH2 0x6A2 SWAP2 SWAP1 PUSH2 0x257A JUMP JUMPDEST SWAP1 POP SWAP4 SWAP3 POP POP POP JUMP JUMPDEST PUSH1 0x5 SLOAD DUP2 JUMP JUMPDEST PUSH1 0x0 PUSH1 0x18 PUSH1 0x3C DUP1 DUP5 TIMESTAMP PUSH2 0x6C4 SWAP2 SWAP1 PUSH2 0x25AB JUMP JUMPDEST PUSH2 0x6CE SWAP2 SWAP1 PUSH2 0x257A JUMP JUMPDEST PUSH2 0x6D8 SWAP2 SWAP1 PUSH2 0x257A JUMP JUMPDEST PUSH2 0x6E2 SWAP2 SWAP1 PUSH2 0x257A JUMP JUMPDEST SWAP1 POP SWAP2 SWAP1 POP JUMP JUMPDEST CALLER PUSH20 0xFFFFFFFFFFFFFFFFFFFFFFFFFFFFFFFFFFFFFFFF AND PUSH1 0x0 DUP1 SLOAD SWAP1 PUSH2 0x100 EXP SWAP1 DIV PUSH20 0xFFFFFFFFFFFFFFFFFFFFFFFFFFFFFFFFFFFFFFFF AND PUSH20 0xFFFFFFFFFFFFFFFFFFFFFFFFFFFFFFFFFFFFFFFF AND EQ PUSH2 0x777 JUMPI PUSH1 0x40 MLOAD PUSH32 0x8C379A000000000000000000000000000000000000000000000000000000000 DUP2 MSTORE PUSH1 0x4 ADD PUSH2 0x76E SWAP1 PUSH2 0x262B JUMP JUMPDEST PUSH1 0x40 MLOAD DUP1 SWAP2 SUB SWAP1 REVERT JUMPDEST DUP1 PUSH1 0x6 PUSH1 0x0 DUP5 DUP2 MSTORE PUSH1 0x20 ADD SWAP1 DUP2 MSTORE PUSH1 0x20 ADD PUSH1 0x0 KECCAK256 PUSH1 0x4 ADD DUP2 SWAP1 SSTORE POP POP POP JUMP JUMPDEST PUSH1 0x7 PUSH1 0x20 MSTORE DUP2 PUSH1 0x0 MSTORE PUSH1 0x40 PUSH1 0x0 KECCAK256 DUP2 DUP2 SLOAD DUP2 LT PUSH2 0x7B2 JUMPI PUSH1 0x0 DUP1 REVERT JUMPDEST SWAP1 PUSH1 0x0 MSTORE PUSH1 0x20 PUSH1 0x0 KECCAK256 ADD PUSH1 0x0 SWAP2 POP SWAP2 POP POP SLOAD DUP2 JUMP JUMPDEST PUSH1 0x60 PUSH1 0x7 PUSH1 0x0 CALLER PUSH20 0xFFFFFFFFFFFFFFFFFFFFFFFFFFFFFFFFFFFFFFFF AND PUSH20 0xFFFFFFFFFFFFFFFFFFFFFFFFFFFFFFFFFFFFFFFF AND DUP2 MSTORE PUSH1 0x20 ADD SWAP1 DUP2 MSTORE PUSH1 0x20 ADD PUSH1 0x0 KECCAK256 DUP1 SLOAD DUP1 PUSH1 0x20 MUL PUSH1 0x20 ADD PUSH1 0x40 MLOAD SWAP1 DUP2 ADD PUSH1 0x40 MSTORE DUP1 SWAP3 SWAP2 SWAP1 DUP2 DUP2 MSTORE PUSH1 0x20 ADD DUP3 DUP1 SLOAD DUP1 ISZERO PUSH2 0x852 JUMPI PUSH1 0x20 MUL DUP3 ADD SWAP2 SWAP1 PUSH1 0x0 MSTORE PUSH1 0x20 PUSH1 0x0 KECCAK256 SWAP1 JUMPDEST DUP2 SLOAD DUP2 MSTORE PUSH1 0x20 ADD SWAP1 PUSH1 0x1 ADD SWAP1 DUP1 DUP4 GT PUSH2 0x83E JUMPI JUMPDEST POP POP POP POP POP SWAP1 POP SWAP1 JUMP JUMPDEST PUSH1 0x3 DUP2 DUP2 SLOAD DUP2 LT PUSH2 0x86C JUMPI PUSH1 0x0 DUP1 REVERT JUMPDEST SWAP1 PUSH1 0x0 MSTORE PUSH1 0x20 PUSH1 0x0 KECCAK256 ADD PUSH1 0x0 SWAP2 POP SWAP1 POP DUP1 SLOAD PUSH2 0x887 SWAP1 PUSH2 0x24A9 JUMP JUMPDEST DUP1 PUSH1 0x1F ADD PUSH1 0x20 DUP1 SWAP2 DIV MUL PUSH1 0x20 ADD PUSH1 0x40 MLOAD SWAP1 DUP2 ADD PUSH1 0x40 MSTORE DUP1 SWAP3 SWAP2 SWAP1 DUP2 DUP2 MSTORE PUSH1 0x20 ADD DUP3 DUP1 SLOAD PUSH2 0x8B3 SWAP1 PUSH2 0x24A9 JUMP JUMPDEST DUP1 ISZERO PUSH2 0x900 JUMPI DUP1 PUSH1 0x1F LT PUSH2 0x8D5 JUMPI PUSH2 0x100 DUP1 DUP4 SLOAD DIV MUL DUP4 MSTORE SWAP2 PUSH1 0x20 ADD SWAP2 PUSH2 0x900 JUMP JUMPDEST DUP3 ADD SWAP2 SWAP1 PUSH1 0x0 MSTORE PUSH1 0x20 PUSH1 0x0 KECCAK256 SWAP1 JUMPDEST DUP2 SLOAD DUP2 MSTORE SWAP1 PUSH1 0x1 ADD SWAP1 PUSH1 0x20 ADD DUP1 DUP4 GT PUSH2 0x8E3 JUMPI DUP3 SWAP1 SUB PUSH1 0x1F AND DUP3 ADD SWAP2 JUMPDEST POP POP POP POP POP DUP2 JUMP JUMPDEST PUSH1 0x0 PUSH1 0x4 DUP5 DUP5 PUSH1 0x40 MLOAD PUSH2 0x91C SWAP3 SWAP2 SWAP1 PUSH2 0x267B JUMP JUMPDEST SWAP1 DUP2 MSTORE PUSH1 0x20 ADD PUSH1 0x40 MLOAD DUP1 SWAP2 SUB SWAP1 KECCAK256 PUSH1 0x0 ADD SLOAD SUB PUSH2 0x96E JUMPI PUSH1 0x40 MLOAD PUSH32 0x8C379A000000000000000000000000000000000000000000000000000000000 DUP2 MSTORE PUSH1 0x4 ADD PUSH2 0x965 SWAP1 PUSH2 0x26E0 JUMP JUMPDEST PUSH1 0x40 MLOAD DUP1 SWAP2 SUB SWAP1 REVERT JUMPDEST PUSH1 0x4 DUP4 DUP4 PUSH1 0x40 MLOAD PUSH2 0x980 SWAP3 SWAP2 SWAP1 PUSH2 0x267B JUMP JUMPDEST SWAP1 DUP2 MSTORE PUSH1 0x20 ADD PUSH1 0x40 MLOAD DUP1 SWAP2 SUB SWAP1 KECCAK256 PUSH1 0x3 ADD PUSH1 0x0 SWAP1 SLOAD SWAP1 PUSH2 0x100 EXP SWAP1 DIV PUSH20 0xFFFFFFFFFFFFFFFFFFFFFFFFFFFFFFFFFFFFFFFF AND PUSH20 0xFFFFFFFFFFFFFFFFFFFFFFFFFFFFFFFFFFFFFFFF AND PUSH4 0x23B872DD CALLER ADDRESS DUP5 PUSH1 0x40 MLOAD DUP5 PUSH4 0xFFFFFFFF AND PUSH1 0xE0 SHL DUP2 MSTORE PUSH1 0x4 ADD PUSH2 0x9EE SWAP4 SWAP3 SWAP2 SWAP1 PUSH2 0x2700 JUMP JUMPDEST PUSH1 0x20 PUSH1 0x40 MLOAD DUP1 DUP4 SUB DUP2 PUSH1 0x0 DUP8 GAS CALL ISZERO DUP1 ISZERO PUSH2 0xA0D JUMPI RETURNDATASIZE PUSH1 0x0 DUP1 RETURNDATACOPY RETURNDATASIZE PUSH1 0x0 REVERT JUMPDEST POP POP POP POP PUSH1 0x40 MLOAD RETURNDATASIZE PUSH1 0x1F NOT PUSH1 0x1F DUP3 ADD AND DUP3 ADD DUP1 PUSH1 0x40 MSTORE POP DUP2 ADD SWAP1 PUSH2 0xA31 SWAP2 SWAP1 PUSH2 0x2763 JUMP JUMPDEST POP PUSH1 0x40 MLOAD DUP1 PUSH2 0x140 ADD PUSH1 0x40 MSTORE DUP1 PUSH1 0x5 SLOAD DUP2 MSTORE PUSH1 0x20 ADD CALLER PUSH20 0xFFFFFFFFFFFFFFFFFFFFFFFFFFFFFFFFFFFFFFFF AND DUP2 MSTORE PUSH1 0x20 ADD PUSH1 0x4 DUP6 DUP6 PUSH1 0x40 MLOAD PUSH2 0xA74 SWAP3 SWAP2 SWAP1 PUSH2 0x267B JUMP JUMPDEST SWAP1 DUP2 MSTORE PUSH1 0x20 ADD PUSH1 0x40 MLOAD DUP1 SWAP2 SUB SWAP1 KECCAK256 PUSH1 0x1 ADD DUP1 SLOAD PUSH2 0xA90 SWAP1 PUSH2 0x24A9 JUMP JUMPDEST DUP1 PUSH1 0x1F ADD PUSH1 0x20 DUP1 SWAP2 DIV MUL PUSH1 0x20 ADD PUSH1 0x40 MLOAD SWAP1 DUP2 ADD PUSH1 0x40 MSTORE DUP1 SWAP3 SWAP2 SWAP1 DUP2 DUP2 MSTORE PUSH1 0x20 ADD DUP3 DUP1 SLOAD PUSH2 0xABC SWAP1 PUSH2 0x24A9 JUMP JUMPDEST DUP1 ISZERO PUSH2 0xB09 JUMPI DUP1 PUSH1 0x1F LT PUSH2 0xADE JUMPI PUSH2 0x100 DUP1 DUP4 SLOAD DIV MUL DUP4 MSTORE SWAP2 PUSH1 0x20 ADD SWAP2 PUSH2 0xB09 JUMP JUMPDEST DUP3 ADD SWAP2 SWAP1 PUSH1 0x0 MSTORE PUSH1 0x20 PUSH1 0x0 KECCAK256 SWAP1 JUMPDEST DUP2 SLOAD DUP2 MSTORE SWAP1 PUSH1 0x1 ADD SWAP1 PUSH1 0x20 ADD DUP1 DUP4 GT PUSH2 0xAEC JUMPI DUP3 SWAP1 SUB PUSH1 0x1F AND DUP3 ADD SWAP2 JUMPDEST POP POP POP POP POP DUP2 MSTORE PUSH1 0x20 ADD DUP5 DUP5 DUP1 DUP1 PUSH1 0x1F ADD PUSH1 0x20 DUP1 SWAP2 DIV MUL PUSH1 0x20 ADD PUSH1 0x40 MLOAD SWAP1 DUP2 ADD PUSH1 0x40 MSTORE DUP1 SWAP4 SWAP3 SWAP2 SWAP1 DUP2 DUP2 MSTORE PUSH1 0x20 ADD DUP4 DUP4 DUP1 DUP3 DUP5 CALLDATACOPY PUSH1 0x0 DUP2 DUP5 ADD MSTORE PUSH1 0x1F NOT PUSH1 0x1F DUP3 ADD AND SWAP1 POP DUP1 DUP4 ADD SWAP3 POP POP POP POP POP POP POP DUP2 MSTORE PUSH1 0x20 ADD TIMESTAMP DUP2 MSTORE PUSH1 0x20 ADD PUSH1 0x4 DUP6 DUP6 PUSH1 0x40 MLOAD PUSH2 0xB75 SWAP3 SWAP2 SWAP1 PUSH2 0x267B JUMP JUMPDEST SWAP1 DUP2 MSTORE PUSH1 0x20 ADD PUSH1 0x40 MLOAD DUP1 SWAP2 SUB SWAP1 KECCAK256 PUSH1 0x6 ADD SLOAD DUP2 MSTORE PUSH1 0x20 ADD DUP3 DUP2 MSTORE PUSH1 0x20 ADD DUP3 PUSH1 0x4 DUP7 DUP7 PUSH1 0x40 MLOAD PUSH2 0xBA5 SWAP3 SWAP2 SWAP1 PUSH2 0x267B JUMP JUMPDEST SWAP1 DUP2 MSTORE PUSH1 0x20 ADD PUSH1 0x40 MLOAD DUP1 SWAP2 SUB SWAP1 KECCAK256 PUSH1 0x4 ADD SLOAD PUSH2 0xBC1 SWAP2 SWAP1 PUSH2 0x2509 JUMP JUMPDEST DUP2 MSTORE PUSH1 0x20 ADD PUSH1 0x2 SLOAD DUP4 PUSH1 0x4 DUP8 DUP8 PUSH1 0x40 MLOAD PUSH2 0xBDC SWAP3 SWAP2 SWAP1 PUSH2 0x267B JUMP JUMPDEST SWAP1 DUP2 MSTORE PUSH1 0x20 ADD PUSH1 0x40 MLOAD DUP1 SWAP2 SUB SWAP1 KECCAK256 PUSH1 0x4 ADD SLOAD PUSH2 0xBF8 SWAP2 SWAP1 PUSH2 0x2509 JUMP JUMPDEST PUSH2 0xC02 SWAP2 SWAP1 PUSH2 0x257A JUMP JUMPDEST DUP2 MSTORE PUSH1 0x20 ADD PUSH1 0x1 ISZERO ISZERO DUP2 MSTORE POP PUSH1 0x6 PUSH1 0x0 PUSH1 0x5 SLOAD DUP2 MSTORE PUSH1 0x20 ADD SWAP1 DUP2 MSTORE PUSH1 0x20 ADD PUSH1 0x0 KECCAK256 PUSH1 0x0 DUP3 ADD MLOAD DUP2 PUSH1 0x0 ADD SSTORE PUSH1 0x20 DUP3 ADD MLOAD DUP2 PUSH1 0x1 ADD PUSH1 0x0 PUSH2 0x100 EXP DUP2 SLOAD DUP2 PUSH20 0xFFFFFFFFFFFFFFFFFFFFFFFFFFFFFFFFFFFFFFFF MUL NOT AND SWAP1 DUP4 PUSH20 0xFFFFFFFFFFFFFFFFFFFFFFFFFFFFFFFFFFFFFFFF AND MUL OR SWAP1 SSTORE POP PUSH1 0x40 DUP3 ADD MLOAD DUP2 PUSH1 0x2 ADD SWAP1 DUP2 PUSH2 0xC89 SWAP2 SWAP1 PUSH2 0x293C JUMP JUMPDEST POP PUSH1 0x60 DUP3 ADD MLOAD DUP2 PUSH1 0x3 ADD SWAP1 DUP2 PUSH2 0xC9F SWAP2 SWAP1 PUSH2 0x293C JUMP JUMPDEST POP PUSH1 0x80 DUP3 ADD MLOAD DUP2 PUSH1 0x4 ADD SSTORE PUSH1 0xA0 DUP3 ADD MLOAD DUP2 PUSH1 0x5 ADD SSTORE PUSH1 0xC0 DUP3 ADD MLOAD DUP2 PUSH1 0x6 ADD SSTORE PUSH1 0xE0 DUP3 ADD MLOAD DUP2 PUSH1 0x7 ADD SSTORE PUSH2 0x100 DUP3 ADD MLOAD DUP2 PUSH1 0x8 ADD SSTORE PUSH2 0x120 DUP3 ADD MLOAD DUP2 PUSH1 0x9 ADD PUSH1 0x0 PUSH2 0x100 EXP DUP2 SLOAD DUP2 PUSH1 0xFF MUL NOT AND SWAP1 DUP4 ISZERO ISZERO MUL OR SWAP1 SSTORE POP SWAP1 POP POP PUSH1 0x7 PUSH1 0x0 CALLER PUSH20 0xFFFFFFFFFFFFFFFFFFFFFFFFFFFFFFFFFFFFFFFF AND PUSH20 0xFFFFFFFFFFFFFFFFFFFFFFFFFFFFFFFFFFFFFFFF AND DUP2 MSTORE PUSH1 0x20 ADD SWAP1 DUP2 MSTORE PUSH1 0x20 ADD PUSH1 0x0 KECCAK256 PUSH1 0x5 SLOAD SWAP1 DUP1 PUSH1 0x1 DUP2 SLOAD ADD DUP1 DUP3 SSTORE DUP1 SWAP2 POP POP PUSH1 0x1 SWAP1 SUB SWAP1 PUSH1 0x0 MSTORE PUSH1 0x20 PUSH1 0x0 KECCAK256 ADD PUSH1 0x0 SWAP1 SWAP2 SWAP1 SWAP2 SWAP1 SWAP2 POP SSTORE PUSH1 0x1 PUSH1 0x5 PUSH1 0x0 DUP3 DUP3 SLOAD PUSH2 0xD72 SWAP2 SWAP1 PUSH2 0x2A0E JUMP JUMPDEST SWAP3 POP POP DUP2 SWAP1 SSTORE POP DUP1 PUSH1 0x8 DUP5 DUP5 PUSH1 0x40 MLOAD PUSH2 0xD8C SWAP3 SWAP2 SWAP1 PUSH2 0x267B JUMP JUMPDEST SWAP1 DUP2 MSTORE PUSH1 0x20 ADD PUSH1 0x40 MLOAD DUP1 SWAP2 SUB SWAP1 KECCAK256 PUSH1 0x0 DUP3 DUP3 SLOAD PUSH2 0xDA9 SWAP2 SWAP1 PUSH2 0x2A0E JUMP JUMPDEST SWAP3 POP POP DUP2 SWAP1 SSTORE POP POP POP POP JUMP JUMPDEST PUSH1 0x0 DUP1 SLOAD SWAP1 PUSH2 0x100 EXP SWAP1 DIV PUSH20 0xFFFFFFFFFFFFFFFFFFFFFFFFFFFFFFFFFFFFFFFF AND DUP2 JUMP JUMPDEST PUSH1 0x2 SLOAD DUP2 JUMP JUMPDEST CALLER PUSH20 0xFFFFFFFFFFFFFFFFFFFFFFFFFFFFFFFFFFFFFFFF AND PUSH1 0x0 DUP1 SLOAD SWAP1 PUSH2 0x100 EXP SWAP1 DIV PUSH20 0xFFFFFFFFFFFFFFFFFFFFFFFFFFFFFFFFFFFFFFFF AND PUSH20 0xFFFFFFFFFFFFFFFFFFFFFFFFFFFFFFFFFFFFFFFF AND EQ PUSH2 0xE6D JUMPI PUSH1 0x40 MLOAD PUSH32 0x8C379A000000000000000000000000000000000000000000000000000000000 DUP2 MSTORE PUSH1 0x4 ADD PUSH2 0xE64 SWAP1 PUSH2 0x262B JUMP JUMPDEST PUSH1 0x40 MLOAD DUP1 SWAP2 SUB SWAP1 REVERT JUMPDEST PUSH1 0x3 DUP6 DUP6 SWAP1 SWAP2 DUP1 PUSH1 0x1 DUP2 SLOAD ADD DUP1 DUP3 SSTORE DUP1 SWAP2 POP POP PUSH1 0x1 SWAP1 SUB SWAP1 PUSH1 0x0 MSTORE PUSH1 0x20 PUSH1 0x0 KECCAK256 ADD PUSH1 0x0 SWAP1 SWAP2 SWAP3 SWAP1 SWAP2 SWAP3 SWAP1 SWAP2 SWAP3 SWAP1 SWAP2 SWAP3 POP SWAP2 DUP3 PUSH2 0xEAA SWAP3 SWAP2 SWAP1 PUSH2 0x2A4D JUMP JUMPDEST POP PUSH1 0x40 MLOAD DUP1 PUSH1 0xE0 ADD PUSH1 0x40 MSTORE DUP1 PUSH1 0x1 SLOAD DUP2 MSTORE PUSH1 0x20 ADD DUP9 DUP9 DUP1 DUP1 PUSH1 0x1F ADD PUSH1 0x20 DUP1 SWAP2 DIV MUL PUSH1 0x20 ADD PUSH1 0x40 MLOAD SWAP1 DUP2 ADD PUSH1 0x40 MSTORE DUP1 SWAP4 SWAP3 SWAP2 SWAP1 DUP2 DUP2 MSTORE PUSH1 0x20 ADD DUP4 DUP4 DUP1 DUP3 DUP5 CALLDATACOPY PUSH1 0x0 DUP2 DUP5 ADD MSTORE PUSH1 0x1F NOT PUSH1 0x1F DUP3 ADD AND SWAP1 POP DUP1 DUP4 ADD SWAP3 POP POP POP POP POP POP POP DUP2 MSTORE PUSH1 0x20 ADD DUP7 DUP7 DUP1 DUP1 PUSH1 0x1F ADD PUSH1 0x20 DUP1 SWAP2 DIV MUL PUSH1 0x20 ADD PUSH1 0x40 MLOAD SWAP1 DUP2 ADD PUSH1 0x40 MSTORE DUP1 SWAP4 SWAP3 SWAP2 SWAP1 DUP2 DUP2 MSTORE PUSH1 0x20 ADD DUP4 DUP4 DUP1 DUP3 DUP5 CALLDATACOPY PUSH1 0x0 DUP2 DUP5 ADD MSTORE PUSH1 0x1F NOT PUSH1 0x1F DUP3 ADD AND SWAP1 POP DUP1 DUP4 ADD SWAP3 POP POP POP POP POP POP POP DUP2 MSTORE PUSH1 0x20 ADD DUP5 PUSH20 0xFFFFFFFFFFFFFFFFFFFFFFFFFFFFFFFFFFFFFFFF AND DUP2 MSTORE PUSH1 0x20 ADD DUP4 DUP2 MSTORE PUSH1 0x20 ADD PUSH1 0x2 SLOAD DUP5 PUSH2 0xF82 SWAP2 SWAP1 PUSH2 0x257A JUMP JUMPDEST DUP2 MSTORE PUSH1 0x20 ADD DUP3 DUP2 MSTORE POP PUSH1 0x4 DUP7 DUP7 PUSH1 0x40 MLOAD PUSH2 0xF9D SWAP3 SWAP2 SWAP1 PUSH2 0x267B JUMP JUMPDEST SWAP1 DUP2 MSTORE PUSH1 0x20 ADD PUSH1 0x40 MLOAD DUP1 SWAP2 SUB SWAP1 KECCAK256 PUSH1 0x0 DUP3 ADD MLOAD DUP2 PUSH1 0x0 ADD SSTORE PUSH1 0x20 DUP3 ADD MLOAD DUP2 PUSH1 0x1 ADD SWAP1 DUP2 PUSH2 0xFCA SWAP2 SWAP1 PUSH2 0x293C JUMP JUMPDEST POP PUSH1 0x40 DUP3 ADD MLOAD DUP2 PUSH1 0x2 ADD SWAP1 DUP2 PUSH2 0xFE0 SWAP2 SWAP1 PUSH2 0x293C JUMP JUMPDEST POP PUSH1 0x60 DUP3 ADD MLOAD DUP2 PUSH1 0x3 ADD PUSH1 0x0 PUSH2 0x100 EXP DUP2 SLOAD DUP2 PUSH20 0xFFFFFFFFFFFFFFFFFFFFFFFFFFFFFFFFFFFFFFFF MUL NOT AND SWAP1 DUP4 PUSH20 0xFFFFFFFFFFFFFFFFFFFFFFFFFFFFFFFFFFFFFFFF AND MUL OR SWAP1 SSTORE POP PUSH1 0x80 DUP3 ADD MLOAD DUP2 PUSH1 0x4 ADD SSTORE PUSH1 0xA0 DUP3 ADD MLOAD DUP2 PUSH1 0x5 ADD SSTORE PUSH1 0xC0 DUP3 ADD MLOAD DUP2 PUSH1 0x6 ADD SSTORE SWAP1 POP POP PUSH1 0x1 DUP1 PUSH1 0x0 DUP3 DUP3 SLOAD PUSH2 0x105B SWAP2 SWAP1 PUSH2 0x2A0E JUMP JUMPDEST SWAP3 POP POP DUP2 SWAP1 SSTORE POP POP POP POP POP POP POP POP JUMP JUMPDEST PUSH1 0x6 PUSH1 0x20 MSTORE DUP1 PUSH1 0x0 MSTORE PUSH1 0x40 PUSH1 0x0 KECCAK256 PUSH1 0x0 SWAP2 POP SWAP1 POP DUP1 PUSH1 0x0 ADD SLOAD SWAP1 DUP1 PUSH1 0x1 ADD PUSH1 0x0 SWAP1 SLOAD SWAP1 PUSH2 0x100 EXP SWAP1 DIV PUSH20 0xFFFFFFFFFFFFFFFFFFFFFFFFFFFFFFFFFFFFFFFF AND SWAP1 DUP1 PUSH1 0x2 ADD DUP1 SLOAD PUSH2 0x10BA SWAP1 PUSH2 0x24A9 JUMP JUMPDEST DUP1 PUSH1 0x1F ADD PUSH1 0x20 DUP1 SWAP2 DIV MUL PUSH1 0x20 ADD PUSH1 0x40 MLOAD SWAP1 DUP2 ADD PUSH1 0x40 MSTORE DUP1 SWAP3 SWAP2 SWAP1 DUP2 DUP2 MSTORE PUSH1 0x20 ADD DUP3 DUP1 SLOAD PUSH2 0x10E6 SWAP1 PUSH2 0x24A9 JUMP JUMPDEST DUP1 ISZERO PUSH2 0x1133 JUMPI DUP1 PUSH1 0x1F LT PUSH2 0x1108 JUMPI PUSH2 0x100 DUP1 DUP4 SLOAD DIV MUL DUP4 MSTORE SWAP2 PUSH1 0x20 ADD SWAP2 PUSH2 0x1133 JUMP JUMPDEST DUP3 ADD SWAP2 SWAP1 PUSH1 0x0 MSTORE PUSH1 0x20 PUSH1 0x0 KECCAK256 SWAP1 JUMPDEST DUP2 SLOAD DUP2 MSTORE SWAP1 PUSH1 0x1 ADD SWAP1 PUSH1 0x20 ADD DUP1 DUP4 GT PUSH2 0x1116 JUMPI DUP3 SWAP1 SUB PUSH1 0x1F AND DUP3 ADD SWAP2 JUMPDEST POP POP POP POP POP SWAP1 DUP1 PUSH1 0x3 ADD DUP1 SLOAD PUSH2 0x1148 SWAP1 PUSH2 0x24A9 JUMP JUMPDEST DUP1 PUSH1 0x1F ADD PUSH1 0x20 DUP1 SWAP2 DIV MUL PUSH1 0x20 ADD PUSH1 0x40 MLOAD SWAP1 DUP2 ADD PUSH1 0x40 MSTORE DUP1 SWAP3 SWAP2 SWAP1 DUP2 DUP2 MSTORE PUSH1 0x20 ADD DUP3 DUP1 SLOAD PUSH2 0x1174 SWAP1 PUSH2 0x24A9 JUMP JUMPDEST DUP1 ISZERO PUSH2 0x11C1 JUMPI DUP1 PUSH1 0x1F LT PUSH2 0x1196 JUMPI PUSH2 0x100 DUP1 DUP4 SLOAD DIV MUL DUP4 MSTORE SWAP2 PUSH1 0x20 ADD SWAP2 PUSH2 0x11C1 JUMP JUMPDEST DUP3 ADD SWAP2 SWAP1 PUSH1 0x0 MSTORE PUSH1 0x20 PUSH1 0x0 KECCAK256 SWAP1 JUMPDEST DUP2 SLOAD DUP2 MSTORE SWAP1 PUSH1 0x1 ADD SWAP1 PUSH1 0x20 ADD DUP1 DUP4 GT PUSH2 0x11A4 JUMPI DUP3 SWAP1 SUB PUSH1 0x1F AND DUP3 ADD SWAP2 JUMPDEST POP POP POP POP POP SWAP1 DUP1 PUSH1 0x4 ADD SLOAD SWAP1 DUP1 PUSH1 0x5 ADD SLOAD SWAP1 DUP1 PUSH1 0x6 ADD SLOAD SWAP1 DUP1 PUSH1 0x7 ADD SLOAD SWAP1 DUP1 PUSH1 0x8 ADD SLOAD SWAP1 DUP1 PUSH1 0x9 ADD PUSH1 0x0 SWAP1 SLOAD SWAP1 PUSH2 0x100 EXP SWAP1 DIV PUSH1 0xFF AND SWAP1 POP DUP11 JUMP JUMPDEST CALLER PUSH20 0xFFFFFFFFFFFFFFFFFFFFFFFFFFFFFFFFFFFFFFFF AND PUSH1 0x6 PUSH1 0x0 DUP4 DUP2 MSTORE PUSH1 0x20 ADD SWAP1 DUP2 MSTORE PUSH1 0x20 ADD PUSH1 0x0 KECCAK256 PUSH1 0x1 ADD PUSH1 0x0 SWAP1 SLOAD SWAP1 PUSH2 0x100 EXP SWAP1 DIV PUSH20 0xFFFFFFFFFFFFFFFFFFFFFFFFFFFFFFFFFFFFFFFF AND PUSH20 0xFFFFFFFFFFFFFFFFFFFFFFFFFFFFFFFFFFFFFFFF AND EQ PUSH2 0x12A0 JUMPI PUSH1 0x40 MLOAD PUSH32 0x8C379A000000000000000000000000000000000000000000000000000000000 DUP2 MSTORE PUSH1 0x4 ADD PUSH2 0x1297 SWAP1 PUSH2 0x2B69 JUMP JUMPDEST PUSH1 0x40 MLOAD DUP1 SWAP2 SUB SWAP1 REVERT JUMPDEST PUSH1 0x1 ISZERO ISZERO PUSH1 0x6 PUSH1 0x0 DUP4 DUP2 MSTORE PUSH1 0x20 ADD SWAP1 DUP2 MSTORE PUSH1 0x20 ADD PUSH1 0x0 KECCAK256 PUSH1 0x9 ADD PUSH1 0x0 SWAP1 SLOAD SWAP1 PUSH2 0x100 EXP SWAP1 DIV PUSH1 0xFF AND ISZERO ISZERO EQ PUSH2 0x130A JUMPI PUSH1 0x40 MLOAD PUSH32 0x8C379A000000000000000000000000000000000000000000000000000000000 DUP2 MSTORE PUSH1 0x4 ADD PUSH2 0x1301 SWAP1 PUSH2 0x2BD5 JUMP JUMPDEST PUSH1 0x40 MLOAD DUP1 SWAP2 SUB SWAP1 REVERT JUMPDEST PUSH1 0x0 PUSH1 0x6 PUSH1 0x0 DUP4 DUP2 MSTORE PUSH1 0x20 ADD SWAP1 DUP2 MSTORE PUSH1 0x20 ADD PUSH1 0x0 KECCAK256 PUSH1 0x9 ADD PUSH1 0x0 PUSH2 0x100 EXP DUP2 SLOAD DUP2 PUSH1 0xFF MUL NOT AND SWAP1 DUP4 ISZERO ISZERO MUL OR SWAP1 SSTORE POP PUSH1 0x4 PUSH1 0x6 PUSH1 0x0 DUP4 DUP2 MSTORE PUSH1 0x20 ADD SWAP1 DUP2 MSTORE PUSH1 0x20 ADD PUSH1 0x0 KECCAK256 PUSH1 0x2 ADD PUSH1 0x40 MLOAD PUSH2 0x135E SWAP2 SWAP1 PUSH2 0x2C78 JUMP JUMPDEST SWAP1 DUP2 MSTORE PUSH1 0x20 ADD PUSH1 0x40 MLOAD DUP1 SWAP2 SUB SWAP1 KECCAK256 PUSH1 0x3 ADD PUSH1 0x0 SWAP1 SLOAD SWAP1 PUSH2 0x100 EXP SWAP1 DIV PUSH20 0xFFFFFFFFFFFFFFFFFFFFFFFFFFFFFFFFFFFFFFFF AND PUSH20 0xFFFFFFFFFFFFFFFFFFFFFFFFFFFFFFFFFFFFFFFF AND PUSH4 0xA9059CBB CALLER PUSH1 0x6 PUSH1 0x0 DUP6 DUP2 MSTORE PUSH1 0x20 ADD SWAP1 DUP2 MSTORE PUSH1 0x20 ADD PUSH1 0x0 KECCAK256 PUSH1 0x6 ADD SLOAD PUSH1 0x40 MLOAD DUP4 PUSH4 0xFFFFFFFF AND PUSH1 0xE0 SHL DUP2 MSTORE PUSH1 0x4 ADD PUSH2 0x13E0 SWAP3 SWAP2 SWAP1 PUSH2 0x2C8F JUMP JUMPDEST PUSH1 0x20 PUSH1 0x40 MLOAD DUP1 DUP4 SUB DUP2 PUSH1 0x0 DUP8 GAS CALL ISZERO DUP1 ISZERO PUSH2 0x13FF JUMPI RETURNDATASIZE PUSH1 0x0 DUP1 RETURNDATACOPY RETURNDATASIZE PUSH1 0x0 REVERT JUMPDEST POP POP POP POP PUSH1 0x40 MLOAD RETURNDATASIZE PUSH1 0x1F NOT PUSH1 0x1F DUP3 ADD AND DUP3 ADD DUP1 PUSH1 0x40 MSTORE POP DUP2 ADD SWAP1 PUSH2 0x1423 SWAP2 SWAP1 PUSH2 0x2763 JUMP JUMPDEST POP PUSH1 0x0 PUSH2 0x1445 PUSH1 0x6 PUSH1 0x0 DUP5 DUP2 MSTORE PUSH1 0x20 ADD SWAP1 DUP2 MSTORE PUSH1 0x20 ADD PUSH1 0x0 KECCAK256 PUSH1 0x4 ADD SLOAD PUSH2 0x6B1 JUMP JUMPDEST SWAP1 POP PUSH1 0x0 PUSH2 0x1480 PUSH1 0x6 PUSH1 0x0 DUP6 DUP2 MSTORE PUSH1 0x20 ADD SWAP1 DUP2 MSTORE PUSH1 0x20 ADD PUSH1 0x0 KECCAK256 PUSH1 0x5 ADD SLOAD PUSH1 0x6 PUSH1 0x0 DUP7 DUP2 MSTORE PUSH1 0x20 ADD SWAP1 DUP2 MSTORE PUSH1 0x20 ADD PUSH1 0x0 KECCAK256 PUSH1 0x8 ADD SLOAD DUP5 PUSH2 0x66F JUMP JUMPDEST SWAP1 POP POP POP POP JUMP JUMPDEST PUSH2 0x148F PUSH2 0x1891 JUMP JUMPDEST PUSH1 0x6 PUSH1 0x0 DUP4 DUP2 MSTORE PUSH1 0x20 ADD SWAP1 DUP2 MSTORE PUSH1 0x20 ADD PUSH1 0x0 KECCAK256 PUSH1 0x40 MLOAD DUP1 PUSH2 0x140 ADD PUSH1 0x40 MSTORE SWAP1 DUP2 PUSH1 0x0 DUP3 ADD SLOAD DUP2 MSTORE PUSH1 0x20 ADD PUSH1 0x1 DUP3 ADD PUSH1 0x0 SWAP1 SLOAD SWAP1 PUSH2 0x100 EXP SWAP1 DIV PUSH20 0xFFFFFFFFFFFFFFFFFFFFFFFFFFFFFFFFFFFFFFFF AND PUSH20 0xFFFFFFFFFFFFFFFFFFFFFFFFFFFFFFFFFFFFFFFF AND PUSH20 0xFFFFFFFFFFFFFFFFFFFFFFFFFFFFFFFFFFFFFFFF AND DUP2 MSTORE PUSH1 0x20 ADD PUSH1 0x2 DUP3 ADD DUP1 SLOAD PUSH2 0x151E SWAP1 PUSH2 0x24A9 JUMP JUMPDEST DUP1 PUSH1 0x1F ADD PUSH1 0x20 DUP1 SWAP2 DIV MUL PUSH1 0x20 ADD PUSH1 0x40 MLOAD SWAP1 DUP2 ADD PUSH1 0x40 MSTORE DUP1 SWAP3 SWAP2 SWAP1 DUP2 DUP2 MSTORE PUSH1 0x20 ADD DUP3 DUP1 SLOAD PUSH2 0x154A SWAP1 PUSH2 0x24A9 JUMP JUMPDEST DUP1 ISZERO PUSH2 0x1597 JUMPI DUP1 PUSH1 0x1F LT PUSH2 0x156C JUMPI PUSH2 0x100 DUP1 DUP4 SLOAD DIV MUL DUP4 MSTORE SWAP2 PUSH1 0x20 ADD SWAP2 PUSH2 0x1597 JUMP JUMPDEST DUP3 ADD SWAP2 SWAP1 PUSH1 0x0 MSTORE PUSH1 0x20 PUSH1 0x0 KECCAK256 SWAP1 JUMPDEST DUP2 SLOAD DUP2 MSTORE SWAP1 PUSH1 0x1 ADD SWAP1 PUSH1 0x20 ADD DUP1 DUP4 GT PUSH2 0x157A JUMPI DUP3 SWAP1 SUB PUSH1 0x1F AND DUP3 ADD SWAP2 JUMPDEST POP POP POP POP POP DUP2 MSTORE PUSH1 0x20 ADD PUSH1 0x3 DUP3 ADD DUP1 SLOAD PUSH2 0x15B0 SWAP1 PUSH2 0x24A9 JUMP JUMPDEST DUP1 PUSH1 0x1F ADD PUSH1 0x20 DUP1 SWAP2 DIV MUL PUSH1 0x20 ADD PUSH1 0x40 MLOAD SWAP1 DUP2 ADD PUSH1 0x40 MSTORE DUP1 SWAP3 SWAP2 SWAP1 DUP2 DUP2 MSTORE PUSH1 0x20 ADD DUP3 DUP1 SLOAD PUSH2 0x15DC SWAP1 PUSH2 0x24A9 JUMP JUMPDEST DUP1 ISZERO PUSH2 0x1629 JUMPI DUP1 PUSH1 0x1F LT PUSH2 0x15FE JUMPI PUSH2 0x100 DUP1 DUP4 SLOAD DIV MUL DUP4 MSTORE SWAP2 PUSH1 0x20 ADD SWAP2 PUSH2 0x1629 JUMP JUMPDEST DUP3 ADD SWAP2 SWAP1 PUSH1 0x0 MSTORE PUSH1 0x20 PUSH1 0x0 KECCAK256 SWAP1 JUMPDEST DUP2 SLOAD DUP2 MSTORE SWAP1 PUSH1 0x1 ADD SWAP1 PUSH1 0x20 ADD DUP1 DUP4 GT PUSH2 0x160C JUMPI DUP3 SWAP1 SUB PUSH1 0x1F AND DUP3 ADD SWAP2 JUMPDEST POP POP POP POP POP DUP2 MSTORE PUSH1 0x20 ADD PUSH1 0x4 DUP3 ADD SLOAD DUP2 MSTORE PUSH1 0x20 ADD PUSH1 0x5 DUP3 ADD SLOAD DUP2 MSTORE PUSH1 0x20 ADD PUSH1 0x6 DUP3 ADD SLOAD DUP2 MSTORE PUSH1 0x20 ADD PUSH1 0x7 DUP3 ADD SLOAD DUP2 MSTORE PUSH1 0x20 ADD PUSH1 0x8 DUP3 ADD SLOAD DUP2 MSTORE PUSH1 0x20 ADD PUSH1 0x9 DUP3 ADD PUSH1 0x0 SWAP1 SLOAD SWAP1 PUSH2 0x100 EXP SWAP1 DIV PUSH1 0xFF AND ISZERO ISZERO ISZERO ISZERO DUP2 MSTORE POP POP SWAP1 POP SWAP2 SWAP1 POP JUMP JUMPDEST PUSH2 0x168E PUSH2 0x18FC JUMP JUMPDEST PUSH1 0x4 DUP4 DUP4 PUSH1 0x40 MLOAD PUSH2 0x16A0 SWAP3 SWAP2 SWAP1 PUSH2 0x267B JUMP JUMPDEST SWAP1 DUP2 MSTORE PUSH1 0x20 ADD PUSH1 0x40 MLOAD DUP1 SWAP2 SUB SWAP1 KECCAK256 PUSH1 0x40 MLOAD DUP1 PUSH1 0xE0 ADD PUSH1 0x40 MSTORE SWAP1 DUP2 PUSH1 0x0 DUP3 ADD SLOAD DUP2 MSTORE PUSH1 0x20 ADD PUSH1 0x1 DUP3 ADD DUP1 SLOAD PUSH2 0x16D3 SWAP1 PUSH2 0x24A9 JUMP JUMPDEST DUP1 PUSH1 0x1F ADD PUSH1 0x20 DUP1 SWAP2 DIV MUL PUSH1 0x20 ADD PUSH1 0x40 MLOAD SWAP1 DUP2 ADD PUSH1 0x40 MSTORE DUP1 SWAP3 SWAP2 SWAP1 DUP2 DUP2 MSTORE PUSH1 0x20 ADD DUP3 DUP1 SLOAD PUSH2 0x16FF SWAP1 PUSH2 0x24A9 JUMP JUMPDEST DUP1 ISZERO PUSH2 0x174C JUMPI DUP1 PUSH1 0x1F LT PUSH2 0x1721 JUMPI PUSH2 0x100 DUP1 DUP4 SLOAD DIV MUL DUP4 MSTORE SWAP2 PUSH1 0x20 ADD SWAP2 PUSH2 0x174C JUMP JUMPDEST DUP3 ADD SWAP2 SWAP1 PUSH1 0x0 MSTORE PUSH1 0x20 PUSH1 0x0 KECCAK256 SWAP1 JUMPDEST DUP2 SLOAD DUP2 MSTORE SWAP1 PUSH1 0x1 ADD SWAP1 PUSH1 0x20 ADD DUP1 DUP4 GT PUSH2 0x172F JUMPI DUP3 SWAP1 SUB PUSH1 0x1F AND DUP3 ADD SWAP2 JUMPDEST POP POP POP POP POP DUP2 MSTORE PUSH1 0x20 ADD PUSH1 0x2 DUP3 ADD DUP1 SLOAD PUSH2 0x1765 SWAP1 PUSH2 0x24A9 JUMP JUMPDEST DUP1 PUSH1 0x1F ADD PUSH1 0x20 DUP1 SWAP2 DIV MUL PUSH1 0x20 ADD PUSH1 0x40 MLOAD SWAP1 DUP2 ADD PUSH1 0x40 MSTORE DUP1 SWAP3 SWAP2 SWAP1 DUP2 DUP2 MSTORE PUSH1 0x20 ADD DUP3 DUP1 SLOAD PUSH2 0x1791 SWAP1 PUSH2 0x24A9 JUMP JUMPDEST DUP1 ISZERO PUSH2 0x17DE JUMPI DUP1 PUSH1 0x1F LT PUSH2 0x17B3 JUMPI PUSH2 0x100 DUP1 DUP4 SLOAD DIV MUL DUP4 MSTORE SWAP2 PUSH1 0x20 ADD SWAP2 PUSH2 0x17DE JUMP JUMPDEST DUP3 ADD SWAP2 SWAP1 PUSH1 0x0 MSTORE PUSH1 0x20 PUSH1 0x0 KECCAK256 SWAP1 JUMPDEST DUP2 SLOAD DUP2 MSTORE SWAP1 PUSH1 0x1 ADD SWAP1 PUSH1 0x20 ADD DUP1 DUP4 GT PUSH2 0x17C1 JUMPI DUP3 SWAP1 SUB PUSH1 0x1F AND DUP3 ADD SWAP2 JUMPDEST POP POP POP POP POP DUP2 MSTORE PUSH1 0x20 ADD PUSH1 0x3 DUP3 ADD PUSH1 0x0 SWAP1 SLOAD SWAP1 PUSH2 0x100 EXP SWAP1 DIV PUSH20 0xFFFFFFFFFFFFFFFFFFFFFFFFFFFFFFFFFFFFFFFF AND PUSH20 0xFFFFFFFFFFFFFFFFFFFFFFFFFFFFFFFFFFFFFFFF AND PUSH20 0xFFFFFFFFFFFFFFFFFFFFFFFFFFFFFFFFFFFFFFFF AND DUP2 MSTORE PUSH1 0x20 ADD PUSH1 0x4 DUP3 ADD SLOAD DUP2 MSTORE PUSH1 0x20 ADD PUSH1 0x5 DUP3 ADD SLOAD DUP2 MSTORE PUSH1 0x20 ADD PUSH1 0x6 DUP3 ADD SLOAD DUP2 MSTORE POP POP SWAP1 POP SWAP3 SWAP2 POP POP JUMP JUMPDEST PUSH1 0x8 DUP2 DUP1 MLOAD PUSH1 0x20 DUP2 ADD DUP3 ADD DUP1 MLOAD DUP5 DUP3 MSTORE PUSH1 0x20 DUP4 ADD PUSH1 0x20 DUP6 ADD KECCAK256 DUP2 DUP4 MSTORE DUP1 SWAP6 POP POP POP POP POP POP PUSH1 0x0 SWAP2 POP SWAP1 POP SLOAD DUP2 JUMP JUMPDEST PUSH1 0x40 MLOAD DUP1 PUSH2 0x140 ADD PUSH1 0x40 MSTORE DUP1 PUSH1 0x0 DUP2 MSTORE PUSH1 0x20 ADD PUSH1 0x0 PUSH20 0xFFFFFFFFFFFFFFFFFFFFFFFFFFFFFFFFFFFFFFFF AND DUP2 MSTORE PUSH1 0x20 ADD PUSH1 0x60 DUP2 MSTORE PUSH1 0x20 ADD PUSH1 0x60 DUP2 MSTORE PUSH1 0x20 ADD PUSH1 0x0 DUP2 MSTORE PUSH1 0x20 ADD PUSH1 0x0 DUP2 MSTORE PUSH1 0x20 ADD PUSH1 0x0 DUP2 MSTORE PUSH1 0x20 ADD PUSH1 0x0 DUP2 MSTORE PUSH1 0x20 ADD PUSH1 0x0 DUP2 MSTORE PUSH1 0x20 ADD PUSH1 0x0 ISZERO ISZERO DUP2 MSTORE POP SWAP1 JUMP JUMPDEST PUSH1 0x40 MLOAD DUP1 PUSH1 0xE0 ADD PUSH1 0x40 MSTORE DUP1 PUSH1 0x0 DUP2 MSTORE PUSH1 0x20 ADD PUSH1 0x60 DUP2 MSTORE PUSH1 0x20 ADD PUSH1 0x60 DUP2 MSTORE PUSH1 0x20 ADD PUSH1 0x0 PUSH20 0xFFFFFFFFFFFFFFFFFFFFFFFFFFFFFFFFFFFFFFFF AND DUP2 MSTORE PUSH1 0x20 ADD PUSH1 0x0 DUP2 MSTORE PUSH1 0x20 ADD PUSH1 0x0 DUP2 MSTORE PUSH1 0x20 ADD PUSH1 0x0 DUP2 MSTORE POP SWAP1 JUMP JUMPDEST PUSH1 0x0 DUP2 SWAP1 POP SWAP2 SWAP1 POP JUMP JUMPDEST PUSH2 0x1962 DUP2 PUSH2 0x194F JUMP JUMPDEST DUP3 MSTORE POP POP JUMP JUMPDEST PUSH1 0x0 PUSH1 0x20 DUP3 ADD SWAP1 POP PUSH2 0x197D PUSH1 0x0 DUP4 ADD DUP5 PUSH2 0x1959 JUMP JUMPDEST SWAP3 SWAP2 POP POP JUMP JUMPDEST PUSH1 0x0 PUSH1 0x40 MLOAD SWAP1 POP SWAP1 JUMP JUMPDEST PUSH1 0x0 DUP1 REVERT JUMPDEST PUSH1 0x0 DUP1 REVERT JUMPDEST PUSH1 0x0 DUP1 REVERT JUMPDEST PUSH1 0x0 DUP1 REVERT JUMPDEST PUSH1 0x0 PUSH1 0x1F NOT PUSH1 0x1F DUP4 ADD AND SWAP1 POP SWAP2 SWAP1 POP JUMP JUMPDEST PUSH32 0x4E487B7100000000000000000000000000000000000000000000000000000000 PUSH1 0x0 MSTORE PUSH1 0x41 PUSH1 0x4 MSTORE PUSH1 0x24 PUSH1 0x0 REVERT JUMPDEST PUSH2 0x19EA DUP3 PUSH2 0x19A1 JUMP JUMPDEST DUP2 ADD DUP2 DUP2 LT PUSH8 0xFFFFFFFFFFFFFFFF DUP3 GT OR ISZERO PUSH2 0x1A09 JUMPI PUSH2 0x1A08 PUSH2 0x19B2 JUMP JUMPDEST JUMPDEST DUP1 PUSH1 0x40 MSTORE POP POP POP JUMP JUMPDEST PUSH1 0x0 PUSH2 0x1A1C PUSH2 0x1983 JUMP JUMPDEST SWAP1 POP PUSH2 0x1A28 DUP3 DUP3 PUSH2 0x19E1 JUMP JUMPDEST SWAP2 SWAP1 POP JUMP JUMPDEST PUSH1 0x0 PUSH8 0xFFFFFFFFFFFFFFFF DUP3 GT ISZERO PUSH2 0x1A48 JUMPI PUSH2 0x1A47 PUSH2 0x19B2 JUMP JUMPDEST JUMPDEST PUSH2 0x1A51 DUP3 PUSH2 0x19A1 JUMP JUMPDEST SWAP1 POP PUSH1 0x20 DUP2 ADD SWAP1 POP SWAP2 SWAP1 POP JUMP JUMPDEST DUP3 DUP2 DUP4 CALLDATACOPY PUSH1 0x0 DUP4 DUP4 ADD MSTORE POP POP POP JUMP JUMPDEST PUSH1 0x0 PUSH2 0x1A80 PUSH2 0x1A7B DUP5 PUSH2 0x1A2D JUMP JUMPDEST PUSH2 0x1A12 JUMP JUMPDEST SWAP1 POP DUP3 DUP2 MSTORE PUSH1 0x20 DUP2 ADD DUP5 DUP5 DUP5 ADD GT ISZERO PUSH2 0x1A9C JUMPI PUSH2 0x1A9B PUSH2 0x199C JUMP JUMPDEST JUMPDEST PUSH2 0x1AA7 DUP5 DUP3 DUP6 PUSH2 0x1A5E JUMP JUMPDEST POP SWAP4 SWAP3 POP POP POP JUMP JUMPDEST PUSH1 0x0 DUP3 PUSH1 0x1F DUP4 ADD SLT PUSH2 0x1AC4 JUMPI PUSH2 0x1AC3 PUSH2 0x1997 JUMP JUMPDEST JUMPDEST DUP2 CALLDATALOAD PUSH2 0x1AD4 DUP5 DUP3 PUSH1 0x20 DUP7 ADD PUSH2 0x1A6D JUMP JUMPDEST SWAP2 POP POP SWAP3 SWAP2 POP POP JUMP JUMPDEST PUSH1 0x0 PUSH1 0x20 DUP3 DUP5 SUB SLT ISZERO PUSH2 0x1AF3 JUMPI PUSH2 0x1AF2 PUSH2 0x198D JUMP JUMPDEST JUMPDEST PUSH1 0x0 DUP3 ADD CALLDATALOAD PUSH8 0xFFFFFFFFFFFFFFFF DUP2 GT ISZERO PUSH2 0x1B11 JUMPI PUSH2 0x1B10 PUSH2 0x1992 JUMP JUMPDEST JUMPDEST PUSH2 0x1B1D DUP5 DUP3 DUP6 ADD PUSH2 0x1AAF JUMP JUMPDEST SWAP2 POP POP SWAP3 SWAP2 POP POP JUMP JUMPDEST PUSH1 0x0 DUP2 MLOAD SWAP1 POP SWAP2 SWAP1 POP JUMP JUMPDEST PUSH1 0x0 DUP3 DUP3 MSTORE PUSH1 0x20 DUP3 ADD SWAP1 POP SWAP3 SWAP2 POP POP JUMP JUMPDEST PUSH1 0x0 JUMPDEST DUP4 DUP2 LT ISZERO PUSH2 0x1B60 JUMPI DUP1 DUP3 ADD MLOAD DUP2 DUP5 ADD MSTORE PUSH1 0x20 DUP2 ADD SWAP1 POP PUSH2 0x1B45 JUMP JUMPDEST PUSH1 0x0 DUP5 DUP5 ADD MSTORE POP POP POP POP JUMP JUMPDEST PUSH1 0x0 PUSH2 0x1B77 DUP3 PUSH2 0x1B26 JUMP JUMPDEST PUSH2 0x1B81 DUP2 DUP6 PUSH2 0x1B31 JUMP JUMPDEST SWAP4 POP PUSH2 0x1B91 DUP2 DUP6 PUSH1 0x20 DUP7 ADD PUSH2 0x1B42 JUMP JUMPDEST PUSH2 0x1B9A DUP2 PUSH2 0x19A1 JUMP JUMPDEST DUP5 ADD SWAP2 POP POP SWAP3 SWAP2 POP POP JUMP JUMPDEST PUSH1 0x0 PUSH20 0xFFFFFFFFFFFFFFFFFFFFFFFFFFFFFFFFFFFFFFFF DUP3 AND SWAP1 POP SWAP2 SWAP1 POP JUMP JUMPDEST PUSH1 0x0 PUSH2 0x1BD0 DUP3 PUSH2 0x1BA5 JUMP JUMPDEST SWAP1 POP SWAP2 SWAP1 POP JUMP JUMPDEST PUSH2 0x1BE0 DUP2 PUSH2 0x1BC5 JUMP JUMPDEST DUP3 MSTORE POP POP JUMP JUMPDEST PUSH1 0x0 PUSH1 0xE0 DUP3 ADD SWAP1 POP PUSH2 0x1BFB PUSH1 0x0 DUP4 ADD DUP11 PUSH2 0x1959 JUMP JUMPDEST DUP2 DUP2 SUB PUSH1 0x20 DUP4 ADD MSTORE PUSH2 0x1C0D DUP2 DUP10 PUSH2 0x1B6C JUMP JUMPDEST SWAP1 POP DUP2 DUP2 SUB PUSH1 0x40 DUP4 ADD MSTORE PUSH2 0x1C21 DUP2 DUP9 PUSH2 0x1B6C JUMP JUMPDEST SWAP1 POP PUSH2 0x1C30 PUSH1 0x60 DUP4 ADD DUP8 PUSH2 0x1BD7 JUMP JUMPDEST PUSH2 0x1C3D PUSH1 0x80 DUP4 ADD DUP7 PUSH2 0x1959 JUMP JUMPDEST PUSH2 0x1C4A PUSH1 0xA0 DUP4 ADD DUP6 PUSH2 0x1959 JUMP JUMPDEST PUSH2 0x1C57 PUSH1 0xC0 DUP4 ADD DUP5 PUSH2 0x1959 JUMP JUMPDEST SWAP9 SWAP8 POP POP POP POP POP POP POP POP JUMP JUMPDEST PUSH1 0x0 DUP2 MLOAD SWAP1 POP SWAP2 SWAP1 POP JUMP JUMPDEST PUSH1 0x0 DUP3 DUP3 MSTORE PUSH1 0x20 DUP3 ADD SWAP1 POP SWAP3 SWAP2 POP POP JUMP JUMPDEST PUSH1 0x0 DUP2 SWAP1 POP PUSH1 0x20 DUP3 ADD SWAP1 POP SWAP2 SWAP1 POP JUMP JUMPDEST PUSH1 0x0 DUP3 DUP3 MSTORE PUSH1 0x20 DUP3 ADD SWAP1 POP SWAP3 SWAP2 POP POP JUMP JUMPDEST PUSH1 0x0 PUSH2 0x1CAB DUP3 PUSH2 0x1B26 JUMP JUMPDEST PUSH2 0x1CB5 DUP2 DUP6 PUSH2 0x1C8F JUMP JUMPDEST SWAP4 POP PUSH2 0x1CC5 DUP2 DUP6 PUSH1 0x20 DUP7 ADD PUSH2 0x1B42 JUMP JUMPDEST PUSH2 0x1CCE DUP2 PUSH2 0x19A1 JUMP JUMPDEST DUP5 ADD SWAP2 POP POP SWAP3 SWAP2 POP POP JUMP JUMPDEST PUSH1 0x0 PUSH2 0x1CE5 DUP4 DUP4 PUSH2 0x1CA0 JUMP JUMPDEST SWAP1 POP SWAP3 SWAP2 POP POP JUMP JUMPDEST PUSH1 0x0 PUSH1 0x20 DUP3 ADD SWAP1 POP SWAP2 SWAP1 POP JUMP JUMPDEST PUSH1 0x0 PUSH2 0x1D05 DUP3 PUSH2 0x1C63 JUMP JUMPDEST PUSH2 0x1D0F DUP2 DUP6 PUSH2 0x1C6E JUMP JUMPDEST SWAP4 POP DUP4 PUSH1 0x20 DUP3 MUL DUP6 ADD PUSH2 0x1D21 DUP6 PUSH2 0x1C7F JUMP JUMPDEST DUP1 PUSH1 0x0 JUMPDEST DUP6 DUP2 LT ISZERO PUSH2 0x1D5D JUMPI DUP5 DUP5 SUB DUP10 MSTORE DUP2 MLOAD PUSH2 0x1D3E DUP6 DUP3 PUSH2 0x1CD9 JUMP JUMPDEST SWAP5 POP PUSH2 0x1D49 DUP4 PUSH2 0x1CED JUMP JUMPDEST SWAP3 POP PUSH1 0x20 DUP11 ADD SWAP10 POP POP PUSH1 0x1 DUP2 ADD SWAP1 POP PUSH2 0x1D25 JUMP JUMPDEST POP DUP3 SWAP8 POP DUP8 SWAP6 POP POP POP POP POP POP SWAP3 SWAP2 POP POP JUMP JUMPDEST PUSH1 0x0 PUSH1 0x20 DUP3 ADD SWAP1 POP DUP2 DUP2 SUB PUSH1 0x0 DUP4 ADD MSTORE PUSH2 0x1D89 DUP2 DUP5 PUSH2 0x1CFA JUMP JUMPDEST SWAP1 POP SWAP3 SWAP2 POP POP JUMP JUMPDEST PUSH2 0x1D9A DUP2 PUSH2 0x194F JUMP JUMPDEST DUP2 EQ PUSH2 0x1DA5 JUMPI PUSH1 0x0 DUP1 REVERT JUMPDEST POP JUMP JUMPDEST PUSH1 0x0 DUP2 CALLDATALOAD SWAP1 POP PUSH2 0x1DB7 DUP2 PUSH2 0x1D91 JUMP JUMPDEST SWAP3 SWAP2 POP POP JUMP JUMPDEST PUSH1 0x0 DUP1 PUSH1 0x0 PUSH1 0x60 DUP5 DUP7 SUB SLT ISZERO PUSH2 0x1DD6 JUMPI PUSH2 0x1DD5 PUSH2 0x198D JUMP JUMPDEST JUMPDEST PUSH1 0x0 PUSH2 0x1DE4 DUP7 DUP3 DUP8 ADD PUSH2 0x1DA8 JUMP JUMPDEST SWAP4 POP POP PUSH1 0x20 PUSH2 0x1DF5 DUP7 DUP3 DUP8 ADD PUSH2 0x1DA8 JUMP JUMPDEST SWAP3 POP POP PUSH1 0x40 PUSH2 0x1E06 DUP7 DUP3 DUP8 ADD PUSH2 0x1DA8 JUMP JUMPDEST SWAP2 POP POP SWAP3 POP SWAP3 POP SWAP3 JUMP JUMPDEST PUSH1 0x0 PUSH1 0x20 DUP3 DUP5 SUB SLT ISZERO PUSH2 0x1E26 JUMPI PUSH2 0x1E25 PUSH2 0x198D JUMP JUMPDEST JUMPDEST PUSH1 0x0 PUSH2 0x1E34 DUP5 DUP3 DUP6 ADD PUSH2 0x1DA8 JUMP JUMPDEST SWAP2 POP POP SWAP3 SWAP2 POP POP JUMP JUMPDEST PUSH1 0x0 DUP1 PUSH1 0x40 DUP4 DUP6 SUB SLT ISZERO PUSH2 0x1E54 JUMPI PUSH2 0x1E53 PUSH2 0x198D JUMP JUMPDEST JUMPDEST PUSH1 0x0 PUSH2 0x1E62 DUP6 DUP3 DUP7 ADD PUSH2 0x1DA8 JUMP JUMPDEST SWAP3 POP POP PUSH1 0x20 PUSH2 0x1E73 DUP6 DUP3 DUP7 ADD PUSH2 0x1DA8 JUMP JUMPDEST SWAP2 POP POP SWAP3 POP SWAP3 SWAP1 POP JUMP JUMPDEST PUSH2 0x1E86 DUP2 PUSH2 0x1BC5 JUMP JUMPDEST DUP2 EQ PUSH2 0x1E91 JUMPI PUSH1 0x0 DUP1 REVERT JUMPDEST POP JUMP JUMPDEST PUSH1 0x0 DUP2 CALLDATALOAD SWAP1 POP PUSH2 0x1EA3 DUP2 PUSH2 0x1E7D JUMP JUMPDEST SWAP3 SWAP2 POP POP JUMP JUMPDEST PUSH1 0x0 DUP1 PUSH1 0x40 DUP4 DUP6 SUB SLT ISZERO PUSH2 0x1EC0 JUMPI PUSH2 0x1EBF PUSH2 0x198D JUMP JUMPDEST JUMPDEST PUSH1 0x0 PUSH2 0x1ECE DUP6 DUP3 DUP7 ADD PUSH2 0x1E94 JUMP JUMPDEST SWAP3 POP POP PUSH1 0x20 PUSH2 0x1EDF DUP6 DUP3 DUP7 ADD PUSH2 0x1DA8 JUMP JUMPDEST SWAP2 POP POP SWAP3 POP SWAP3 SWAP1 POP JUMP JUMPDEST PUSH1 0x0 DUP2 MLOAD SWAP1 POP SWAP2 SWAP1 POP JUMP JUMPDEST PUSH1 0x0 DUP3 DUP3 MSTORE PUSH1 0x20 DUP3 ADD SWAP1 POP SWAP3 SWAP2 POP POP JUMP JUMPDEST PUSH1 0x0 DUP2 SWAP1 POP PUSH1 0x20 DUP3 ADD SWAP1 POP SWAP2 SWAP1 POP JUMP JUMPDEST PUSH2 0x1F1E DUP2 PUSH2 0x194F JUMP JUMPDEST DUP3 MSTORE POP POP JUMP JUMPDEST PUSH1 0x0 PUSH2 0x1F30 DUP4 DUP4 PUSH2 0x1F15 JUMP JUMPDEST PUSH1 0x20 DUP4 ADD SWAP1 POP SWAP3 SWAP2 POP POP JUMP JUMPDEST PUSH1 0x0 PUSH1 0x20 DUP3 ADD SWAP1 POP SWAP2 SWAP1 POP JUMP JUMPDEST PUSH1 0x0 PUSH2 0x1F54 DUP3 PUSH2 0x1EE9 JUMP JUMPDEST PUSH2 0x1F5E DUP2 DUP6 PUSH2 0x1EF4 JUMP JUMPDEST SWAP4 POP PUSH2 0x1F69 DUP4 PUSH2 0x1F05 JUMP JUMPDEST DUP1 PUSH1 0x0 JUMPDEST DUP4 DUP2 LT ISZERO PUSH2 0x1F9A JUMPI DUP2 MLOAD PUSH2 0x1F81 DUP9 DUP3 PUSH2 0x1F24 JUMP JUMPDEST SWAP8 POP PUSH2 0x1F8C DUP4 PUSH2 0x1F3C JUMP JUMPDEST SWAP3 POP POP PUSH1 0x1 DUP2 ADD SWAP1 POP PUSH2 0x1F6D JUMP JUMPDEST POP DUP6 SWAP4 POP POP POP POP SWAP3 SWAP2 POP POP JUMP JUMPDEST PUSH1 0x0 PUSH1 0x20 DUP3 ADD SWAP1 POP DUP2 DUP2 SUB PUSH1 0x0 DUP4 ADD MSTORE PUSH2 0x1FC1 DUP2 DUP5 PUSH2 0x1F49 JUMP JUMPDEST SWAP1 POP SWAP3 SWAP2 POP POP JUMP JUMPDEST PUSH1 0x0 PUSH1 0x20 DUP3 ADD SWAP1 POP DUP2 DUP2 SUB PUSH1 0x0 DUP4 ADD MSTORE PUSH2 0x1FE3 DUP2 DUP5 PUSH2 0x1B6C JUMP JUMPDEST SWAP1 POP SWAP3 SWAP2 POP POP JUMP JUMPDEST PUSH1 0x0 DUP1 REVERT JUMPDEST PUSH1 0x0 DUP1 REVERT JUMPDEST PUSH1 0x0 DUP1 DUP4 PUSH1 0x1F DUP5 ADD SLT PUSH2 0x200B JUMPI PUSH2 0x200A PUSH2 0x1997 JUMP JUMPDEST JUMPDEST DUP3 CALLDATALOAD SWAP1 POP PUSH8 0xFFFFFFFFFFFFFFFF DUP2 GT ISZERO PUSH2 0x2028 JUMPI PUSH2 0x2027 PUSH2 0x1FEB JUMP JUMPDEST JUMPDEST PUSH1 0x20 DUP4 ADD SWAP2 POP DUP4 PUSH1 0x1 DUP3 MUL DUP4 ADD GT ISZERO PUSH2 0x2044 JUMPI PUSH2 0x2043 PUSH2 0x1FF0 JUMP JUMPDEST JUMPDEST SWAP3 POP SWAP3 SWAP1 POP JUMP JUMPDEST PUSH1 0x0 DUP1 PUSH1 0x0 PUSH1 0x40 DUP5 DUP7 SUB SLT ISZERO PUSH2 0x2064 JUMPI PUSH2 0x2063 PUSH2 0x198D JUMP JUMPDEST JUMPDEST PUSH1 0x0 DUP5 ADD CALLDATALOAD PUSH8 0xFFFFFFFFFFFFFFFF DUP2 GT ISZERO PUSH2 0x2082 JUMPI PUSH2 0x2081 PUSH2 0x1992 JUMP JUMPDEST JUMPDEST PUSH2 0x208E DUP7 DUP3 DUP8 ADD PUSH2 0x1FF5 JUMP JUMPDEST SWAP4 POP SWAP4 POP POP PUSH1 0x20 PUSH2 0x20A1 DUP7 DUP3 DUP8 ADD PUSH2 0x1DA8 JUMP JUMPDEST SWAP2 POP POP SWAP3 POP SWAP3 POP SWAP3 JUMP JUMPDEST PUSH1 0x0 PUSH1 0x20 DUP3 ADD SWAP1 POP PUSH2 0x20C0 PUSH1 0x0 DUP4 ADD DUP5 PUSH2 0x1BD7 JUMP JUMPDEST SWAP3 SWAP2 POP POP JUMP JUMPDEST PUSH1 0x0 DUP1 PUSH1 0x0 DUP1 PUSH1 0x0 DUP1 PUSH1 0x0 PUSH1 0xA0 DUP9 DUP11 SUB SLT ISZERO PUSH2 0x20E5 JUMPI PUSH2 0x20E4 PUSH2 0x198D JUMP JUMPDEST JUMPDEST PUSH1 0x0 DUP9 ADD CALLDATALOAD PUSH8 0xFFFFFFFFFFFFFFFF DUP2 GT ISZERO PUSH2 0x2103 JUMPI PUSH2 0x2102 PUSH2 0x1992 JUMP JUMPDEST JUMPDEST PUSH2 0x210F DUP11 DUP3 DUP12 ADD PUSH2 0x1FF5 JUMP JUMPDEST SWAP8 POP SWAP8 POP POP PUSH1 0x20 DUP9 ADD CALLDATALOAD PUSH8 0xFFFFFFFFFFFFFFFF DUP2 GT ISZERO PUSH2 0x2132 JUMPI PUSH2 0x2131 PUSH2 0x1992 JUMP JUMPDEST JUMPDEST PUSH2 0x213E DUP11 DUP3 DUP12 ADD PUSH2 0x1FF5 JUMP JUMPDEST SWAP6 POP SWAP6 POP POP PUSH1 0x40 PUSH2 0x2151 DUP11 DUP3 DUP12 ADD PUSH2 0x1E94 JUMP JUMPDEST SWAP4 POP POP PUSH1 0x60 PUSH2 0x2162 DUP11 DUP3 DUP12 ADD PUSH2 0x1DA8 JUMP JUMPDEST SWAP3 POP POP PUSH1 0x80 PUSH2 0x2173 DUP11 DUP3 DUP12 ADD PUSH2 0x1DA8 JUMP JUMPDEST SWAP2 POP POP SWAP3 SWAP6 SWAP9 SWAP2 SWAP5 SWAP8 POP SWAP3 SWAP6 POP JUMP JUMPDEST PUSH1 0x0 DUP2 ISZERO ISZERO SWAP1 POP SWAP2 SWAP1 POP JUMP JUMPDEST PUSH2 0x2197 DUP2 PUSH2 0x2182 JUMP JUMPDEST DUP3 MSTORE POP POP JUMP JUMPDEST PUSH1 0x0 PUSH2 0x140 DUP3 ADD SWAP1 POP PUSH2 0x21B3 PUSH1 0x0 DUP4 ADD DUP14 PUSH2 0x1959 JUMP JUMPDEST PUSH2 0x21C0 PUSH1 0x20 DUP4 ADD DUP13 PUSH2 0x1BD7 JUMP JUMPDEST DUP2 DUP2 SUB PUSH1 0x40 DUP4 ADD MSTORE PUSH2 0x21D2 DUP2 DUP12 PUSH2 0x1B6C JUMP JUMPDEST SWAP1 POP DUP2 DUP2 SUB PUSH1 0x60 DUP4 ADD MSTORE PUSH2 0x21E6 DUP2 DUP11 PUSH2 0x1B6C JUMP JUMPDEST SWAP1 POP PUSH2 0x21F5 PUSH1 0x80 DUP4 ADD DUP10 PUSH2 0x1959 JUMP JUMPDEST PUSH2 0x2202 PUSH1 0xA0 DUP4 ADD DUP9 PUSH2 0x1959 JUMP JUMPDEST PUSH2 0x220F PUSH1 0xC0 DUP4 ADD DUP8 PUSH2 0x1959 JUMP JUMPDEST PUSH2 0x221C PUSH1 0xE0 DUP4 ADD DUP7 PUSH2 0x1959 JUMP JUMPDEST PUSH2 0x222A PUSH2 0x100 DUP4 ADD DUP6 PUSH2 0x1959 JUMP JUMPDEST PUSH2 0x2238 PUSH2 0x120 DUP4 ADD DUP5 PUSH2 0x218E JUMP JUMPDEST SWAP12 SWAP11 POP POP POP POP POP POP POP POP POP POP POP JUMP JUMPDEST PUSH2 0x2250 DUP2 PUSH2 0x1BC5 JUMP JUMPDEST DUP3 MSTORE POP POP JUMP JUMPDEST PUSH2 0x225F DUP2 PUSH2 0x2182 JUMP JUMPDEST DUP3 MSTORE POP POP JUMP JUMPDEST PUSH1 0x0 PUSH2 0x140 DUP4 ADD PUSH1 0x0 DUP4 ADD MLOAD PUSH2 0x227E PUSH1 0x0 DUP7 ADD DUP3 PUSH2 0x1F15 JUMP JUMPDEST POP PUSH1 0x20 DUP4 ADD MLOAD PUSH2 0x2291 PUSH1 0x20 DUP7 ADD DUP3 PUSH2 0x2247 JUMP JUMPDEST POP PUSH1 0x40 DUP4 ADD MLOAD DUP5 DUP3 SUB PUSH1 0x40 DUP7 ADD MSTORE PUSH2 0x22A9 DUP3 DUP3 PUSH2 0x1CA0 JUMP JUMPDEST SWAP2 POP POP PUSH1 0x60 DUP4 ADD MLOAD DUP5 DUP3 SUB PUSH1 0x60 DUP7 ADD MSTORE PUSH2 0x22C3 DUP3 DUP3 PUSH2 0x1CA0 JUMP JUMPDEST SWAP2 POP POP PUSH1 0x80 DUP4 ADD MLOAD PUSH2 0x22D8 PUSH1 0x80 DUP7 ADD DUP3 PUSH2 0x1F15 JUMP JUMPDEST POP PUSH1 0xA0 DUP4 ADD MLOAD PUSH2 0x22EB PUSH1 0xA0 DUP7 ADD DUP3 PUSH2 0x1F15 JUMP JUMPDEST POP PUSH1 0xC0 DUP4 ADD MLOAD PUSH2 0x22FE PUSH1 0xC0 DUP7 ADD DUP3 PUSH2 0x1F15 JUMP JUMPDEST POP PUSH1 0xE0 DUP4 ADD MLOAD PUSH2 0x2311 PUSH1 0xE0 DUP7 ADD DUP3 PUSH2 0x1F15 JUMP JUMPDEST POP PUSH2 0x100 DUP4 ADD MLOAD PUSH2 0x2326 PUSH2 0x100 DUP7 ADD DUP3 PUSH2 0x1F15 JUMP JUMPDEST POP PUSH2 0x120 DUP4 ADD MLOAD PUSH2 0x233B PUSH2 0x120 DUP7 ADD DUP3 PUSH2 0x2256 JUMP JUMPDEST POP DUP1 SWAP2 POP POP SWAP3 SWAP2 POP POP JUMP JUMPDEST PUSH1 0x0 PUSH1 0x20 DUP3 ADD SWAP1 POP DUP2 DUP2 SUB PUSH1 0x0 DUP4 ADD MSTORE PUSH2 0x2360 DUP2 DUP5 PUSH2 0x2265 JUMP JUMPDEST SWAP1 POP SWAP3 SWAP2 POP POP JUMP JUMPDEST PUSH1 0x0 DUP1 PUSH1 0x20 DUP4 DUP6 SUB SLT ISZERO PUSH2 0x237F JUMPI PUSH2 0x237E PUSH2 0x198D JUMP JUMPDEST JUMPDEST PUSH1 0x0 DUP4 ADD CALLDATALOAD PUSH8 0xFFFFFFFFFFFFFFFF DUP2 GT ISZERO PUSH2 0x239D JUMPI PUSH2 0x239C PUSH2 0x1992 JUMP JUMPDEST JUMPDEST PUSH2 0x23A9 DUP6 DUP3 DUP7 ADD PUSH2 0x1FF5 JUMP JUMPDEST SWAP3 POP SWAP3 POP POP SWAP3 POP SWAP3 SWAP1 POP JUMP JUMPDEST PUSH1 0x0 PUSH1 0xE0 DUP4 ADD PUSH1 0x0 DUP4 ADD MLOAD PUSH2 0x23CD PUSH1 0x0 DUP7 ADD DUP3 PUSH2 0x1F15 JUMP JUMPDEST POP PUSH1 0x20 DUP4 ADD MLOAD DUP5 DUP3 SUB PUSH1 0x20 DUP7 ADD MSTORE PUSH2 0x23E5 DUP3 DUP3 PUSH2 0x1CA0 JUMP JUMPDEST SWAP2 POP POP PUSH1 0x40 DUP4 ADD MLOAD DUP5 DUP3 SUB PUSH1 0x40 DUP7 ADD MSTORE PUSH2 0x23FF DUP3 DUP3 PUSH2 0x1CA0 JUMP JUMPDEST SWAP2 POP POP PUSH1 0x60 DUP4 ADD MLOAD PUSH2 0x2414 PUSH1 0x60 DUP7 ADD DUP3 PUSH2 0x2247 JUMP JUMPDEST POP PUSH1 0x80 DUP4 ADD MLOAD PUSH2 0x2427 PUSH1 0x80 DUP7 ADD DUP3 PUSH2 0x1F15 JUMP JUMPDEST POP PUSH1 0xA0 DUP4 ADD MLOAD PUSH2 0x243A PUSH1 0xA0 DUP7 ADD DUP3 PUSH2 0x1F15 JUMP JUMPDEST POP PUSH1 0xC0 DUP4 ADD MLOAD PUSH2 0x244D PUSH1 0xC0 DUP7 ADD DUP3 PUSH2 0x1F15 JUMP JUMPDEST POP DUP1 SWAP2 POP POP SWAP3 SWAP2 POP POP JUMP JUMPDEST PUSH1 0x0 PUSH1 0x20 DUP3 ADD SWAP1 POP DUP2 DUP2 SUB PUSH1 0x0 DUP4 ADD MSTORE PUSH2 0x2472 DUP2 DUP5 PUSH2 0x23B5 JUMP JUMPDEST SWAP1 POP SWAP3 SWAP2 POP POP JUMP JUMPDEST PUSH32 0x4E487B7100000000000000000000000000000000000000000000000000000000 PUSH1 0x0 MSTORE PUSH1 0x22 PUSH1 0x4 MSTORE PUSH1 0x24 PUSH1 0x0 REVERT JUMPDEST PUSH1 0x0 PUSH1 0x2 DUP3 DIV SWAP1 POP PUSH1 0x1 DUP3 AND DUP1 PUSH2 0x24C1 JUMPI PUSH1 0x7F DUP3 AND SWAP2 POP JUMPDEST PUSH1 0x20 DUP3 LT DUP2 SUB PUSH2 0x24D4 JUMPI PUSH2 0x24D3 PUSH2 0x247A JUMP JUMPDEST JUMPDEST POP SWAP2 SWAP1 POP JUMP JUMPDEST PUSH32 0x4E487B7100000000000000000000000000000000000000000000000000000000 PUSH1 0x0 MSTORE PUSH1 0x11 PUSH1 0x4 MSTORE PUSH1 0x24 PUSH1 0x0 REVERT JUMPDEST PUSH1 0x0 PUSH2 0x2514 DUP3 PUSH2 0x194F JUMP JUMPDEST SWAP2 POP PUSH2 0x251F DUP4 PUSH2 0x194F JUMP JUMPDEST SWAP3 POP DUP3 DUP3 MUL PUSH2 0x252D DUP2 PUSH2 0x194F JUMP JUMPDEST SWAP2 POP DUP3 DUP3 DIV DUP5 EQ DUP4 ISZERO OR PUSH2 0x2544 JUMPI PUSH2 0x2543 PUSH2 0x24DA JUMP JUMPDEST JUMPDEST POP SWAP3 SWAP2 POP POP JUMP JUMPDEST PUSH32 0x4E487B7100000000000000000000000000000000000000000000000000000000 PUSH1 0x0 MSTORE PUSH1 0x12 PUSH1 0x4 MSTORE PUSH1 0x24 PUSH1 0x0 REVERT JUMPDEST PUSH1 0x0 PUSH2 0x2585 DUP3 PUSH2 0x194F JUMP JUMPDEST SWAP2 POP PUSH2 0x2590 DUP4 PUSH2 0x194F JUMP JUMPDEST SWAP3 POP DUP3 PUSH2 0x25A0 JUMPI PUSH2 0x259F PUSH2 0x254B JUMP JUMPDEST JUMPDEST DUP3 DUP3 DIV SWAP1 POP SWAP3 SWAP2 POP POP JUMP JUMPDEST PUSH1 0x0 PUSH2 0x25B6 DUP3 PUSH2 0x194F JUMP JUMPDEST SWAP2 POP PUSH2 0x25C1 DUP4 PUSH2 0x194F JUMP JUMPDEST SWAP3 POP DUP3 DUP3 SUB SWAP1 POP DUP2 DUP2 GT ISZERO PUSH2 0x25D9 JUMPI PUSH2 0x25D8 PUSH2 0x24DA JUMP JUMPDEST JUMPDEST SWAP3 SWAP2 POP POP JUMP JUMPDEST PUSH32 0x6F6E6C79206F776E65722063616E2072756E207468697320636F6E7472616374 PUSH1 0x0 DUP3 ADD MSTORE POP JUMP JUMPDEST PUSH1 0x0 PUSH2 0x2615 PUSH1 0x20 DUP4 PUSH2 0x1B31 JUMP JUMPDEST SWAP2 POP PUSH2 0x2620 DUP3 PUSH2 0x25DF JUMP JUMPDEST PUSH1 0x20 DUP3 ADD SWAP1 POP SWAP2 SWAP1 POP JUMP JUMPDEST PUSH1 0x0 PUSH1 0x20 DUP3 ADD SWAP1 POP DUP2 DUP2 SUB PUSH1 0x0 DUP4 ADD MSTORE PUSH2 0x2644 DUP2 PUSH2 0x2608 JUMP JUMPDEST SWAP1 POP SWAP2 SWAP1 POP JUMP JUMPDEST PUSH1 0x0 DUP2 SWAP1 POP SWAP3 SWAP2 POP POP JUMP JUMPDEST PUSH1 0x0 PUSH2 0x2662 DUP4 DUP6 PUSH2 0x264B JUMP JUMPDEST SWAP4 POP PUSH2 0x266F DUP4 DUP6 DUP5 PUSH2 0x1A5E JUMP JUMPDEST DUP3 DUP5 ADD SWAP1 POP SWAP4 SWAP3 POP POP POP JUMP JUMPDEST PUSH1 0x0 PUSH2 0x2688 DUP3 DUP5 DUP7 PUSH2 0x2656 JUMP JUMPDEST SWAP2 POP DUP2 SWAP1 POP SWAP4 SWAP3 POP POP POP JUMP JUMPDEST PUSH32 0x5468697320746F6B656E2063616E6E6F74206265207374616B65640000000000 PUSH1 0x0 DUP3 ADD MSTORE POP JUMP JUMPDEST PUSH1 0x0 PUSH2 0x26CA PUSH1 0x1B DUP4 PUSH2 0x1B31 JUMP JUMPDEST SWAP2 POP PUSH2 0x26D5 DUP3 PUSH2 0x2694 JUMP JUMPDEST PUSH1 0x20 DUP3 ADD SWAP1 POP SWAP2 SWAP1 POP JUMP JUMPDEST PUSH1 0x0 PUSH1 0x20 DUP3 ADD SWAP1 POP DUP2 DUP2 SUB PUSH1 0x0 DUP4 ADD MSTORE PUSH2 0x26F9 DUP2 PUSH2 0x26BD JUMP JUMPDEST SWAP1 POP SWAP2 SWAP1 POP JUMP JUMPDEST PUSH1 0x0 PUSH1 0x60 DUP3 ADD SWAP1 POP PUSH2 0x2715 PUSH1 0x0 DUP4 ADD DUP7 PUSH2 0x1BD7 JUMP JUMPDEST PUSH2 0x2722 PUSH1 0x20 DUP4 ADD DUP6 PUSH2 0x1BD7 JUMP JUMPDEST PUSH2 0x272F PUSH1 0x40 DUP4 ADD DUP5 PUSH2 0x1959 JUMP JUMPDEST SWAP5 SWAP4 POP POP POP POP JUMP JUMPDEST PUSH2 0x2740 DUP2 PUSH2 0x2182 JUMP JUMPDEST DUP2 EQ PUSH2 0x274B JUMPI PUSH1 0x0 DUP1 REVERT JUMPDEST POP JUMP JUMPDEST PUSH1 0x0 DUP2 MLOAD SWAP1 POP PUSH2 0x275D DUP2 PUSH2 0x2737 JUMP JUMPDEST SWAP3 SWAP2 POP POP JUMP JUMPDEST PUSH1 0x0 PUSH1 0x20 DUP3 DUP5 SUB SLT ISZERO PUSH2 0x2779 JUMPI PUSH2 0x2778 PUSH2 0x198D JUMP JUMPDEST JUMPDEST PUSH1 0x0 PUSH2 0x2787 DUP5 DUP3 DUP6 ADD PUSH2 0x274E JUMP JUMPDEST SWAP2 POP POP SWAP3 SWAP2 POP POP JUMP JUMPDEST PUSH1 0x0 DUP2 SWAP1 POP DUP2 PUSH1 0x0 MSTORE PUSH1 0x20 PUSH1 0x0 KECCAK256 SWAP1 POP SWAP2 SWAP1 POP JUMP JUMPDEST PUSH1 0x0 PUSH1 0x20 PUSH1 0x1F DUP4 ADD DIV SWAP1 POP SWAP2 SWAP1 POP JUMP JUMPDEST PUSH1 0x0 DUP3 DUP3 SHL SWAP1 POP SWAP3 SWAP2 POP POP JUMP JUMPDEST PUSH1 0x0 PUSH1 0x8 DUP4 MUL PUSH2 0x27F2 PUSH32 0xFFFFFFFFFFFFFFFFFFFFFFFFFFFFFFFFFFFFFFFFFFFFFFFFFFFFFFFFFFFFFFFF DUP3 PUSH2 0x27B5 JUMP JUMPDEST PUSH2 0x27FC DUP7 DUP4 PUSH2 0x27B5 JUMP JUMPDEST SWAP6 POP DUP1 NOT DUP5 AND SWAP4 POP DUP1 DUP7 AND DUP5 OR SWAP3 POP POP POP SWAP4 SWAP3 POP POP POP JUMP JUMPDEST PUSH1 0x0 DUP2 SWAP1 POP SWAP2 SWAP1 POP JUMP JUMPDEST PUSH1 0x0 PUSH2 0x2839 PUSH2 0x2834 PUSH2 0x282F DUP5 PUSH2 0x194F JUMP JUMPDEST PUSH2 0x2814 JUMP JUMPDEST PUSH2 0x194F JUMP JUMPDEST SWAP1 POP SWAP2 SWAP1 POP JUMP JUMPDEST PUSH1 0x0 DUP2 SWAP1 POP SWAP2 SWAP1 POP JUMP JUMPDEST PUSH2 0x2853 DUP4 PUSH2 0x281E JUMP JUMPDEST PUSH2 0x2867 PUSH2 0x285F DUP3 PUSH2 0x2840 JUMP JUMPDEST DUP5 DUP5 SLOAD PUSH2 0x27C2 JUMP JUMPDEST DUP3 SSTORE POP POP POP POP JUMP JUMPDEST PUSH1 0x0 SWAP1 JUMP JUMPDEST PUSH2 0x287C PUSH2 0x286F JUMP JUMPDEST PUSH2 0x2887 DUP2 DUP5 DUP5 PUSH2 0x284A JUMP JUMPDEST POP POP POP JUMP JUMPDEST JUMPDEST DUP2 DUP2 LT ISZERO PUSH2 0x28AB JUMPI PUSH2 0x28A0 PUSH1 0x0 DUP3 PUSH2 0x2874 JUMP JUMPDEST PUSH1 0x1 DUP2 ADD SWAP1 POP PUSH2 0x288D JUMP JUMPDEST POP POP JUMP JUMPDEST PUSH1 0x1F DUP3 GT ISZERO PUSH2 0x28F0 JUMPI PUSH2 0x28C1 DUP2 PUSH2 0x2790 JUMP JUMPDEST PUSH2 0x28CA DUP5 PUSH2 0x27A5 JUMP JUMPDEST DUP2 ADD PUSH1 0x20 DUP6 LT ISZERO PUSH2 0x28D9 JUMPI DUP2 SWAP1 POP JUMPDEST PUSH2 0x28ED PUSH2 0x28E5 DUP6 PUSH2 0x27A5 JUMP JUMPDEST DUP4 ADD DUP3 PUSH2 0x288C JUMP JUMPDEST POP POP JUMPDEST POP POP POP JUMP JUMPDEST PUSH1 0x0 DUP3 DUP3 SHR SWAP1 POP SWAP3 SWAP2 POP POP JUMP JUMPDEST PUSH1 0x0 PUSH2 0x2913 PUSH1 0x0 NOT DUP5 PUSH1 0x8 MUL PUSH2 0x28F5 JUMP JUMPDEST NOT DUP1 DUP4 AND SWAP2 POP POP SWAP3 SWAP2 POP POP JUMP JUMPDEST PUSH1 0x0 PUSH2 0x292C DUP4 DUP4 PUSH2 0x2902 JUMP JUMPDEST SWAP2 POP DUP3 PUSH1 0x2 MUL DUP3 OR SWAP1 POP SWAP3 SWAP2 POP POP JUMP JUMPDEST PUSH2 0x2945 DUP3 PUSH2 0x1B26 JUMP JUMPDEST PUSH8 0xFFFFFFFFFFFFFFFF DUP2 GT ISZERO PUSH2 0x295E JUMPI PUSH2 0x295D PUSH2 0x19B2 JUMP JUMPDEST JUMPDEST PUSH2 0x2968 DUP3 SLOAD PUSH2 0x24A9 JUMP JUMPDEST PUSH2 0x2973 DUP3 DUP3 DUP6 PUSH2 0x28AF JUMP JUMPDEST PUSH1 0x0 PUSH1 0x20 SWAP1 POP PUSH1 0x1F DUP4 GT PUSH1 0x1 DUP2 EQ PUSH2 0x29A6 JUMPI PUSH1 0x0 DUP5 ISZERO PUSH2 0x2994 JUMPI DUP3 DUP8 ADD MLOAD SWAP1 POP JUMPDEST PUSH2 0x299E DUP6 DUP3 PUSH2 0x2920 JUMP JUMPDEST DUP7 SSTORE POP PUSH2 0x2A06 JUMP JUMPDEST PUSH1 0x1F NOT DUP5 AND PUSH2 0x29B4 DUP7 PUSH2 0x2790 JUMP JUMPDEST PUSH1 0x0 JUMPDEST DUP3 DUP2 LT ISZERO PUSH2 0x29DC JUMPI DUP5 DUP10 ADD MLOAD DUP3 SSTORE PUSH1 0x1 DUP3 ADD SWAP2 POP PUSH1 0x20 DUP6 ADD SWAP5 POP PUSH1 0x20 DUP2 ADD SWAP1 POP PUSH2 0x29B7 JUMP JUMPDEST DUP7 DUP4 LT ISZERO PUSH2 0x29F9 JUMPI DUP5 DUP10 ADD MLOAD PUSH2 0x29F5 PUSH1 0x1F DUP10 AND DUP3 PUSH2 0x2902 JUMP JUMPDEST DUP4 SSTORE POP JUMPDEST PUSH1 0x1 PUSH1 0x2 DUP9 MUL ADD DUP9 SSTORE POP POP POP JUMPDEST POP POP POP POP POP POP JUMP JUMPDEST PUSH1 0x0 PUSH2 0x2A19 DUP3 PUSH2 0x194F JUMP JUMPDEST SWAP2 POP PUSH2 0x2A24 DUP4 PUSH2 0x194F JUMP JUMPDEST SWAP3 POP DUP3 DUP3 ADD SWAP1 POP DUP1 DUP3 GT ISZERO PUSH2 0x2A3C JUMPI PUSH2 0x2A3B PUSH2 0x24DA JUMP JUMPDEST JUMPDEST SWAP3 SWAP2 POP POP JUMP JUMPDEST PUSH1 0x0 DUP3 SWAP1 POP SWAP3 SWAP2 POP POP JUMP JUMPDEST PUSH2 0x2A57 DUP4 DUP4 PUSH2 0x2A42 JUMP JUMPDEST PUSH8 0xFFFFFFFFFFFFFFFF DUP2 GT ISZERO PUSH2 0x2A70 JUMPI PUSH2 0x2A6F PUSH2 0x19B2 JUMP JUMPDEST JUMPDEST PUSH2 0x2A7A DUP3 SLOAD PUSH2 0x24A9 JUMP JUMPDEST PUSH2 0x2A85 DUP3 DUP3 DUP6 PUSH2 0x28AF JUMP JUMPDEST PUSH1 0x0 PUSH1 0x1F DUP4 GT PUSH1 0x1 DUP2 EQ PUSH2 0x2AB4 JUMPI PUSH1 0x0 DUP5 ISZERO PUSH2 0x2AA2 JUMPI DUP3 DUP8 ADD CALLDATALOAD SWAP1 POP JUMPDEST PUSH2 0x2AAC DUP6 DUP3 PUSH2 0x2920 JUMP JUMPDEST DUP7 SSTORE POP PUSH2 0x2B14 JUMP JUMPDEST PUSH1 0x1F NOT DUP5 AND PUSH2 0x2AC2 DUP7 PUSH2 0x2790 JUMP JUMPDEST PUSH1 0x0 JUMPDEST DUP3 DUP2 LT ISZERO PUSH2 0x2AEA JUMPI DUP5 DUP10 ADD CALLDATALOAD DUP3 SSTORE PUSH1 0x1 DUP3 ADD SWAP2 POP PUSH1 0x20 DUP6 ADD SWAP5 POP PUSH1 0x20 DUP2 ADD SWAP1 POP PUSH2 0x2AC5 JUMP JUMPDEST DUP7 DUP4 LT ISZERO PUSH2 0x2B07 JUMPI DUP5 DUP10 ADD CALLDATALOAD PUSH2 0x2B03 PUSH1 0x1F DUP10 AND DUP3 PUSH2 0x2902 JUMP JUMPDEST DUP4 SSTORE POP JUMPDEST PUSH1 0x1 PUSH1 0x2 DUP9 MUL ADD DUP9 SSTORE POP POP POP JUMPDEST POP POP POP POP POP POP POP JUMP JUMPDEST PUSH32 0x4E6F7420746865206F776E6572206F66207468697320706F736974696F6E0000 PUSH1 0x0 DUP3 ADD MSTORE POP JUMP JUMPDEST PUSH1 0x0 PUSH2 0x2B53 PUSH1 0x1E DUP4 PUSH2 0x1B31 JUMP JUMPDEST SWAP2 POP PUSH2 0x2B5E DUP3 PUSH2 0x2B1D JUMP JUMPDEST PUSH1 0x20 DUP3 ADD SWAP1 POP SWAP2 SWAP1 POP JUMP JUMPDEST PUSH1 0x0 PUSH1 0x20 DUP3 ADD SWAP1 POP DUP2 DUP2 SUB PUSH1 0x0 DUP4 ADD MSTORE PUSH2 0x2B82 DUP2 PUSH2 0x2B46 JUMP JUMPDEST SWAP1 POP SWAP2 SWAP1 POP JUMP JUMPDEST PUSH32 0x506F736974696F6E20416C726561647920636C6F736564000000000000000000 PUSH1 0x0 DUP3 ADD MSTORE POP JUMP JUMPDEST PUSH1 0x0 PUSH2 0x2BBF PUSH1 0x17 DUP4 PUSH2 0x1B31 JUMP JUMPDEST SWAP2 POP PUSH2 0x2BCA DUP3 PUSH2 0x2B89 JUMP JUMPDEST PUSH1 0x20 DUP3 ADD SWAP1 POP SWAP2 SWAP1 POP JUMP JUMPDEST PUSH1 0x0 PUSH1 0x20 DUP3 ADD SWAP1 POP DUP2 DUP2 SUB PUSH1 0x0 DUP4 ADD MSTORE PUSH2 0x2BEE DUP2 PUSH2 0x2BB2 JUMP JUMPDEST SWAP1 POP SWAP2 SWAP1 POP JUMP JUMPDEST PUSH1 0x0 DUP2 SLOAD PUSH2 0x2C02 DUP2 PUSH2 0x24A9 JUMP JUMPDEST PUSH2 0x2C0C DUP2 DUP7 PUSH2 0x264B JUMP JUMPDEST SWAP5 POP PUSH1 0x1 DUP3 AND PUSH1 0x0 DUP2 EQ PUSH2 0x2C27 JUMPI PUSH1 0x1 DUP2 EQ PUSH2 0x2C3C JUMPI PUSH2 0x2C6F JUMP JUMPDEST PUSH1 0xFF NOT DUP4 AND DUP7 MSTORE DUP2 ISZERO ISZERO DUP3 MUL DUP7 ADD SWAP4 POP PUSH2 0x2C6F JUMP JUMPDEST PUSH2 0x2C45 DUP6 PUSH2 0x2790 JUMP JUMPDEST PUSH1 0x0 JUMPDEST DUP4 DUP2 LT ISZERO PUSH2 0x2C67 JUMPI DUP2 SLOAD DUP2 DUP10 ADD MSTORE PUSH1 0x1 DUP3 ADD SWAP2 POP PUSH1 0x20 DUP2 ADD SWAP1 POP PUSH2 0x2C48 JUMP JUMPDEST DUP4 DUP9 ADD SWAP6 POP POP POP JUMPDEST POP POP POP SWAP3 SWAP2 POP POP JUMP JUMPDEST PUSH1 0x0 PUSH2 0x2C84 DUP3 DUP5 PUSH2 0x2BF5 JUMP JUMPDEST SWAP2 POP DUP2 SWAP1 POP SWAP3 SWAP2 POP POP JUMP JUMPDEST PUSH1 0x0 PUSH1 0x40 DUP3 ADD SWAP1 POP PUSH2 0x2CA4 PUSH1 0x0 DUP4 ADD DUP6 PUSH2 0x1BD7 JUMP JUMPDEST PUSH2 0x2CB1 PUSH1 0x20 DUP4 ADD DUP5 PUSH2 0x1959 JUMP JUMPDEST SWAP4 SWAP3 POP POP POP JUMP INVALID LOG2 PUSH5 0x6970667358 0x22 SLT KECCAK256 0xCA 0x26 PUSH3 0x3D2885 0xB7 0xC3 SGT 0xD2 SWAP12 MSTORE CODECOPY COINBASE SMOD GAS DUP2 TIMESTAMP 0x25 PUSH6 0xC21095E8C6D0 BYTE BLOCKHASH 0xE2 DUP1 0xC2 ADD PUSH5 0x736F6C6343 STOP ADDMOD GT STOP CALLER "},"methodIdentifiers":{"addToken(string,string,address,uint256,uint256)":"94b308ab","calculateInterest(uint256,uint256,uint256)":"05e1bd8c","calculateNumberDays(uint256)":"2406b5c0","closePosition(uint256)":"a126d601","currentPositionId()":"1131c8cd","currentTokenId()":"009a9b7b","ethUsdPrice()":"9478ab8c","getPositionById(uint256)":"b838ec86","getPositionIdsForAddress()":"4b4ea954","getToken(string)":"c1733f68","getTokenSymbols()":"05b93816","modifyCreatedDate(uint256,uint256)":"27f70655","owner()":"8da5cb5b","positionIdsByAddress(address,uint256)":"45eae373","positions(uint256)":"99fbab88","stakeTokens(string,uint256)":"71d772ca","stakedTokens(string)":"c41cc502","tokenSymbols(uint256)":"6e7ddea8","tokens(string)":"04c2320b"}}}}}