{
  "_format": "hh-sol-artifact-1",
  "contractName": "Staking",
  "sourceName": "contracts/Staking.sol",
  "abi": [
    {
      "inputs": [
        {
          "internalType": "uint256",
          "name": "currentEthPrice",
          "type": "uint256"
        }
      ],
      "stateMutability": "payable",
      "type": "constructor"
    },
    {
      "inputs": [
        {
          "internalType": "string",
          "name": "name",
          "type": "string"
        },
        {
          "internalType": "string",
          "name": "symbol",
          "type": "string"
        },
        {
          "internalType": "address",
          "name": "tokenAddress",
          "type": "address"
        },
        {
          "internalType": "uint256",
          "name": "usdPrice",
          "type": "uint256"
        },
        {
          "internalType": "uint256",
          "name": "apy",
          "type": "uint256"
        }
      ],
      "name": "addToken",
      "outputs": [],
      "stateMutability": "nonpayable",
      "type": "function"
    },
    {
      "inputs": [
        {
          "internalType": "uint256",
          "name": "apy",
          "type": "uint256"
        },
        {
          "internalType": "uint256",
          "name": "value",
          "type": "uint256"
        },
        {
          "internalType": "uint256",
          "name": "numberDays",
          "type": "uint256"
        }
      ],
      "name": "calculateInterest",
      "outputs": [
        {
          "internalType": "uint256",
          "name": "",
          "type": "uint256"
        }
      ],
      "stateMutability": "pure",
      "type": "function"
    },
    {
      "inputs": [
        {
          "internalType": "uint256",
          "name": "createdDate",
          "type": "uint256"
        }
      ],
      "name": "calculateNumberDays",
      "outputs": [
        {
          "internalType": "uint256",
          "name": "",
          "type": "uint256"
        }
      ],
      "stateMutability": "view",
      "type": "function"
    },
    {
      "inputs": [
        {
          "internalType": "uint256",
          "name": "positionId",
          "type": "uint256"
        }
      ],
      "name": "closePosition",
      "outputs": [],
      "stateMutability": "nonpayable",
      "type": "function"
    },
    {
      "inputs": [],
      "name": "currentPositionId",
      "outputs": [
        {
          "internalType": "uint256",
          "name": "",
          "type": "uint256"
        }
      ],
      "stateMutability": "view",
      "type": "function"
    },
    {
      "inputs": [],
      "name": "currentTokenId",
      "outputs": [
        {
          "internalType": "uint256",
          "name": "",
          "type": "uint256"
        }
      ],
      "stateMutability": "view",
      "type": "function"
    },
    {
      "inputs": [],
      "name": "ethUsdPrice",
      "outputs": [
        {
          "internalType": "uint256",
          "name": "",
          "type": "uint256"
        }
      ],
      "stateMutability": "view",
      "type": "function"
    },
    {
      "inputs": [
        {
          "internalType": "uint256",
          "name": "positionId",
          "type": "uint256"
        }
      ],
      "name": "getPositionById",
      "outputs": [
        {
          "components": [
            {
              "internalType": "uint256",
              "name": "positionId",
              "type": "uint256"
            },
            {
              "internalType": "address",
              "name": "walletAddress",
              "type": "address"
            },
            {
              "internalType": "string",
              "name": "symbol",
              "type": "string"
            },
            {
              "internalType": "string",
              "name": "name",
              "type": "string"
            },
            {
              "internalType": "uint256",
              "name": "createdDate",
              "type": "uint256"
            },
            {
              "internalType": "uint256",
              "name": "apy",
              "type": "uint256"
            },
            {
              "internalType": "uint256",
              "name": "tokenQuantity",
              "type": "uint256"
            },
            {
              "internalType": "uint256",
              "name": "usdValue",
              "type": "uint256"
            },
            {
              "internalType": "uint256",
              "name": "ethValue",
              "type": "uint256"
            },
            {
              "internalType": "bool",
              "name": "open",
              "type": "bool"
            }
          ],
          "internalType": "struct Staking.Position",
          "name": "",
          "type": "tuple"
        }
      ],
      "stateMutability": "view",
      "type": "function"
    },
    {
      "inputs": [],
      "name": "getPositionIdsForAddress",
      "outputs": [
        {
          "internalType": "uint256[]",
          "name": "",
          "type": "uint256[]"
        }
      ],
      "stateMutability": "view",
      "type": "function"
    },
    {
      "inputs": [
        {
          "internalType": "string",
          "name": "tokenSymbol",
          "type": "string"
        }
      ],
      "name": "getToken",
      "outputs": [
        {
          "components": [
            {
              "internalType": "uint256",
              "name": "tokenId",
              "type": "uint256"
            },
            {
              "internalType": "string",
              "name": "name",
              "type": "string"
            },
            {
              "internalType": "string",
              "name": "symbol",
              "type": "string"
            },
            {
              "internalType": "address",
              "name": "tokenAddress",
              "type": "address"
            },
            {
              "internalType": "uint256",
              "name": "usdPrice",
              "type": "uint256"
            },
            {
              "internalType": "uint256",
              "name": "ethPrice",
              "type": "uint256"
            },
            {
              "internalType": "uint256",
              "name": "apy",
              "type": "uint256"
            }
          ],
          "internalType": "struct Staking.Token",
          "name": "",
          "type": "tuple"
        }
      ],
      "stateMutability": "view",
      "type": "function"
    },
    {
      "inputs": [],
      "name": "getTokenSymbols",
      "outputs": [
        {
          "internalType": "string[]",
          "name": "",
          "type": "string[]"
        }
      ],
      "stateMutability": "view",
      "type": "function"
    },
    {
      "inputs": [
        {
          "internalType": "uint256",
          "name": "positionId",
          "type": "uint256"
        },
        {
          "internalType": "uint256",
          "name": "newCreatedDate",
          "type": "uint256"
        }
      ],
      "name": "modifyCreatedDate",
      "outputs": [],
      "stateMutability": "nonpayable",
      "type": "function"
    },
    {
      "inputs": [],
      "name": "owner",
      "outputs": [
        {
          "internalType": "address",
          "name": "",
          "type": "address"
        }
      ],
      "stateMutability": "view",
      "type": "function"
    },
    {
      "inputs": [
        {
          "internalType": "address",
          "name": "",
          "type": "address"
        },
        {
          "internalType": "uint256",
          "name": "",
          "type": "uint256"
        }
      ],
      "name": "positionIdsByAddress",
      "outputs": [
        {
          "internalType": "uint256",
          "name": "",
          "type": "uint256"
        }
      ],
      "stateMutability": "view",
      "type": "function"
    },
    {
      "inputs": [
        {
          "internalType": "uint256",
          "name": "",
          "type": "uint256"
        }
      ],
      "name": "positions",
      "outputs": [
        {
          "internalType": "uint256",
          "name": "positionId",
          "type": "uint256"
        },
        {
          "internalType": "address",
          "name": "walletAddress",
          "type": "address"
        },
        {
          "internalType": "string",
          "name": "symbol",
          "type": "string"
        },
        {
          "internalType": "string",
          "name": "name",
          "type": "string"
        },
        {
          "internalType": "uint256",
          "name": "createdDate",
          "type": "uint256"
        },
        {
          "internalType": "uint256",
          "name": "apy",
          "type": "uint256"
        },
        {
          "internalType": "uint256",
          "name": "tokenQuantity",
          "type": "uint256"
        },
        {
          "internalType": "uint256",
          "name": "usdValue",
          "type": "uint256"
        },
        {
          "internalType": "uint256",
          "name": "ethValue",
          "type": "uint256"
        },
        {
          "internalType": "bool",
          "name": "open",
          "type": "bool"
        }
      ],
      "stateMutability": "view",
      "type": "function"
    },
    {
      "inputs": [
        {
          "internalType": "string",
          "name": "symbol",
          "type": "string"
        },
        {
          "internalType": "uint256",
          "name": "tokenQuantity",
          "type": "uint256"
        }
      ],
      "name": "stakeTokens",
      "outputs": [],
      "stateMutability": "nonpayable",
      "type": "function"
    },
    {
      "inputs": [
        {
          "internalType": "string",
          "name": "",
          "type": "string"
        }
      ],
      "name": "stakedTokens",
      "outputs": [
        {
          "internalType": "uint256",
          "name": "",
          "type": "uint256"
        }
      ],
      "stateMutability": "view",
      "type": "function"
    },
    {
      "inputs": [
        {
          "internalType": "uint256",
          "name": "",
          "type": "uint256"
        }
      ],
      "name": "tokenSymbols",
      "outputs": [
        {
          "internalType": "string",
          "name": "",
          "type": "string"
        }
      ],
      "stateMutability": "view",
      "type": "function"
    },
    {
      "inputs": [
        {
          "internalType": "string",
          "name": "",
          "type": "string"
        }
      ],
      "name": "tokens",
      "outputs": [
        {
          "internalType": "uint256",
          "name": "tokenId",
          "type": "uint256"
        },
        {
          "internalType": "string",
          "name": "name",
          "type": "string"
        },
        {
          "internalType": "string",
          "name": "symbol",
          "type": "string"
        },
        {
          "internalType": "address",
          "name": "tokenAddress",
          "type": "address"
        },
        {
          "internalType": "uint256",
          "name": "usdPrice",
          "type": "uint256"
        },
        {
          "internalType": "uint256",
          "name": "ethPrice",
          "type": "uint256"
        },
        {
          "internalType": "uint256",
          "name": "apy",
          "type": "uint256"
        }
      ],
      "stateMutability": "view",
      "type": "function"
    }
  ],
  "bytecode": "0x608060405260018055600160055560405162002df038038062002df08339818101604052810190620000329190620000c0565b80600281905550336000806101000a81548173ffffffffffffffffffffffffffffffffffffffff021916908373ffffffffffffffffffffffffffffffffffffffff16021790555050620000f2565b600080fd5b6000819050919050565b6200009a8162000085565b8114620000a657600080fd5b50565b600081519050620000ba816200008f565b92915050565b600060208284031215620000d957620000d862000080565b5b6000620000e984828501620000a9565b91505092915050565b612cee80620001026000396000f3fe608060405234801561001057600080fd5b50600436106101205760003560e01c80636e7ddea8116100ad57806399fbab881161007157806399fbab8814610323578063a126d6011461035c578063b838ec8614610378578063c1733f68146103a8578063c41cc502146103d857610120565b80636e7ddea81461027f57806371d772ca146102af5780638da5cb5b146102cb5780639478ab8c146102e957806394b308ab1461030757610120565b80631131c8cd116100f45780631131c8cd146101c75780632406b5c0146101e557806327f706551461021557806345eae373146102315780634b4ea9541461026157610120565b80629a9b7b1461012557806304c2320b1461014357806305b938161461017957806305e1bd8c14610197575b600080fd5b61012d610408565b60405161013a9190611968565b60405180910390f35b61015d60048036038101906101589190611add565b61040e565b6040516101709796959493929190611be6565b60405180910390f35b610181610596565b60405161018e9190611d6f565b60405180910390f35b6101b160048036038101906101ac9190611dbd565b61066f565b6040516101be9190611968565b60405180910390f35b6101cf6106ab565b6040516101dc9190611968565b60405180910390f35b6101ff60048036038101906101fa9190611e10565b6106b1565b60405161020c9190611968565b60405180910390f35b61022f600480360381019061022a9190611e3d565b6106e9565b005b61024b60048036038101906102469190611ea9565b610796565b6040516102589190611968565b60405180910390f35b6102696107c7565b6040516102769190611fa7565b60405180910390f35b61029960048036038101906102949190611e10565b61085c565b6040516102a69190611fc9565b60405180910390f35b6102c960048036038101906102c4919061204b565b610908565b005b6102d3610db5565b6040516102e091906120ab565b60405180910390f35b6102f1610dd9565b6040516102fe9190611968565b60405180910390f35b610321600480360381019061031c91906120c6565b610ddf565b005b61033d60048036038101906103389190611e10565b61106b565b6040516103539a9998979695949392919061219d565b60405180910390f35b61037660048036038101906103719190611e10565b6111fc565b005b610392600480360381019061038d9190611e10565b611487565b60405161039f9190612346565b60405180910390f35b6103c260048036038101906103bd9190612368565b611686565b6040516103cf9190612458565b60405180910390f35b6103f260048036038101906103ed9190611add565b611863565b6040516103ff9190611968565b60405180910390f35b60015481565b60048180516020810182018051848252602083016020850120818352809550505050505060009150905080600001549080600101805461044d906124a9565b80601f0160208091040260200160405190810160405280929190818152602001828054610479906124a9565b80156104c65780601f1061049b576101008083540402835291602001916104c6565b820191906000526020600020905b8154815290600101906020018083116104a957829003601f168201915b5050505050908060020180546104db906124a9565b80601f0160208091040260200160405190810160405280929190818152602001828054610507906124a9565b80156105545780601f1061052957610100808354040283529160200191610554565b820191906000526020600020905b81548152906001019060200180831161053757829003601f168201915b5050505050908060030160009054906101000a900473ffffffffffffffffffffffffffffffffffffffff16908060040154908060050154908060060154905087565b60606003805480602002602001604051908101604052809291908181526020016000905b828210156106665783829060005260206000200180546105d9906124a9565b80601f0160208091040260200160405190810160405280929190818152602001828054610605906124a9565b80156106525780601f1061062757610100808354040283529160200191610652565b820191906000526020600020905b81548152906001019060200180831161063557829003601f168201915b5050505050815260200190600101906105ba565b50505050905090565b600061016d6103e88385876106849190612509565b61068e9190612509565b610698919061257a565b6106a2919061257a565b90509392505050565b60055481565b60006018603c8084426106c491906125ab565b6106ce919061257a565b6106d8919061257a565b6106e2919061257a565b9050919050565b3373ffffffffffffffffffffffffffffffffffffffff1660008054906101000a900473ffffffffffffffffffffffffffffffffffffffff1673ffffffffffffffffffffffffffffffffffffffff1614610777576040517f08c379a000000000000000000000000000000000000000000000000000000000815260040161076e9061262b565b60405180910390fd5b8060066000848152602001908152602001600020600401819055505050565b600760205281600052604060002081815481106107b257600080fd5b90600052602060002001600091509150505481565b6060600760003373ffffffffffffffffffffffffffffffffffffffff1673ffffffffffffffffffffffffffffffffffffffff16815260200190815260200160002080548060200260200160405190810160405280929190818152602001828054801561085257602002820191906000526020600020905b81548152602001906001019080831161083e575b5050505050905090565b6003818154811061086c57600080fd5b906000526020600020016000915090508054610887906124a9565b80601f01602080910402602001604051908101604052809291908181526020018280546108b3906124a9565b80156109005780601f106108d557610100808354040283529160200191610900565b820191906000526020600020905b8154815290600101906020018083116108e357829003601f168201915b505050505081565b60006004848460405161091c92919061267b565b9081526020016040518091039020600001540361096e576040517f08c379a0000000000000000000000000000000000000000000000000000000008152600401610965906126e0565b60405180910390fd5b6004838360405161098092919061267b565b908152602001604051809103902060030160009054906101000a900473ffffffffffffffffffffffffffffffffffffffff1673ffffffffffffffffffffffffffffffffffffffff166323b872dd3330846040518463ffffffff1660e01b81526004016109ee93929190612700565b6020604051808303816000875af1158015610a0d573d6000803e3d6000fd5b505050506040513d601f19601f82011682018060405250810190610a319190612763565b5060405180610140016040528060055481526020013373ffffffffffffffffffffffffffffffffffffffff16815260200160048585604051610a7492919061267b565b90815260200160405180910390206001018054610a90906124a9565b80601f0160208091040260200160405190810160405280929190818152602001828054610abc906124a9565b8015610b095780601f10610ade57610100808354040283529160200191610b09565b820191906000526020600020905b815481529060010190602001808311610aec57829003601f168201915b5050505050815260200184848080601f016020809104026020016040519081016040528093929190818152602001838380828437600081840152601f19601f82011690508083019250505050505050815260200142815260200160048585604051610b7592919061267b565b90815260200160405180910390206006015481526020018281526020018260048686604051610ba592919061267b565b908152602001604051809103902060040154610bc19190612509565b81526020016002548360048787604051610bdc92919061267b565b908152602001604051809103902060040154610bf89190612509565b610c02919061257a565b8152602001600115158152506006600060055481526020019081526020016000206000820151816000015560208201518160010160006101000a81548173ffffffffffffffffffffffffffffffffffffffff021916908373ffffffffffffffffffffffffffffffffffffffff1602179055506040820151816002019081610c89919061293c565b506060820151816003019081610c9f919061293c565b506080820151816004015560a0820151816005015560c0820151816006015560e0820151816007015561010082015181600801556101208201518160090160006101000a81548160ff021916908315150217905550905050600760003373ffffffffffffffffffffffffffffffffffffffff1673ffffffffffffffffffffffffffffffffffffffff1681526020019081526020016000206005549080600181540180825580915050600190039060005260206000200160009091909190915055600160056000828254610d729190612a0e565b925050819055508060088484604051610d8c92919061267b565b90815260200160405180910390206000828254610da99190612a0e565b92505081905550505050565b60008054906101000a900473ffffffffffffffffffffffffffffffffffffffff1681565b60025481565b3373ffffffffffffffffffffffffffffffffffffffff1660008054906101000a900473ffffffffffffffffffffffffffffffffffffffff1673ffffffffffffffffffffffffffffffffffffffff1614610e6d576040517f08c379a0000000000000000000000000000000000000000000000000000000008152600401610e649061262b565b60405180910390fd5b6003858590918060018154018082558091505060019003906000526020600020016000909192909192909192909192509182610eaa929190612a4d565b506040518060e00160405280600154815260200188888080601f016020809104026020016040519081016040528093929190818152602001838380828437600081840152601f19601f82011690508083019250505050505050815260200186868080601f016020809104026020016040519081016040528093929190818152602001838380828437600081840152601f19601f8201169050808301925050505050505081526020018473ffffffffffffffffffffffffffffffffffffffff16815260200183815260200160025484610f82919061257a565b81526020018281525060048686604051610f9d92919061267b565b9081526020016040518091039020600082015181600001556020820151816001019081610fca919061293c565b506040820151816002019081610fe0919061293c565b5060608201518160030160006101000a81548173ffffffffffffffffffffffffffffffffffffffff021916908373ffffffffffffffffffffffffffffffffffffffff1602179055506080820151816004015560a0820151816005015560c08201518160060155905050600180600082825461105b9190612a0e565b9250508190555050505050505050565b60066020528060005260406000206000915090508060000154908060010160009054906101000a900473ffffffffffffffffffffffffffffffffffffffff16908060020180546110ba906124a9565b80601f01602080910402602001604051908101604052809291908181526020018280546110e6906124a9565b80156111335780601f1061110857610100808354040283529160200191611133565b820191906000526020600020905b81548152906001019060200180831161111657829003601f168201915b505050505090806003018054611148906124a9565b80601f0160208091040260200160405190810160405280929190818152602001828054611174906124a9565b80156111c15780601f10611196576101008083540402835291602001916111c1565b820191906000526020600020905b8154815290600101906020018083116111a457829003601f168201915b5050505050908060040154908060050154908060060154908060070154908060080154908060090160009054906101000a900460ff1690508a565b3373ffffffffffffffffffffffffffffffffffffffff166006600083815260200190815260200160002060010160009054906101000a900473ffffffffffffffffffffffffffffffffffffffff1673ffffffffffffffffffffffffffffffffffffffff16146112a0576040517f08c379a000000000000000000000000000000000000000000000000000000000815260040161129790612b69565b60405180910390fd5b600115156006600083815260200190815260200160002060090160009054906101000a900460ff1615151461130a576040517f08c379a000000000000000000000000000000000000000000000000000000000815260040161130190612bd5565b60405180910390fd5b60006006600083815260200190815260200160002060090160006101000a81548160ff02191690831515021790555060046006600083815260200190815260200160002060020160405161135e9190612c78565b908152602001604051809103902060030160009054906101000a900473ffffffffffffffffffffffffffffffffffffffff1673ffffffffffffffffffffffffffffffffffffffff1663a9059cbb3360066000858152602001908152602001600020600601546040518363ffffffff1660e01b81526004016113e0929190612c8f565b6020604051808303816000875af11580156113ff573d6000803e3d6000fd5b505050506040513d601f19601f820116820180604052508101906114239190612763565b50600061144560066000848152602001908152602001600020600401546106b1565b90506000611480600660008581526020019081526020016000206005015460066000868152602001908152602001600020600801548461066f565b9050505050565b61148f611891565b6006600083815260200190815260200160002060405180610140016040529081600082015481526020016001820160009054906101000a900473ffffffffffffffffffffffffffffffffffffffff1673ffffffffffffffffffffffffffffffffffffffff1673ffffffffffffffffffffffffffffffffffffffff16815260200160028201805461151e906124a9565b80601f016020809104026020016040519081016040528092919081815260200182805461154a906124a9565b80156115975780601f1061156c57610100808354040283529160200191611597565b820191906000526020600020905b81548152906001019060200180831161157a57829003601f168201915b505050505081526020016003820180546115b0906124a9565b80601f01602080910402602001604051908101604052809291908181526020018280546115dc906124a9565b80156116295780601f106115fe57610100808354040283529160200191611629565b820191906000526020600020905b81548152906001019060200180831161160c57829003601f168201915b5050505050815260200160048201548152602001600582015481526020016006820154815260200160078201548152602001600882015481526020016009820160009054906101000a900460ff1615151515815250509050919050565b61168e6118fc565b600483836040516116a092919061267b565b90815260200160405180910390206040518060e0016040529081600082015481526020016001820180546116d3906124a9565b80601f01602080910402602001604051908101604052809291908181526020018280546116ff906124a9565b801561174c5780601f106117215761010080835404028352916020019161174c565b820191906000526020600020905b81548152906001019060200180831161172f57829003601f168201915b50505050508152602001600282018054611765906124a9565b80601f0160208091040260200160405190810160405280929190818152602001828054611791906124a9565b80156117de5780601f106117b3576101008083540402835291602001916117de565b820191906000526020600020905b8154815290600101906020018083116117c157829003601f168201915b505050505081526020016003820160009054906101000a900473ffffffffffffffffffffffffffffffffffffffff1673ffffffffffffffffffffffffffffffffffffffff1673ffffffffffffffffffffffffffffffffffffffff1681526020016004820154815260200160058201548152602001600682015481525050905092915050565b6008818051602081018201805184825260208301602085012081835280955050505050506000915090505481565b60405180610140016040528060008152602001600073ffffffffffffffffffffffffffffffffffffffff168152602001606081526020016060815260200160008152602001600081526020016000815260200160008152602001600081526020016000151581525090565b6040518060e00160405280600081526020016060815260200160608152602001600073ffffffffffffffffffffffffffffffffffffffff1681526020016000815260200160008152602001600081525090565b6000819050919050565b6119628161194f565b82525050565b600060208201905061197d6000830184611959565b92915050565b6000604051905090565b600080fd5b600080fd5b600080fd5b600080fd5b6000601f19601f8301169050919050565b7f4e487b7100000000000000000000000000000000000000000000000000000000600052604160045260246000fd5b6119ea826119a1565b810181811067ffffffffffffffff82111715611a0957611a086119b2565b5b80604052505050565b6000611a1c611983565b9050611a2882826119e1565b919050565b600067ffffffffffffffff821115611a4857611a476119b2565b5b611a51826119a1565b9050602081019050919050565b82818337600083830152505050565b6000611a80611a7b84611a2d565b611a12565b905082815260208101848484011115611a9c57611a9b61199c565b5b611aa7848285611a5e565b509392505050565b600082601f830112611ac457611ac3611997565b5b8135611ad4848260208601611a6d565b91505092915050565b600060208284031215611af357611af261198d565b5b600082013567ffffffffffffffff811115611b1157611b10611992565b5b611b1d84828501611aaf565b91505092915050565b600081519050919050565b600082825260208201905092915050565b60005b83811015611b60578082015181840152602081019050611b45565b60008484015250505050565b6000611b7782611b26565b611b818185611b31565b9350611b91818560208601611b42565b611b9a816119a1565b840191505092915050565b600073ffffffffffffffffffffffffffffffffffffffff82169050919050565b6000611bd082611ba5565b9050919050565b611be081611bc5565b82525050565b600060e082019050611bfb600083018a611959565b8181036020830152611c0d8189611b6c565b90508181036040830152611c218188611b6c565b9050611c306060830187611bd7565b611c3d6080830186611959565b611c4a60a0830185611959565b611c5760c0830184611959565b98975050505050505050565b600081519050919050565b600082825260208201905092915050565b6000819050602082019050919050565b600082825260208201905092915050565b6000611cab82611b26565b611cb58185611c8f565b9350611cc5818560208601611b42565b611cce816119a1565b840191505092915050565b6000611ce58383611ca0565b905092915050565b6000602082019050919050565b6000611d0582611c63565b611d0f8185611c6e565b935083602082028501611d2185611c7f565b8060005b85811015611d5d5784840389528151611d3e8582611cd9565b9450611d4983611ced565b925060208a01995050600181019050611d25565b50829750879550505050505092915050565b60006020820190508181036000830152611d898184611cfa565b905092915050565b611d9a8161194f565b8114611da557600080fd5b50565b600081359050611db781611d91565b92915050565b600080600060608486031215611dd657611dd561198d565b5b6000611de486828701611da8565b9350506020611df586828701611da8565b9250506040611e0686828701611da8565b9150509250925092565b600060208284031215611e2657611e2561198d565b5b6000611e3484828501611da8565b91505092915050565b60008060408385031215611e5457611e5361198d565b5b6000611e6285828601611da8565b9250506020611e7385828601611da8565b9150509250929050565b611e8681611bc5565b8114611e9157600080fd5b50565b600081359050611ea381611e7d565b92915050565b60008060408385031215611ec057611ebf61198d565b5b6000611ece85828601611e94565b9250506020611edf85828601611da8565b9150509250929050565b600081519050919050565b600082825260208201905092915050565b6000819050602082019050919050565b611f1e8161194f565b82525050565b6000611f308383611f15565b60208301905092915050565b6000602082019050919050565b6000611f5482611ee9565b611f5e8185611ef4565b9350611f6983611f05565b8060005b83811015611f9a578151611f818882611f24565b9750611f8c83611f3c565b925050600181019050611f6d565b5085935050505092915050565b60006020820190508181036000830152611fc18184611f49565b905092915050565b60006020820190508181036000830152611fe38184611b6c565b905092915050565b600080fd5b600080fd5b60008083601f84011261200b5761200a611997565b5b8235905067ffffffffffffffff81111561202857612027611feb565b5b60208301915083600182028301111561204457612043611ff0565b5b9250929050565b6000806000604084860312156120645761206361198d565b5b600084013567ffffffffffffffff81111561208257612081611992565b5b61208e86828701611ff5565b935093505060206120a186828701611da8565b9150509250925092565b60006020820190506120c06000830184611bd7565b92915050565b600080600080600080600060a0888a0312156120e5576120e461198d565b5b600088013567ffffffffffffffff81111561210357612102611992565b5b61210f8a828b01611ff5565b9750975050602088013567ffffffffffffffff81111561213257612131611992565b5b61213e8a828b01611ff5565b955095505060406121518a828b01611e94565b93505060606121628a828b01611da8565b92505060806121738a828b01611da8565b91505092959891949750929550565b60008115159050919050565b61219781612182565b82525050565b6000610140820190506121b3600083018d611959565b6121c0602083018c611bd7565b81810360408301526121d2818b611b6c565b905081810360608301526121e6818a611b6c565b90506121f56080830189611959565b61220260a0830188611959565b61220f60c0830187611959565b61221c60e0830186611959565b61222a610100830185611959565b61223861012083018461218e565b9b9a5050505050505050505050565b61225081611bc5565b82525050565b61225f81612182565b82525050565b60006101408301600083015161227e6000860182611f15565b5060208301516122916020860182612247565b50604083015184820360408601526122a98282611ca0565b915050606083015184820360608601526122c38282611ca0565b91505060808301516122d86080860182611f15565b5060a08301516122eb60a0860182611f15565b5060c08301516122fe60c0860182611f15565b5060e083015161231160e0860182611f15565b50610100830151612326610100860182611f15565b5061012083015161233b610120860182612256565b508091505092915050565b600060208201905081810360008301526123608184612265565b905092915050565b6000806020838503121561237f5761237e61198d565b5b600083013567ffffffffffffffff81111561239d5761239c611992565b5b6123a985828601611ff5565b92509250509250929050565b600060e0830160008301516123cd6000860182611f15565b50602083015184820360208601526123e58282611ca0565b915050604083015184820360408601526123ff8282611ca0565b91505060608301516124146060860182612247565b5060808301516124276080860182611f15565b5060a083015161243a60a0860182611f15565b5060c083015161244d60c0860182611f15565b508091505092915050565b6000602082019050818103600083015261247281846123b5565b905092915050565b7f4e487b7100000000000000000000000000000000000000000000000000000000600052602260045260246000fd5b600060028204905060018216806124c157607f821691505b6020821081036124d4576124d361247a565b5b50919050565b7f4e487b7100000000000000000000000000000000000000000000000000000000600052601160045260246000fd5b60006125148261194f565b915061251f8361194f565b925082820261252d8161194f565b91508282048414831517612544576125436124da565b5b5092915050565b7f4e487b7100000000000000000000000000000000000000000000000000000000600052601260045260246000fd5b60006125858261194f565b91506125908361194f565b9250826125a05761259f61254b565b5b828204905092915050565b60006125b68261194f565b91506125c18361194f565b92508282039050818111156125d9576125d86124da565b5b92915050565b7f6f6e6c79206f776e65722063616e2072756e207468697320636f6e7472616374600082015250565b6000612615602083611b31565b9150612620826125df565b602082019050919050565b6000602082019050818103600083015261264481612608565b9050919050565b600081905092915050565b6000612662838561264b565b935061266f838584611a5e565b82840190509392505050565b6000612688828486612656565b91508190509392505050565b7f5468697320746f6b656e2063616e6e6f74206265207374616b65640000000000600082015250565b60006126ca601b83611b31565b91506126d582612694565b602082019050919050565b600060208201905081810360008301526126f9816126bd565b9050919050565b60006060820190506127156000830186611bd7565b6127226020830185611bd7565b61272f6040830184611959565b949350505050565b61274081612182565b811461274b57600080fd5b50565b60008151905061275d81612737565b92915050565b6000602082840312156127795761277861198d565b5b60006127878482850161274e565b91505092915050565b60008190508160005260206000209050919050565b60006020601f8301049050919050565b600082821b905092915050565b6000600883026127f27fffffffffffffffffffffffffffffffffffffffffffffffffffffffffffffffff826127b5565b6127fc86836127b5565b95508019841693508086168417925050509392505050565b6000819050919050565b600061283961283461282f8461194f565b612814565b61194f565b9050919050565b6000819050919050565b6128538361281e565b61286761285f82612840565b8484546127c2565b825550505050565b600090565b61287c61286f565b61288781848461284a565b505050565b5b818110156128ab576128a0600082612874565b60018101905061288d565b5050565b601f8211156128f0576128c181612790565b6128ca846127a5565b810160208510156128d9578190505b6128ed6128e5856127a5565b83018261288c565b50505b505050565b600082821c905092915050565b6000612913600019846008026128f5565b1980831691505092915050565b600061292c8383612902565b9150826002028217905092915050565b61294582611b26565b67ffffffffffffffff81111561295e5761295d6119b2565b5b61296882546124a9565b6129738282856128af565b600060209050601f8311600181146129a65760008415612994578287015190505b61299e8582612920565b865550612a06565b601f1984166129b486612790565b60005b828110156129dc578489015182556001820191506020850194506020810190506129b7565b868310156129f957848901516129f5601f891682612902565b8355505b6001600288020188555050505b505050505050565b6000612a198261194f565b9150612a248361194f565b9250828201905080821115612a3c57612a3b6124da565b5b92915050565b600082905092915050565b612a578383612a42565b67ffffffffffffffff811115612a7057612a6f6119b2565b5b612a7a82546124a9565b612a858282856128af565b6000601f831160018114612ab45760008415612aa2578287013590505b612aac8582612920565b865550612b14565b601f198416612ac286612790565b60005b82811015612aea57848901358255600182019150602085019450602081019050612ac5565b86831015612b075784890135612b03601f891682612902565b8355505b6001600288020188555050505b50505050505050565b7f4e6f7420746865206f776e6572206f66207468697320706f736974696f6e0000600082015250565b6000612b53601e83611b31565b9150612b5e82612b1d565b602082019050919050565b60006020820190508181036000830152612b8281612b46565b9050919050565b7f506f736974696f6e20416c726561647920636c6f736564000000000000000000600082015250565b6000612bbf601783611b31565b9150612bca82612b89565b602082019050919050565b60006020820190508181036000830152612bee81612bb2565b9050919050565b60008154612c02816124a9565b612c0c818661264b565b94506001821660008114612c275760018114612c3c57612c6f565b60ff1983168652811515820286019350612c6f565b612c4585612790565b60005b83811015612c6757815481890152600182019150602081019050612c48565b838801955050505b50505092915050565b6000612c848284612bf5565b915081905092915050565b6000604082019050612ca46000830185611bd7565b612cb16020830184611959565b939250505056fea2646970667358221220ca26623d2885b7c313d29b523941075a81422565c21095e8c6d01a40e280c20164736f6c63430008110033",
  "linkReferences": {},
  "deployedLinkReferences": {}
}