{
  "_format": "hh-sol-artifact-1",
  "contractName": "Staking",
  "sourceName": "contracts/Staking.sol",
  "abi": [
    {
      "inputs": [
        {
          "internalType": "uint256",
          "name": "currentEthPrice",
          "type": "uint256"
        }
      ],
      "stateMutability": "payable",
      "type": "constructor"
    },
    {
      "inputs": [
        {
          "internalType": "string",
          "name": "name",
          "type": "string"
        },
        {
          "internalType": "string",
          "name": "symbol",
          "type": "string"
        },
        {
          "internalType": "address",
          "name": "tokenAddress",
          "type": "address"
        },
        {
          "internalType": "uint256",
          "name": "apy",
          "type": "uint256"
        }
      ],
      "name": "addToken",
      "outputs": [],
      "stateMutability": "nonpayable",
      "type": "function"
    },
    {
      "inputs": [
        {
          "internalType": "uint256",
          "name": "apy",
          "type": "uint256"
        },
        {
          "internalType": "uint256",
          "name": "numberDays",
          "type": "uint256"
        }
      ],
      "name": "calculateInterest",
      "outputs": [
        {
          "internalType": "uint256",
          "name": "",
          "type": "uint256"
        }
      ],
      "stateMutability": "pure",
      "type": "function"
    },
    {
      "inputs": [
        {
          "internalType": "uint256",
          "name": "createdDate",
          "type": "uint256"
        }
      ],
      "name": "calculateNumberDays",
      "outputs": [
        {
          "internalType": "uint256",
          "name": "",
          "type": "uint256"
        }
      ],
      "stateMutability": "view",
      "type": "function"
    },
    {
      "inputs": [
        {
          "internalType": "uint256",
          "name": "positionId",
          "type": "uint256"
        }
      ],
      "name": "closePosition",
      "outputs": [],
      "stateMutability": "nonpayable",
      "type": "function"
    },
    {
      "inputs": [],
      "name": "currentPositionId",
      "outputs": [
        {
          "internalType": "uint256",
          "name": "",
          "type": "uint256"
        }
      ],
      "stateMutability": "view",
      "type": "function"
    },
    {
      "inputs": [],
      "name": "currentTokenId",
      "outputs": [
        {
          "internalType": "uint256",
          "name": "",
          "type": "uint256"
        }
      ],
      "stateMutability": "view",
      "type": "function"
    },
    {
      "inputs": [],
      "name": "ethUsdPrice",
      "outputs": [
        {
          "internalType": "uint256",
          "name": "",
          "type": "uint256"
        }
      ],
      "stateMutability": "view",
      "type": "function"
    },
    {
      "inputs": [
        {
          "internalType": "uint256",
          "name": "positionId",
          "type": "uint256"
        }
      ],
      "name": "getPositionById",
      "outputs": [
        {
          "components": [
            {
              "internalType": "uint256",
              "name": "positionId",
              "type": "uint256"
            },
            {
              "internalType": "address",
              "name": "walletAddress",
              "type": "address"
            },
            {
              "internalType": "string",
              "name": "symbol",
              "type": "string"
            },
            {
              "internalType": "string",
              "name": "name",
              "type": "string"
            },
            {
              "internalType": "uint256",
              "name": "createdDate",
              "type": "uint256"
            },
            {
              "internalType": "uint256",
              "name": "apy",
              "type": "uint256"
            },
            {
              "internalType": "uint256",
              "name": "tokenQuantity",
              "type": "uint256"
            },
            {
              "internalType": "bool",
              "name": "open",
              "type": "bool"
            }
          ],
          "internalType": "struct Staking.Position",
          "name": "",
          "type": "tuple"
        }
      ],
      "stateMutability": "view",
      "type": "function"
    },
    {
      "inputs": [],
      "name": "getPositionIdsForAddress",
      "outputs": [
        {
          "internalType": "uint256[]",
          "name": "",
          "type": "uint256[]"
        }
      ],
      "stateMutability": "view",
      "type": "function"
    },
    {
      "inputs": [
        {
          "internalType": "string",
          "name": "tokenSymbol",
          "type": "string"
        }
      ],
      "name": "getToken",
      "outputs": [
        {
          "components": [
            {
              "internalType": "uint256",
              "name": "tokenId",
              "type": "uint256"
            },
            {
              "internalType": "string",
              "name": "name",
              "type": "string"
            },
            {
              "internalType": "string",
              "name": "symbol",
              "type": "string"
            },
            {
              "internalType": "address",
              "name": "tokenAddress",
              "type": "address"
            },
            {
              "internalType": "uint256",
              "name": "apy",
              "type": "uint256"
            }
          ],
          "internalType": "struct Staking.Token",
          "name": "",
          "type": "tuple"
        }
      ],
      "stateMutability": "view",
      "type": "function"
    },
    {
      "inputs": [],
      "name": "getTokenSymbols",
      "outputs": [
        {
          "internalType": "string[]",
          "name": "",
          "type": "string[]"
        }
      ],
      "stateMutability": "view",
      "type": "function"
    },
    {
      "inputs": [
        {
          "internalType": "uint256",
          "name": "positionId",
          "type": "uint256"
        },
        {
          "internalType": "uint256",
          "name": "newCreatedDate",
          "type": "uint256"
        }
      ],
      "name": "modifyCreatedDate",
      "outputs": [],
      "stateMutability": "nonpayable",
      "type": "function"
    },
    {
      "inputs": [],
      "name": "owner",
      "outputs": [
        {
          "internalType": "address",
          "name": "",
          "type": "address"
        }
      ],
      "stateMutability": "view",
      "type": "function"
    },
    {
      "inputs": [
        {
          "internalType": "address",
          "name": "",
          "type": "address"
        },
        {
          "internalType": "uint256",
          "name": "",
          "type": "uint256"
        }
      ],
      "name": "positionIdsByAddress",
      "outputs": [
        {
          "internalType": "uint256",
          "name": "",
          "type": "uint256"
        }
      ],
      "stateMutability": "view",
      "type": "function"
    },
    {
      "inputs": [
        {
          "internalType": "uint256",
          "name": "",
          "type": "uint256"
        }
      ],
      "name": "positions",
      "outputs": [
        {
          "internalType": "uint256",
          "name": "positionId",
          "type": "uint256"
        },
        {
          "internalType": "address",
          "name": "walletAddress",
          "type": "address"
        },
        {
          "internalType": "string",
          "name": "symbol",
          "type": "string"
        },
        {
          "internalType": "string",
          "name": "name",
          "type": "string"
        },
        {
          "internalType": "uint256",
          "name": "createdDate",
          "type": "uint256"
        },
        {
          "internalType": "uint256",
          "name": "apy",
          "type": "uint256"
        },
        {
          "internalType": "uint256",
          "name": "tokenQuantity",
          "type": "uint256"
        },
        {
          "internalType": "bool",
          "name": "open",
          "type": "bool"
        }
      ],
      "stateMutability": "view",
      "type": "function"
    },
    {
      "inputs": [
        {
          "internalType": "string",
          "name": "symbol",
          "type": "string"
        },
        {
          "internalType": "uint256",
          "name": "tokenQuantity",
          "type": "uint256"
        }
      ],
      "name": "stakeTokens",
      "outputs": [],
      "stateMutability": "nonpayable",
      "type": "function"
    },
    {
      "inputs": [
        {
          "internalType": "string",
          "name": "",
          "type": "string"
        }
      ],
      "name": "stakedTokens",
      "outputs": [
        {
          "internalType": "uint256",
          "name": "",
          "type": "uint256"
        }
      ],
      "stateMutability": "view",
      "type": "function"
    },
    {
      "inputs": [
        {
          "internalType": "uint256",
          "name": "",
          "type": "uint256"
        }
      ],
      "name": "tokenSymbols",
      "outputs": [
        {
          "internalType": "string",
          "name": "",
          "type": "string"
        }
      ],
      "stateMutability": "view",
      "type": "function"
    },
    {
      "inputs": [
        {
          "internalType": "string",
          "name": "",
          "type": "string"
        }
      ],
      "name": "tokens",
      "outputs": [
        {
          "internalType": "uint256",
          "name": "tokenId",
          "type": "uint256"
        },
        {
          "internalType": "string",
          "name": "name",
          "type": "string"
        },
        {
          "internalType": "string",
          "name": "symbol",
          "type": "string"
        },
        {
          "internalType": "address",
          "name": "tokenAddress",
          "type": "address"
        },
        {
          "internalType": "uint256",
          "name": "apy",
          "type": "uint256"
        }
      ],
      "stateMutability": "view",
      "type": "function"
    }
  ],
  "bytecode": "0x60806040526001805560016005556040516200295b3803806200295b833981810160405281019062000032919062000097565b80600281905550336000806101000a81548173ffffffffffffffffffffffffffffffffffffffff021916908373ffffffffffffffffffffffffffffffffffffffff16021790555050620000e7565b6000815190506200009181620000cd565b92915050565b600060208284031215620000aa57600080fd5b6000620000ba8482850162000080565b91505092915050565b6000819050919050565b620000d881620000c3565b8114620000e457600080fd5b50565b61286480620000f76000396000f3fe608060405234801561001057600080fd5b50600436106101205760003560e01c806371d772ca116100ad578063a126d60111610071578063a126d60114610328578063b838ec8614610344578063c1733f6814610374578063c41cc502146103a4578063efdd7c07146103d457610120565b806371d772ca1461027d578063864fa1b2146102995780638da5cb5b146102b55780639478ab8c146102d357806399fbab88146102f157610120565b80632406b5c0116100f45780632406b5c0146101b357806327f70655146101e357806345eae373146101ff5780634b4ea9541461022f5780636e7ddea81461024d57610120565b80629a9b7b1461012557806304c2320b1461014357806305b93816146101775780631131c8cd14610195575b600080fd5b61012d610404565b60405161013a9190612323565b60405180910390f35b61015d60048036038101906101589190611c05565b61040a565b60405161016e9594939291906123ca565b60405180910390f35b61017f610586565b60405161018c91906121f9565b60405180910390f35b61019d61065f565b6040516101aa9190612323565b60405180910390f35b6101cd60048036038101906101c89190611c46565b610665565b6040516101da9190612323565b60405180910390f35b6101fd60048036038101906101f89190611c6f565b61069d565b005b61021960048036038101906102149190611a68565b61074a565b6040516102269190612323565b60405180910390f35b61023761077b565b604051610244919061221b565b60405180910390f35b61026760048036038101906102629190611c46565b610810565b604051610274919061223d565b60405180910390f35b61029760048036038101906102929190611bad565b6108bc565b005b6102b360048036038101906102ae9190611b12565b610cfc565b005b6102bd610f68565b6040516102ca919061217e565b60405180910390f35b6102db610f8c565b6040516102e89190612323565b60405180910390f35b61030b60048036038101906103069190611c46565b610f92565b60405161031f98979695949392919061233e565b60405180910390f35b610342600480360381019061033d9190611c46565b611117565b005b61035e60048036038101906103599190611c46565b61139a565b60405161036b91906122df565b60405180910390f35b61038e60048036038101906103899190611acd565b611585565b60405161039b9190612301565b60405180910390f35b6103be60048036038101906103b99190611c05565b61174e565b6040516103cb9190612323565b60405180910390f35b6103ee60048036038101906103e99190611c6f565b61177c565b6040516103fb9190612323565b60405180910390f35b60015481565b600481805160208101820180518482526020830160208501208183528095505050505050600091509050806000015490806001018054610449906126ea565b80601f0160208091040260200160405190810160405280929190818152602001828054610475906126ea565b80156104c25780601f10610497576101008083540402835291602001916104c2565b820191906000526020600020905b8154815290600101906020018083116104a557829003601f168201915b5050505050908060020180546104d7906126ea565b80601f0160208091040260200160405190810160405280929190818152602001828054610503906126ea565b80156105505780601f1061052557610100808354040283529160200191610550565b820191906000526020600020905b81548152906001019060200180831161053357829003601f168201915b5050505050908060030160009054906101000a900473ffffffffffffffffffffffffffffffffffffffff16908060040154905085565b60606003805480602002602001604051908101604052809291908181526020016000905b828210156106565783829060005260206000200180546105c9906126ea565b80601f01602080910402602001604051908101604052809291908181526020018280546105f5906126ea565b80156106425780601f1061061757610100808354040283529160200191610642565b820191906000526020600020905b81548152906001019060200180831161062557829003601f168201915b5050505050815260200190600101906105aa565b50505050905090565b60055481565b60006018603c808442610678919061262c565b61068291906125a1565b61068c91906125a1565b61069691906125a1565b9050919050565b3373ffffffffffffffffffffffffffffffffffffffff1660008054906101000a900473ffffffffffffffffffffffffffffffffffffffff1673ffffffffffffffffffffffffffffffffffffffff161461072b576040517f08c379a00000000000000000000000000000000000000000000000000000000081526004016107229061225f565b60405180910390fd5b8060066000848152602001908152602001600020600401819055505050565b6007602052816000526040600020818154811061076657600080fd5b90600052602060002001600091509150505481565b6060600760003373ffffffffffffffffffffffffffffffffffffffff1673ffffffffffffffffffffffffffffffffffffffff16815260200190815260200160002080548060200260200160405190810160405280929190818152602001828054801561080657602002820191906000526020600020905b8154815260200190600101908083116107f2575b5050505050905090565b6003818154811061082057600080fd5b90600052602060002001600091509050805461083b906126ea565b80601f0160208091040260200160405190810160405280929190818152602001828054610867906126ea565b80156108b45780601f10610889576101008083540402835291602001916108b4565b820191906000526020600020905b81548152906001019060200180831161089757829003601f168201915b505050505081565b6000600484846040516108d092919061214e565b9081526020016040518091039020600001541415610923576040517f08c379a000000000000000000000000000000000000000000000000000000000815260040161091a906122bf565b60405180910390fd5b6004838360405161093592919061214e565b908152602001604051809103902060030160009054906101000a900473ffffffffffffffffffffffffffffffffffffffff1673ffffffffffffffffffffffffffffffffffffffff166323b872dd3330846040518463ffffffff1660e01b81526004016109a393929190612199565b602060405180830381600087803b1580156109bd57600080fd5b505af11580156109d1573d6000803e3d6000fd5b505050506040513d601f19601f820116820180604052508101906109f59190611aa4565b5060405180610100016040528060055481526020013373ffffffffffffffffffffffffffffffffffffffff16815260200160048585604051610a3892919061214e565b90815260200160405180910390206001018054610a54906126ea565b80601f0160208091040260200160405190810160405280929190818152602001828054610a80906126ea565b8015610acd5780601f10610aa257610100808354040283529160200191610acd565b820191906000526020600020905b815481529060010190602001808311610ab057829003601f168201915b5050505050815260200184848080601f016020809104026020016040519081016040528093929190818152602001838380828437600081840152601f19601f82011690508083019250505050505050815260200142815260200160048585604051610b3992919061214e565b9081526020016040518091039020600401548152602001828152602001600115158152506006600060055481526020019081526020016000206000820151816000015560208201518160010160006101000a81548173ffffffffffffffffffffffffffffffffffffffff021916908373ffffffffffffffffffffffffffffffffffffffff1602179055506040820151816002019080519060200190610bdf9291906117ac565b506060820151816003019080519060200190610bfc9291906117ac565b506080820151816004015560a0820151816005015560c0820151816006015560e08201518160070160006101000a81548160ff021916908315150217905550905050600760003373ffffffffffffffffffffffffffffffffffffffff1673ffffffffffffffffffffffffffffffffffffffff1681526020019081526020016000206005549080600181540180825580915050600190039060005260206000200160009091909190915055600160056000828254610cb9919061254b565b925050819055508060088484604051610cd392919061214e565b90815260200160405180910390206000828254610cf0919061254b565b92505081905550505050565b3373ffffffffffffffffffffffffffffffffffffffff1660008054906101000a900473ffffffffffffffffffffffffffffffffffffffff1673ffffffffffffffffffffffffffffffffffffffff1614610d8a576040517f08c379a0000000000000000000000000000000000000000000000000000000008152600401610d819061225f565b60405180910390fd5b6003848490918060018154018082558091505060019003906000526020600020016000909192909192909192909192509190610dc7929190611832565b506040518060a00160405280600154815260200187878080601f016020809104026020016040519081016040528093929190818152602001838380828437600081840152601f19601f82011690508083019250505050505050815260200185858080601f016020809104026020016040519081016040528093929190818152602001838380828437600081840152601f19601f8201169050808301925050505050505081526020018373ffffffffffffffffffffffffffffffffffffffff1681526020018281525060048585604051610ea192919061214e565b9081526020016040518091039020600082015181600001556020820151816001019080519060200190610ed59291906117ac565b506040820151816002019080519060200190610ef29291906117ac565b5060608201518160030160006101000a81548173ffffffffffffffffffffffffffffffffffffffff021916908373ffffffffffffffffffffffffffffffffffffffff160217905550608082015181600401559050506001806000828254610f59919061254b565b92505081905550505050505050565b60008054906101000a900473ffffffffffffffffffffffffffffffffffffffff1681565b60025481565b60066020528060005260406000206000915090508060000154908060010160009054906101000a900473ffffffffffffffffffffffffffffffffffffffff1690806002018054610fe1906126ea565b80601f016020809104026020016040519081016040528092919081815260200182805461100d906126ea565b801561105a5780601f1061102f5761010080835404028352916020019161105a565b820191906000526020600020905b81548152906001019060200180831161103d57829003601f168201915b50505050509080600301805461106f906126ea565b80601f016020809104026020016040519081016040528092919081815260200182805461109b906126ea565b80156110e85780601f106110bd576101008083540402835291602001916110e8565b820191906000526020600020905b8154815290600101906020018083116110cb57829003601f168201915b5050505050908060040154908060050154908060060154908060070160009054906101000a900460ff16905088565b3373ffffffffffffffffffffffffffffffffffffffff166006600083815260200190815260200160002060010160009054906101000a900473ffffffffffffffffffffffffffffffffffffffff1673ffffffffffffffffffffffffffffffffffffffff16146111bb576040517f08c379a00000000000000000000000000000000000000000000000000000000081526004016111b29061227f565b60405180910390fd5b600115156006600083815260200190815260200160002060070160009054906101000a900460ff16151514611225576040517f08c379a000000000000000000000000000000000000000000000000000000000815260040161121c9061229f565b60405180910390fd5b60006006600083815260200190815260200160002060070160006101000a81548160ff0219169083151502179055506004600660008381526020019081526020016000206002016040516112799190612167565b908152602001604051809103902060030160009054906101000a900473ffffffffffffffffffffffffffffffffffffffff1673ffffffffffffffffffffffffffffffffffffffff1663a9059cbb3360066000858152602001908152602001600020600601546040518363ffffffff1660e01b81526004016112fb9291906121d0565b602060405180830381600087803b15801561131557600080fd5b505af1158015611329573d6000803e3d6000fd5b505050506040513d601f19601f8201168201806040525081019061134d9190611aa4565b50600061136f6006600084815260200190815260200160002060040154610665565b9050600061139360066000858152602001908152602001600020600501548361177c565b9050505050565b6113a26118b8565b6006600083815260200190815260200160002060405180610100016040529081600082015481526020016001820160009054906101000a900473ffffffffffffffffffffffffffffffffffffffff1673ffffffffffffffffffffffffffffffffffffffff1673ffffffffffffffffffffffffffffffffffffffff168152602001600282018054611431906126ea565b80601f016020809104026020016040519081016040528092919081815260200182805461145d906126ea565b80156114aa5780601f1061147f576101008083540402835291602001916114aa565b820191906000526020600020905b81548152906001019060200180831161148d57829003601f168201915b505050505081526020016003820180546114c3906126ea565b80601f01602080910402602001604051908101604052809291908181526020018280546114ef906126ea565b801561153c5780601f106115115761010080835404028352916020019161153c565b820191906000526020600020905b81548152906001019060200180831161151f57829003601f168201915b505050505081526020016004820154815260200160058201548152602001600682015481526020016007820160009054906101000a900460ff1615151515815250509050919050565b61158d611915565b6004838360405161159f92919061214e565b90815260200160405180910390206040518060a0016040529081600082015481526020016001820180546115d2906126ea565b80601f01602080910402602001604051908101604052809291908181526020018280546115fe906126ea565b801561164b5780601f106116205761010080835404028352916020019161164b565b820191906000526020600020905b81548152906001019060200180831161162e57829003601f168201915b50505050508152602001600282018054611664906126ea565b80601f0160208091040260200160405190810160405280929190818152602001828054611690906126ea565b80156116dd5780601f106116b2576101008083540402835291602001916116dd565b820191906000526020600020905b8154815290600101906020018083116116c057829003601f168201915b505050505081526020016003820160009054906101000a900473ffffffffffffffffffffffffffffffffffffffff1673ffffffffffffffffffffffffffffffffffffffff1673ffffffffffffffffffffffffffffffffffffffff168152602001600482015481525050905092915050565b6008818051602081018201805184825260208301602085012081835280955050505050506000915090505481565b600061016d6103e8838561179091906125d2565b61179a91906125a1565b6117a491906125a1565b905092915050565b8280546117b8906126ea565b90600052602060002090601f0160209004810192826117da5760008555611821565b82601f106117f357805160ff1916838001178555611821565b82800160010185558215611821579182015b82811115611820578251825591602001919060010190611805565b5b50905061182e919061195a565b5090565b82805461183e906126ea565b90600052602060002090601f01602090048101928261186057600085556118a7565b82601f1061187957803560ff19168380011785556118a7565b828001600101855582156118a7579182015b828111156118a657823582559160200191906001019061188b565b5b5090506118b4919061195a565b5090565b60405180610100016040528060008152602001600073ffffffffffffffffffffffffffffffffffffffff16815260200160608152602001606081526020016000815260200160008152602001600081526020016000151581525090565b6040518060a00160405280600081526020016060815260200160608152602001600073ffffffffffffffffffffffffffffffffffffffff168152602001600081525090565b5b8082111561197357600081600090555060010161195b565b5090565b600061198a6119858461245c565b61242b565b9050828152602081018484840111156119a257600080fd5b6119ad8482856126a8565b509392505050565b6000813590506119c4816127e9565b92915050565b6000815190506119d981612800565b92915050565b60008083601f8401126119f157600080fd5b8235905067ffffffffffffffff811115611a0a57600080fd5b602083019150836001820283011115611a2257600080fd5b9250929050565b600082601f830112611a3a57600080fd5b8135611a4a848260208601611977565b91505092915050565b600081359050611a6281612817565b92915050565b60008060408385031215611a7b57600080fd5b6000611a89858286016119b5565b9250506020611a9a85828601611a53565b9150509250929050565b600060208284031215611ab657600080fd5b6000611ac4848285016119ca565b91505092915050565b60008060208385031215611ae057600080fd5b600083013567ffffffffffffffff811115611afa57600080fd5b611b06858286016119df565b92509250509250929050565b60008060008060008060808789031215611b2b57600080fd5b600087013567ffffffffffffffff811115611b4557600080fd5b611b5189828a016119df565b9650965050602087013567ffffffffffffffff811115611b7057600080fd5b611b7c89828a016119df565b94509450506040611b8f89828a016119b5565b9250506060611ba089828a01611a53565b9150509295509295509295565b600080600060408486031215611bc257600080fd5b600084013567ffffffffffffffff811115611bdc57600080fd5b611be8868287016119df565b93509350506020611bfb86828701611a53565b9150509250925092565b600060208284031215611c1757600080fd5b600082013567ffffffffffffffff811115611c3157600080fd5b611c3d84828501611a29565b91505092915050565b600060208284031215611c5857600080fd5b6000611c6684828501611a53565b91505092915050565b60008060408385031215611c8257600080fd5b6000611c9085828601611a53565b9250506020611ca185828601611a53565b9150509250929050565b6000611cb78383611e0b565b905092915050565b6000611ccb8383612130565b60208301905092915050565b611ce081612660565b82525050565b611cef81612660565b82525050565b6000611d00826124c1565b611d0a81856124fc565b935083602082028501611d1c8561248c565b8060005b85811015611d585784840389528151611d398582611cab565b9450611d44836124e2565b925060208a01995050600181019050611d20565b50829750879550505050505092915050565b6000611d75826124cc565b611d7f818561250d565b9350611d8a8361249c565b8060005b83811015611dbb578151611da28882611cbf565b9750611dad836124ef565b925050600181019050611d8e565b5085935050505092915050565b611dd181612672565b82525050565b611de081612672565b82525050565b6000611df28385612540565b9350611dff8385846126a8565b82840190509392505050565b6000611e16826124d7565b611e20818561251e565b9350611e308185602086016126b7565b611e39816127d8565b840191505092915050565b6000611e4f826124d7565b611e59818561252f565b9350611e698185602086016126b7565b611e72816127d8565b840191505092915050565b60008154611e8a816126ea565b611e948186612540565b94506001821660008114611eaf5760018114611ec057611ef3565b60ff19831686528186019350611ef3565b611ec9856124ac565b60005b83811015611eeb57815481890152600182019150602081019050611ecc565b838801955050505b50505092915050565b6000611f0960208361252f565b91507f6f6e6c79206f776e65722063616e2072756e207468697320636f6e74726163746000830152602082019050919050565b6000611f49601e8361252f565b91507f4e6f7420746865206f776e6572206f66207468697320706f736974696f6e00006000830152602082019050919050565b6000611f8960178361252f565b91507f506f736974696f6e20416c726561647920636c6f7365640000000000000000006000830152602082019050919050565b6000611fc9601b8361252f565b91507f5468697320746f6b656e2063616e6e6f74206265207374616b656400000000006000830152602082019050919050565b6000610100830160008301516120156000860182612130565b5060208301516120286020860182611cd7565b50604083015184820360408601526120408282611e0b565b9150506060830151848203606086015261205a8282611e0b565b915050608083015161206f6080860182612130565b5060a083015161208260a0860182612130565b5060c083015161209560c0860182612130565b5060e08301516120a860e0860182611dc8565b508091505092915050565b600060a0830160008301516120cb6000860182612130565b50602083015184820360208601526120e38282611e0b565b915050604083015184820360408601526120fd8282611e0b565b91505060608301516121126060860182611cd7565b5060808301516121256080860182612130565b508091505092915050565b6121398161269e565b82525050565b6121488161269e565b82525050565b600061215b828486611de6565b91508190509392505050565b60006121738284611e7d565b915081905092915050565b60006020820190506121936000830184611ce6565b92915050565b60006060820190506121ae6000830186611ce6565b6121bb6020830185611ce6565b6121c8604083018461213f565b949350505050565b60006040820190506121e56000830185611ce6565b6121f2602083018461213f565b9392505050565b600060208201905081810360008301526122138184611cf5565b905092915050565b600060208201905081810360008301526122358184611d6a565b905092915050565b600060208201905081810360008301526122578184611e44565b905092915050565b6000602082019050818103600083015261227881611efc565b9050919050565b6000602082019050818103600083015261229881611f3c565b9050919050565b600060208201905081810360008301526122b881611f7c565b9050919050565b600060208201905081810360008301526122d881611fbc565b9050919050565b600060208201905081810360008301526122f98184611ffc565b905092915050565b6000602082019050818103600083015261231b81846120b3565b905092915050565b6000602082019050612338600083018461213f565b92915050565b600061010082019050612354600083018b61213f565b612361602083018a611ce6565b81810360408301526123738189611e44565b905081810360608301526123878188611e44565b9050612396608083018761213f565b6123a360a083018661213f565b6123b060c083018561213f565b6123bd60e0830184611dd7565b9998505050505050505050565b600060a0820190506123df600083018861213f565b81810360208301526123f18187611e44565b905081810360408301526124058186611e44565b90506124146060830185611ce6565b612421608083018461213f565b9695505050505050565b6000604051905081810181811067ffffffffffffffff82111715612452576124516127a9565b5b8060405250919050565b600067ffffffffffffffff821115612477576124766127a9565b5b601f19601f8301169050602081019050919050565b6000819050602082019050919050565b6000819050602082019050919050565b60008190508160005260206000209050919050565b600081519050919050565b600081519050919050565b600081519050919050565b6000602082019050919050565b6000602082019050919050565b600082825260208201905092915050565b600082825260208201905092915050565b600082825260208201905092915050565b600082825260208201905092915050565b600081905092915050565b60006125568261269e565b91506125618361269e565b9250827fffffffffffffffffffffffffffffffffffffffffffffffffffffffffffffffff038211156125965761259561271c565b5b828201905092915050565b60006125ac8261269e565b91506125b78361269e565b9250826125c7576125c661274b565b5b828204905092915050565b60006125dd8261269e565b91506125e88361269e565b9250817fffffffffffffffffffffffffffffffffffffffffffffffffffffffffffffffff04831182151516156126215761262061271c565b5b828202905092915050565b60006126378261269e565b91506126428361269e565b9250828210156126555761265461271c565b5b828203905092915050565b600061266b8261267e565b9050919050565b60008115159050919050565b600073ffffffffffffffffffffffffffffffffffffffff82169050919050565b6000819050919050565b82818337600083830152505050565b60005b838110156126d55780820151818401526020810190506126ba565b838111156126e4576000848401525b50505050565b6000600282049050600182168061270257607f821691505b602082108114156127165761271561277a565b5b50919050565b7f4e487b7100000000000000000000000000000000000000000000000000000000600052601160045260246000fd5b7f4e487b7100000000000000000000000000000000000000000000000000000000600052601260045260246000fd5b7f4e487b7100000000000000000000000000000000000000000000000000000000600052602260045260246000fd5b7f4e487b7100000000000000000000000000000000000000000000000000000000600052604160045260246000fd5b6000601f19601f8301169050919050565b6127f281612660565b81146127fd57600080fd5b50565b61280981612672565b811461281457600080fd5b50565b6128208161269e565b811461282b57600080fd5b5056fea2646970667358221220de4081da646b3c716faaf2b123cf306b14ddfaef83f15610d87febb75d9406aa64736f6c63430008000033",
  "linkReferences": {},
  "deployedLinkReferences": {}
}