{
  "_format": "hh-sol-artifact-1",
  "contractName": "Staking",
  "sourceName": "contracts/Staking.sol",
  "abi": [
    {
      "inputs": [
        {
          "internalType": "uint256",
          "name": "currentEthPrice",
          "type": "uint256"
        }
      ],
      "stateMutability": "payable",
      "type": "constructor"
    },
    {
      "inputs": [
        {
          "internalType": "string",
          "name": "name",
          "type": "string"
        },
        {
          "internalType": "string",
          "name": "symbol",
          "type": "string"
        },
        {
          "internalType": "address",
          "name": "tokenAddress",
          "type": "address"
        },
        {
          "internalType": "uint256",
          "name": "usdPrice",
          "type": "uint256"
        },
        {
          "internalType": "uint256",
          "name": "apy",
          "type": "uint256"
        }
      ],
      "name": "addToken",
      "outputs": [],
      "stateMutability": "nonpayable",
      "type": "function"
    },
    {
      "inputs": [
        {
          "internalType": "uint256",
          "name": "apy",
          "type": "uint256"
        },
        {
          "internalType": "uint256",
          "name": "value",
          "type": "uint256"
        },
        {
          "internalType": "uint256",
          "name": "numberDays",
          "type": "uint256"
        }
      ],
      "name": "calculateInterest",
      "outputs": [
        {
          "internalType": "uint256",
          "name": "",
          "type": "uint256"
        }
      ],
      "stateMutability": "pure",
      "type": "function"
    },
    {
      "inputs": [
        {
          "internalType": "uint256",
          "name": "createdDate",
          "type": "uint256"
        }
      ],
      "name": "calculateNumberDays",
      "outputs": [
        {
          "internalType": "uint256",
          "name": "",
          "type": "uint256"
        }
      ],
      "stateMutability": "view",
      "type": "function"
    },
    {
      "inputs": [
        {
          "internalType": "uint256",
          "name": "positionId",
          "type": "uint256"
        }
      ],
      "name": "closePosition",
      "outputs": [],
      "stateMutability": "nonpayable",
      "type": "function"
    },
    {
      "inputs": [],
      "name": "currentPositionId",
      "outputs": [
        {
          "internalType": "uint256",
          "name": "",
          "type": "uint256"
        }
      ],
      "stateMutability": "view",
      "type": "function"
    },
    {
      "inputs": [],
      "name": "currentTokenId",
      "outputs": [
        {
          "internalType": "uint256",
          "name": "",
          "type": "uint256"
        }
      ],
      "stateMutability": "view",
      "type": "function"
    },
    {
      "inputs": [],
      "name": "ethUsdPrice",
      "outputs": [
        {
          "internalType": "uint256",
          "name": "",
          "type": "uint256"
        }
      ],
      "stateMutability": "view",
      "type": "function"
    },
    {
      "inputs": [
        {
          "internalType": "uint256",
          "name": "positionId",
          "type": "uint256"
        }
      ],
      "name": "getPositionById",
      "outputs": [
        {
          "components": [
            {
              "internalType": "uint256",
              "name": "positionId",
              "type": "uint256"
            },
            {
              "internalType": "address",
              "name": "walletAddress",
              "type": "address"
            },
            {
              "internalType": "string",
              "name": "symbol",
              "type": "string"
            },
            {
              "internalType": "string",
              "name": "name",
              "type": "string"
            },
            {
              "internalType": "uint256",
              "name": "createdDate",
              "type": "uint256"
            },
            {
              "internalType": "uint256",
              "name": "apy",
              "type": "uint256"
            },
            {
              "internalType": "uint256",
              "name": "tokenQuantity",
              "type": "uint256"
            },
            {
              "internalType": "uint256",
              "name": "usdValue",
              "type": "uint256"
            },
            {
              "internalType": "uint256",
              "name": "ethValue",
              "type": "uint256"
            },
            {
              "internalType": "bool",
              "name": "open",
              "type": "bool"
            }
          ],
          "internalType": "struct Staking.Position",
          "name": "",
          "type": "tuple"
        }
      ],
      "stateMutability": "view",
      "type": "function"
    },
    {
      "inputs": [],
      "name": "getPositionIdsForAddress",
      "outputs": [
        {
          "internalType": "uint256[]",
          "name": "",
          "type": "uint256[]"
        }
      ],
      "stateMutability": "view",
      "type": "function"
    },
    {
      "inputs": [
        {
          "internalType": "string",
          "name": "tokenSymbol",
          "type": "string"
        }
      ],
      "name": "getToken",
      "outputs": [
        {
          "components": [
            {
              "internalType": "uint256",
              "name": "tokenId",
              "type": "uint256"
            },
            {
              "internalType": "string",
              "name": "name",
              "type": "string"
            },
            {
              "internalType": "string",
              "name": "symbol",
              "type": "string"
            },
            {
              "internalType": "address",
              "name": "tokenAddress",
              "type": "address"
            },
            {
              "internalType": "uint256",
              "name": "usdPrice",
              "type": "uint256"
            },
            {
              "internalType": "uint256",
              "name": "ethPrice",
              "type": "uint256"
            },
            {
              "internalType": "uint256",
              "name": "apy",
              "type": "uint256"
            }
          ],
          "internalType": "struct Staking.Token",
          "name": "",
          "type": "tuple"
        }
      ],
      "stateMutability": "view",
      "type": "function"
    },
    {
      "inputs": [],
      "name": "getTokenSymbols",
      "outputs": [
        {
          "internalType": "string[]",
          "name": "",
          "type": "string[]"
        }
      ],
      "stateMutability": "view",
      "type": "function"
    },
    {
      "inputs": [
        {
          "internalType": "uint256",
          "name": "positionId",
          "type": "uint256"
        },
        {
          "internalType": "uint256",
          "name": "newCreatedDate",
          "type": "uint256"
        }
      ],
      "name": "modifyCreatedDate",
      "outputs": [],
      "stateMutability": "nonpayable",
      "type": "function"
    },
    {
      "inputs": [],
      "name": "owner",
      "outputs": [
        {
          "internalType": "address",
          "name": "",
          "type": "address"
        }
      ],
      "stateMutability": "view",
      "type": "function"
    },
    {
      "inputs": [
        {
          "internalType": "address",
          "name": "",
          "type": "address"
        },
        {
          "internalType": "uint256",
          "name": "",
          "type": "uint256"
        }
      ],
      "name": "positionIdsByAddress",
      "outputs": [
        {
          "internalType": "uint256",
          "name": "",
          "type": "uint256"
        }
      ],
      "stateMutability": "view",
      "type": "function"
    },
    {
      "inputs": [
        {
          "internalType": "uint256",
          "name": "",
          "type": "uint256"
        }
      ],
      "name": "positions",
      "outputs": [
        {
          "internalType": "uint256",
          "name": "positionId",
          "type": "uint256"
        },
        {
          "internalType": "address",
          "name": "walletAddress",
          "type": "address"
        },
        {
          "internalType": "string",
          "name": "symbol",
          "type": "string"
        },
        {
          "internalType": "string",
          "name": "name",
          "type": "string"
        },
        {
          "internalType": "uint256",
          "name": "createdDate",
          "type": "uint256"
        },
        {
          "internalType": "uint256",
          "name": "apy",
          "type": "uint256"
        },
        {
          "internalType": "uint256",
          "name": "tokenQuantity",
          "type": "uint256"
        },
        {
          "internalType": "uint256",
          "name": "usdValue",
          "type": "uint256"
        },
        {
          "internalType": "uint256",
          "name": "ethValue",
          "type": "uint256"
        },
        {
          "internalType": "bool",
          "name": "open",
          "type": "bool"
        }
      ],
      "stateMutability": "view",
      "type": "function"
    },
    {
      "inputs": [
        {
          "internalType": "string",
          "name": "symbol",
          "type": "string"
        },
        {
          "internalType": "uint256",
          "name": "tokenQuantity",
          "type": "uint256"
        }
      ],
      "name": "stakeTokens",
      "outputs": [],
      "stateMutability": "nonpayable",
      "type": "function"
    },
    {
      "inputs": [
        {
          "internalType": "string",
          "name": "",
          "type": "string"
        }
      ],
      "name": "stakedTokens",
      "outputs": [
        {
          "internalType": "uint256",
          "name": "",
          "type": "uint256"
        }
      ],
      "stateMutability": "view",
      "type": "function"
    },
    {
      "inputs": [
        {
          "internalType": "uint256",
          "name": "",
          "type": "uint256"
        }
      ],
      "name": "tokenSymbols",
      "outputs": [
        {
          "internalType": "string",
          "name": "",
          "type": "string"
        }
      ],
      "stateMutability": "view",
      "type": "function"
    },
    {
      "inputs": [
        {
          "internalType": "string",
          "name": "",
          "type": "string"
        }
      ],
      "name": "tokens",
      "outputs": [
        {
          "internalType": "uint256",
          "name": "tokenId",
          "type": "uint256"
        },
        {
          "internalType": "string",
          "name": "name",
          "type": "string"
        },
        {
          "internalType": "string",
          "name": "symbol",
          "type": "string"
        },
        {
          "internalType": "address",
          "name": "tokenAddress",
          "type": "address"
        },
        {
          "internalType": "uint256",
          "name": "usdPrice",
          "type": "uint256"
        },
        {
          "internalType": "uint256",
          "name": "ethPrice",
          "type": "uint256"
        },
        {
          "internalType": "uint256",
          "name": "apy",
          "type": "uint256"
        }
      ],
      "stateMutability": "view",
      "type": "function"
    }
  ],
  "bytecode": "0x608060405260018055600160055560405162002b8538038062002b85833981810160405281019062000032919062000097565b80600281905550336000806101000a81548173ffffffffffffffffffffffffffffffffffffffff021916908373ffffffffffffffffffffffffffffffffffffffff16021790555050620000e7565b6000815190506200009181620000cd565b92915050565b600060208284031215620000aa57600080fd5b6000620000ba8482850162000080565b91505092915050565b6000819050919050565b620000d881620000c3565b8114620000e457600080fd5b50565b612a8e80620000f76000396000f3fe608060405234801561001057600080fd5b50600436106101205760003560e01c80636e7ddea8116100ad57806399fbab881161007157806399fbab8814610323578063a126d6011461035c578063b838ec8614610378578063c1733f68146103a8578063c41cc502146103d857610120565b80636e7ddea81461027f57806371d772ca146102af5780638da5cb5b146102cb5780639478ab8c146102e957806394b308ab1461030757610120565b80631131c8cd116100f45780631131c8cd146101c75780632406b5c0146101e557806327f706551461021557806345eae373146102315780634b4ea9541461026157610120565b80629a9b7b1461012557806304c2320b1461014357806305b938161461017957806305e1bd8c14610197575b600080fd5b61012d610408565b60405161013a9190612513565b60405180910390f35b61015d60048036038101906101589190611d56565b61040e565b60405161017097969594939291906125d8565b60405180910390f35b610181610596565b60405161018e91906123e9565b60405180910390f35b6101b160048036038101906101ac9190611dfc565b61066f565b6040516101be9190612513565b60405180910390f35b6101cf6106ab565b6040516101dc9190612513565b60405180910390f35b6101ff60048036038101906101fa9190611d97565b6106b1565b60405161020c9190612513565b60405180910390f35b61022f600480360381019061022a9190611dc0565b6106e9565b005b61024b60048036038101906102469190611ba4565b610796565b6040516102589190612513565b60405180910390f35b6102696107c7565b604051610276919061240b565b60405180910390f35b61029960048036038101906102949190611d97565b61085c565b6040516102a6919061242d565b60405180910390f35b6102c960048036038101906102c49190611cfe565b610908565b005b6102d3610dd3565b6040516102e0919061236e565b60405180910390f35b6102f1610df7565b6040516102fe9190612513565b60405180910390f35b610321600480360381019061031c9190611c4e565b610dfd565b005b61033d60048036038101906103389190611d97565b611097565b6040516103539a9998979695949392919061252e565b60405180910390f35b61037660048036038101906103719190611d97565b611228565b005b610392600480360381019061038d9190611d97565b6114c2565b60405161039f91906124cf565b60405180910390f35b6103c260048036038101906103bd9190611c09565b6116c1565b6040516103cf91906124f1565b60405180910390f35b6103f260048036038101906103ed9190611d56565b61189e565b6040516103ff9190612513565b60405180910390f35b60015481565b60048180516020810182018051848252602083016020850120818352809550505050505060009150905080600001549080600101805461044d90612914565b80601f016020809104026020016040519081016040528092919081815260200182805461047990612914565b80156104c65780601f1061049b576101008083540402835291602001916104c6565b820191906000526020600020905b8154815290600101906020018083116104a957829003601f168201915b5050505050908060020180546104db90612914565b80601f016020809104026020016040519081016040528092919081815260200182805461050790612914565b80156105545780601f1061052957610100808354040283529160200191610554565b820191906000526020600020905b81548152906001019060200180831161053757829003601f168201915b5050505050908060030160009054906101000a900473ffffffffffffffffffffffffffffffffffffffff16908060040154908060050154908060060154905087565b60606003805480602002602001604051908101604052809291908181526020016000905b828210156106665783829060005260206000200180546105d990612914565b80601f016020809104026020016040519081016040528092919081815260200182805461060590612914565b80156106525780601f1061062757610100808354040283529160200191610652565b820191906000526020600020905b81548152906001019060200180831161063557829003601f168201915b5050505050815260200190600101906105ba565b50505050905090565b600061016d6103e883858761068491906127fc565b61068e91906127fc565b61069891906127cb565b6106a291906127cb565b90509392505050565b60055481565b60006018603c8084426106c49190612856565b6106ce91906127cb565b6106d891906127cb565b6106e291906127cb565b9050919050565b3373ffffffffffffffffffffffffffffffffffffffff1660008054906101000a900473ffffffffffffffffffffffffffffffffffffffff1673ffffffffffffffffffffffffffffffffffffffff1614610777576040517f08c379a000000000000000000000000000000000000000000000000000000000815260040161076e9061244f565b60405180910390fd5b8060066000848152602001908152602001600020600401819055505050565b600760205281600052604060002081815481106107b257600080fd5b90600052602060002001600091509150505481565b6060600760003373ffffffffffffffffffffffffffffffffffffffff1673ffffffffffffffffffffffffffffffffffffffff16815260200190815260200160002080548060200260200160405190810160405280929190818152602001828054801561085257602002820191906000526020600020905b81548152602001906001019080831161083e575b5050505050905090565b6003818154811061086c57600080fd5b90600052602060002001600091509050805461088790612914565b80601f01602080910402602001604051908101604052809291908181526020018280546108b390612914565b80156109005780601f106108d557610100808354040283529160200191610900565b820191906000526020600020905b8154815290600101906020018083116108e357829003601f168201915b505050505081565b60006004848460405161091c92919061233e565b908152602001604051809103902060000154141561096f576040517f08c379a0000000000000000000000000000000000000000000000000000000008152600401610966906124af565b60405180910390fd5b6004838360405161098192919061233e565b908152602001604051809103902060030160009054906101000a900473ffffffffffffffffffffffffffffffffffffffff1673ffffffffffffffffffffffffffffffffffffffff166323b872dd3330846040518463ffffffff1660e01b81526004016109ef93929190612389565b602060405180830381600087803b158015610a0957600080fd5b505af1158015610a1d573d6000803e3d6000fd5b505050506040513d601f19601f82011682018060405250810190610a419190611be0565b5060405180610140016040528060055481526020013373ffffffffffffffffffffffffffffffffffffffff16815260200160048585604051610a8492919061233e565b90815260200160405180910390206001018054610aa090612914565b80601f0160208091040260200160405190810160405280929190818152602001828054610acc90612914565b8015610b195780601f10610aee57610100808354040283529160200191610b19565b820191906000526020600020905b815481529060010190602001808311610afc57829003601f168201915b5050505050815260200184848080601f016020809104026020016040519081016040528093929190818152602001838380828437600081840152601f19601f82011690508083019250505050505050815260200142815260200160048585604051610b8592919061233e565b90815260200160405180910390206006015481526020018281526020018260048686604051610bb592919061233e565b908152602001604051809103902060040154610bd191906127fc565b81526020016002548360048787604051610bec92919061233e565b908152602001604051809103902060040154610c0891906127fc565b610c1291906127cb565b8152602001600115158152506006600060055481526020019081526020016000206000820151816000015560208201518160010160006101000a81548173ffffffffffffffffffffffffffffffffffffffff021916908373ffffffffffffffffffffffffffffffffffffffff1602179055506040820151816002019080519060200190610ca09291906118cc565b506060820151816003019080519060200190610cbd9291906118cc565b506080820151816004015560a0820151816005015560c0820151816006015560e0820151816007015561010082015181600801556101208201518160090160006101000a81548160ff021916908315150217905550905050600760003373ffffffffffffffffffffffffffffffffffffffff1673ffffffffffffffffffffffffffffffffffffffff1681526020019081526020016000206005549080600181540180825580915050600190039060005260206000200160009091909190915055600160056000828254610d909190612775565b925050819055508060088484604051610daa92919061233e565b90815260200160405180910390206000828254610dc79190612775565b92505081905550505050565b60008054906101000a900473ffffffffffffffffffffffffffffffffffffffff1681565b60025481565b3373ffffffffffffffffffffffffffffffffffffffff1660008054906101000a900473ffffffffffffffffffffffffffffffffffffffff1673ffffffffffffffffffffffffffffffffffffffff1614610e8b576040517f08c379a0000000000000000000000000000000000000000000000000000000008152600401610e829061244f565b60405180910390fd5b6003858590918060018154018082558091505060019003906000526020600020016000909192909192909192909192509190610ec8929190611952565b506040518060e00160405280600154815260200188888080601f016020809104026020016040519081016040528093929190818152602001838380828437600081840152601f19601f82011690508083019250505050505050815260200186868080601f016020809104026020016040519081016040528093929190818152602001838380828437600081840152601f19601f8201169050808301925050505050505081526020018473ffffffffffffffffffffffffffffffffffffffff16815260200183815260200160025484610fa091906127cb565b81526020018281525060048686604051610fbb92919061233e565b9081526020016040518091039020600082015181600001556020820151816001019080519060200190610fef9291906118cc565b50604082015181600201908051906020019061100c9291906118cc565b5060608201518160030160006101000a81548173ffffffffffffffffffffffffffffffffffffffff021916908373ffffffffffffffffffffffffffffffffffffffff1602179055506080820151816004015560a0820151816005015560c0820151816006015590505060018060008282546110879190612775565b9250508190555050505050505050565b60066020528060005260406000206000915090508060000154908060010160009054906101000a900473ffffffffffffffffffffffffffffffffffffffff16908060020180546110e690612914565b80601f016020809104026020016040519081016040528092919081815260200182805461111290612914565b801561115f5780601f106111345761010080835404028352916020019161115f565b820191906000526020600020905b81548152906001019060200180831161114257829003601f168201915b50505050509080600301805461117490612914565b80601f01602080910402602001604051908101604052809291908181526020018280546111a090612914565b80156111ed5780601f106111c2576101008083540402835291602001916111ed565b820191906000526020600020905b8154815290600101906020018083116111d057829003601f168201915b5050505050908060040154908060050154908060060154908060070154908060080154908060090160009054906101000a900460ff1690508a565b3373ffffffffffffffffffffffffffffffffffffffff166006600083815260200190815260200160002060010160009054906101000a900473ffffffffffffffffffffffffffffffffffffffff1673ffffffffffffffffffffffffffffffffffffffff16146112cc576040517f08c379a00000000000000000000000000000000000000000000000000000000081526004016112c39061246f565b60405180910390fd5b600115156006600083815260200190815260200160002060090160009054906101000a900460ff16151514611336576040517f08c379a000000000000000000000000000000000000000000000000000000000815260040161132d9061248f565b60405180910390fd5b60006006600083815260200190815260200160002060090160006101000a81548160ff02191690831515021790555060046006600083815260200190815260200160002060020160405161138a9190612357565b908152602001604051809103902060030160009054906101000a900473ffffffffffffffffffffffffffffffffffffffff1673ffffffffffffffffffffffffffffffffffffffff1663a9059cbb3360066000858152602001908152602001600020600601546040518363ffffffff1660e01b815260040161140c9291906123c0565b602060405180830381600087803b15801561142657600080fd5b505af115801561143a573d6000803e3d6000fd5b505050506040513d601f19601f8201168201806040525081019061145e9190611be0565b50600061148060066000848152602001908152602001600020600401546106b1565b905060006114bb600660008581526020019081526020016000206005015460066000868152602001908152602001600020600801548461066f565b9050505050565b6114ca6119d8565b6006600083815260200190815260200160002060405180610140016040529081600082015481526020016001820160009054906101000a900473ffffffffffffffffffffffffffffffffffffffff1673ffffffffffffffffffffffffffffffffffffffff1673ffffffffffffffffffffffffffffffffffffffff16815260200160028201805461155990612914565b80601f016020809104026020016040519081016040528092919081815260200182805461158590612914565b80156115d25780601f106115a7576101008083540402835291602001916115d2565b820191906000526020600020905b8154815290600101906020018083116115b557829003601f168201915b505050505081526020016003820180546115eb90612914565b80601f016020809104026020016040519081016040528092919081815260200182805461161790612914565b80156116645780601f1061163957610100808354040283529160200191611664565b820191906000526020600020905b81548152906001019060200180831161164757829003601f168201915b5050505050815260200160048201548152602001600582015481526020016006820154815260200160078201548152602001600882015481526020016009820160009054906101000a900460ff1615151515815250509050919050565b6116c9611a43565b600483836040516116db92919061233e565b90815260200160405180910390206040518060e00160405290816000820154815260200160018201805461170e90612914565b80601f016020809104026020016040519081016040528092919081815260200182805461173a90612914565b80156117875780601f1061175c57610100808354040283529160200191611787565b820191906000526020600020905b81548152906001019060200180831161176a57829003601f168201915b505050505081526020016002820180546117a090612914565b80601f01602080910402602001604051908101604052809291908181526020018280546117cc90612914565b80156118195780601f106117ee57610100808354040283529160200191611819565b820191906000526020600020905b8154815290600101906020018083116117fc57829003601f168201915b505050505081526020016003820160009054906101000a900473ffffffffffffffffffffffffffffffffffffffff1673ffffffffffffffffffffffffffffffffffffffff1673ffffffffffffffffffffffffffffffffffffffff1681526020016004820154815260200160058201548152602001600682015481525050905092915050565b6008818051602081018201805184825260208301602085012081835280955050505050506000915090505481565b8280546118d890612914565b90600052602060002090601f0160209004810192826118fa5760008555611941565b82601f1061191357805160ff1916838001178555611941565b82800160010185558215611941579182015b82811115611940578251825591602001919060010190611925565b5b50905061194e9190611a96565b5090565b82805461195e90612914565b90600052602060002090601f01602090048101928261198057600085556119c7565b82601f1061199957803560ff19168380011785556119c7565b828001600101855582156119c7579182015b828111156119c65782358255916020019190600101906119ab565b5b5090506119d49190611a96565b5090565b60405180610140016040528060008152602001600073ffffffffffffffffffffffffffffffffffffffff168152602001606081526020016060815260200160008152602001600081526020016000815260200160008152602001600081526020016000151581525090565b6040518060e00160405280600081526020016060815260200160608152602001600073ffffffffffffffffffffffffffffffffffffffff1681526020016000815260200160008152602001600081525090565b5b80821115611aaf576000816000905550600101611a97565b5090565b6000611ac6611ac184612686565b612655565b905082815260208101848484011115611ade57600080fd5b611ae98482856128d2565b509392505050565b600081359050611b0081612a13565b92915050565b600081519050611b1581612a2a565b92915050565b60008083601f840112611b2d57600080fd5b8235905067ffffffffffffffff811115611b4657600080fd5b602083019150836001820283011115611b5e57600080fd5b9250929050565b600082601f830112611b7657600080fd5b8135611b86848260208601611ab3565b91505092915050565b600081359050611b9e81612a41565b92915050565b60008060408385031215611bb757600080fd5b6000611bc585828601611af1565b9250506020611bd685828601611b8f565b9150509250929050565b600060208284031215611bf257600080fd5b6000611c0084828501611b06565b91505092915050565b60008060208385031215611c1c57600080fd5b600083013567ffffffffffffffff811115611c3657600080fd5b611c4285828601611b1b565b92509250509250929050565b600080600080600080600060a0888a031215611c6957600080fd5b600088013567ffffffffffffffff811115611c8357600080fd5b611c8f8a828b01611b1b565b9750975050602088013567ffffffffffffffff811115611cae57600080fd5b611cba8a828b01611b1b565b95509550506040611ccd8a828b01611af1565b9350506060611cde8a828b01611b8f565b9250506080611cef8a828b01611b8f565b91505092959891949750929550565b600080600060408486031215611d1357600080fd5b600084013567ffffffffffffffff811115611d2d57600080fd5b611d3986828701611b1b565b93509350506020611d4c86828701611b8f565b9150509250925092565b600060208284031215611d6857600080fd5b600082013567ffffffffffffffff811115611d8257600080fd5b611d8e84828501611b65565b91505092915050565b600060208284031215611da957600080fd5b6000611db784828501611b8f565b91505092915050565b60008060408385031215611dd357600080fd5b6000611de185828601611b8f565b9250506020611df285828601611b8f565b9150509250929050565b600080600060608486031215611e1157600080fd5b6000611e1f86828701611b8f565b9350506020611e3086828701611b8f565b9250506040611e4186828701611b8f565b9150509250925092565b6000611e578383611fab565b905092915050565b6000611e6b8383612320565b60208301905092915050565b611e808161288a565b82525050565b611e8f8161288a565b82525050565b6000611ea0826126eb565b611eaa8185612726565b935083602082028501611ebc856126b6565b8060005b85811015611ef85784840389528151611ed98582611e4b565b9450611ee48361270c565b925060208a01995050600181019050611ec0565b50829750879550505050505092915050565b6000611f15826126f6565b611f1f8185612737565b9350611f2a836126c6565b8060005b83811015611f5b578151611f428882611e5f565b9750611f4d83612719565b925050600181019050611f2e565b5085935050505092915050565b611f718161289c565b82525050565b611f808161289c565b82525050565b6000611f92838561276a565b9350611f9f8385846128d2565b82840190509392505050565b6000611fb682612701565b611fc08185612748565b9350611fd08185602086016128e1565b611fd981612a02565b840191505092915050565b6000611fef82612701565b611ff98185612759565b93506120098185602086016128e1565b61201281612a02565b840191505092915050565b6000815461202a81612914565b612034818661276a565b9450600182166000811461204f576001811461206057612093565b60ff19831686528186019350612093565b612069856126d6565b60005b8381101561208b5781548189015260018201915060208101905061206c565b838801955050505b50505092915050565b60006120a9602083612759565b91507f6f6e6c79206f776e65722063616e2072756e207468697320636f6e74726163746000830152602082019050919050565b60006120e9601e83612759565b91507f4e6f7420746865206f776e6572206f66207468697320706f736974696f6e00006000830152602082019050919050565b6000612129601783612759565b91507f506f736974696f6e20416c726561647920636c6f7365640000000000000000006000830152602082019050919050565b6000612169601b83612759565b91507f5468697320746f6b656e2063616e6e6f74206265207374616b656400000000006000830152602082019050919050565b6000610140830160008301516121b56000860182612320565b5060208301516121c86020860182611e77565b50604083015184820360408601526121e08282611fab565b915050606083015184820360608601526121fa8282611fab565b915050608083015161220f6080860182612320565b5060a083015161222260a0860182612320565b5060c083015161223560c0860182612320565b5060e083015161224860e0860182612320565b5061010083015161225d610100860182612320565b50610120830151612272610120860182611f68565b508091505092915050565b600060e0830160008301516122956000860182612320565b50602083015184820360208601526122ad8282611fab565b915050604083015184820360408601526122c78282611fab565b91505060608301516122dc6060860182611e77565b5060808301516122ef6080860182612320565b5060a083015161230260a0860182612320565b5060c083015161231560c0860182612320565b508091505092915050565b612329816128c8565b82525050565b612338816128c8565b82525050565b600061234b828486611f86565b91508190509392505050565b6000612363828461201d565b915081905092915050565b60006020820190506123836000830184611e86565b92915050565b600060608201905061239e6000830186611e86565b6123ab6020830185611e86565b6123b8604083018461232f565b949350505050565b60006040820190506123d56000830185611e86565b6123e2602083018461232f565b9392505050565b600060208201905081810360008301526124038184611e95565b905092915050565b600060208201905081810360008301526124258184611f0a565b905092915050565b600060208201905081810360008301526124478184611fe4565b905092915050565b600060208201905081810360008301526124688161209c565b9050919050565b60006020820190508181036000830152612488816120dc565b9050919050565b600060208201905081810360008301526124a88161211c565b9050919050565b600060208201905081810360008301526124c88161215c565b9050919050565b600060208201905081810360008301526124e9818461219c565b905092915050565b6000602082019050818103600083015261250b818461227d565b905092915050565b6000602082019050612528600083018461232f565b92915050565b600061014082019050612544600083018d61232f565b612551602083018c611e86565b8181036040830152612563818b611fe4565b90508181036060830152612577818a611fe4565b9050612586608083018961232f565b61259360a083018861232f565b6125a060c083018761232f565b6125ad60e083018661232f565b6125bb61010083018561232f565b6125c9610120830184611f77565b9b9a5050505050505050505050565b600060e0820190506125ed600083018a61232f565b81810360208301526125ff8189611fe4565b905081810360408301526126138188611fe4565b90506126226060830187611e86565b61262f608083018661232f565b61263c60a083018561232f565b61264960c083018461232f565b98975050505050505050565b6000604051905081810181811067ffffffffffffffff8211171561267c5761267b6129d3565b5b8060405250919050565b600067ffffffffffffffff8211156126a1576126a06129d3565b5b601f19601f8301169050602081019050919050565b6000819050602082019050919050565b6000819050602082019050919050565b60008190508160005260206000209050919050565b600081519050919050565b600081519050919050565b600081519050919050565b6000602082019050919050565b6000602082019050919050565b600082825260208201905092915050565b600082825260208201905092915050565b600082825260208201905092915050565b600082825260208201905092915050565b600081905092915050565b6000612780826128c8565b915061278b836128c8565b9250827fffffffffffffffffffffffffffffffffffffffffffffffffffffffffffffffff038211156127c0576127bf612946565b5b828201905092915050565b60006127d6826128c8565b91506127e1836128c8565b9250826127f1576127f0612975565b5b828204905092915050565b6000612807826128c8565b9150612812836128c8565b9250817fffffffffffffffffffffffffffffffffffffffffffffffffffffffffffffffff048311821515161561284b5761284a612946565b5b828202905092915050565b6000612861826128c8565b915061286c836128c8565b92508282101561287f5761287e612946565b5b828203905092915050565b6000612895826128a8565b9050919050565b60008115159050919050565b600073ffffffffffffffffffffffffffffffffffffffff82169050919050565b6000819050919050565b82818337600083830152505050565b60005b838110156128ff5780820151818401526020810190506128e4565b8381111561290e576000848401525b50505050565b6000600282049050600182168061292c57607f821691505b602082108114156129405761293f6129a4565b5b50919050565b7f4e487b7100000000000000000000000000000000000000000000000000000000600052601160045260246000fd5b7f4e487b7100000000000000000000000000000000000000000000000000000000600052601260045260246000fd5b7f4e487b7100000000000000000000000000000000000000000000000000000000600052602260045260246000fd5b7f4e487b7100000000000000000000000000000000000000000000000000000000600052604160045260246000fd5b6000601f19601f8301169050919050565b612a1c8161288a565b8114612a2757600080fd5b50565b612a338161289c565b8114612a3e57600080fd5b50565b612a4a816128c8565b8114612a5557600080fd5b5056fea264697066735822122076e01556d4b7ee7a0c7618117be6a240cadbbef766361822bfb4d32b143b160d64736f6c63430008000033",
  "linkReferences": {},
  "deployedLinkReferences": {}
}